
EEE3096S_2022_Prac_2_Delays_and_I2C.elf:     file format elf32-littlearm

Sections:
Idx Name          Size      VMA       LMA       File off  Algn
  0 .isr_vector   000000c0  08000000  08000000  00010000  2**0
                  CONTENTS, ALLOC, LOAD, READONLY, DATA
  1 .text         00004ff0  080000c0  080000c0  000100c0  2**2
                  CONTENTS, ALLOC, LOAD, READONLY, CODE
  2 .rodata       00000118  080050b0  080050b0  000150b0  2**2
                  CONTENTS, ALLOC, LOAD, READONLY, DATA
  3 .ARM.extab    00000000  080051c8  080051c8  00020084  2**0
                  CONTENTS
  4 .ARM          00000000  080051c8  080051c8  00020084  2**0
                  CONTENTS
  5 .preinit_array 00000000  080051c8  080051c8  00020084  2**0
                  CONTENTS, ALLOC, LOAD, DATA
  6 .init_array   00000004  080051c8  080051c8  000151c8  2**2
                  CONTENTS, ALLOC, LOAD, DATA
  7 .fini_array   00000004  080051cc  080051cc  000151cc  2**2
                  CONTENTS, ALLOC, LOAD, DATA
  8 .data         00000084  20000000  080051d0  00020000  2**2
                  CONTENTS, ALLOC, LOAD, DATA
  9 .bss          000001a8  20000084  08005254  00020084  2**2
                  ALLOC
 10 ._user_heap_stack 00000604  2000022c  08005254  0002022c  2**0
                  ALLOC
 11 .ARM.attributes 00000028  00000000  00000000  00020084  2**0
                  CONTENTS, READONLY
 12 .debug_info   0000c8d2  00000000  00000000  000200ac  2**0
                  CONTENTS, READONLY, DEBUGGING, OCTETS
 13 .debug_abbrev 00001e6a  00000000  00000000  0002c97e  2**0
                  CONTENTS, READONLY, DEBUGGING, OCTETS
 14 .debug_aranges 00000a10  00000000  00000000  0002e7e8  2**3
                  CONTENTS, READONLY, DEBUGGING, OCTETS
 15 .debug_ranges 00000948  00000000  00000000  0002f1f8  2**3
                  CONTENTS, READONLY, DEBUGGING, OCTETS
 16 .debug_macro  00012107  00000000  00000000  0002fb40  2**0
                  CONTENTS, READONLY, DEBUGGING, OCTETS
 17 .debug_line   0000d96b  00000000  00000000  00041c47  2**0
                  CONTENTS, READONLY, DEBUGGING, OCTETS
 18 .debug_str    0006a310  00000000  00000000  0004f5b2  2**0
                  CONTENTS, READONLY, DEBUGGING, OCTETS
 19 .comment      00000050  00000000  00000000  000b98c2  2**0
                  CONTENTS, READONLY
 20 .debug_frame  00002838  00000000  00000000  000b9914  2**2
                  CONTENTS, READONLY, DEBUGGING, OCTETS

Disassembly of section .text:

080000c0 <__do_global_dtors_aux>:
 80000c0:	b510      	push	{r4, lr}
 80000c2:	4c06      	ldr	r4, [pc, #24]	; (80000dc <__do_global_dtors_aux+0x1c>)
 80000c4:	7823      	ldrb	r3, [r4, #0]
 80000c6:	2b00      	cmp	r3, #0
 80000c8:	d107      	bne.n	80000da <__do_global_dtors_aux+0x1a>
 80000ca:	4b05      	ldr	r3, [pc, #20]	; (80000e0 <__do_global_dtors_aux+0x20>)
 80000cc:	2b00      	cmp	r3, #0
 80000ce:	d002      	beq.n	80000d6 <__do_global_dtors_aux+0x16>
 80000d0:	4804      	ldr	r0, [pc, #16]	; (80000e4 <__do_global_dtors_aux+0x24>)
 80000d2:	e000      	b.n	80000d6 <__do_global_dtors_aux+0x16>
 80000d4:	bf00      	nop
 80000d6:	2301      	movs	r3, #1
 80000d8:	7023      	strb	r3, [r4, #0]
 80000da:	bd10      	pop	{r4, pc}
 80000dc:	20000084 	.word	0x20000084
 80000e0:	00000000 	.word	0x00000000
 80000e4:	08005098 	.word	0x08005098

080000e8 <frame_dummy>:
 80000e8:	4b04      	ldr	r3, [pc, #16]	; (80000fc <frame_dummy+0x14>)
 80000ea:	b510      	push	{r4, lr}
 80000ec:	2b00      	cmp	r3, #0
 80000ee:	d003      	beq.n	80000f8 <frame_dummy+0x10>
 80000f0:	4903      	ldr	r1, [pc, #12]	; (8000100 <frame_dummy+0x18>)
 80000f2:	4804      	ldr	r0, [pc, #16]	; (8000104 <frame_dummy+0x1c>)
 80000f4:	e000      	b.n	80000f8 <frame_dummy+0x10>
 80000f6:	bf00      	nop
 80000f8:	bd10      	pop	{r4, pc}
 80000fa:	46c0      	nop			; (mov r8, r8)
 80000fc:	00000000 	.word	0x00000000
 8000100:	20000088 	.word	0x20000088
 8000104:	08005098 	.word	0x08005098

08000108 <__gnu_thumb1_case_shi>:
 8000108:	b403      	push	{r0, r1}
 800010a:	4671      	mov	r1, lr
 800010c:	0849      	lsrs	r1, r1, #1
 800010e:	0040      	lsls	r0, r0, #1
 8000110:	0049      	lsls	r1, r1, #1
 8000112:	5e09      	ldrsh	r1, [r1, r0]
 8000114:	0049      	lsls	r1, r1, #1
 8000116:	448e      	add	lr, r1
 8000118:	bc03      	pop	{r0, r1}
 800011a:	4770      	bx	lr

0800011c <__udivsi3>:
 800011c:	2200      	movs	r2, #0
 800011e:	0843      	lsrs	r3, r0, #1
 8000120:	428b      	cmp	r3, r1
 8000122:	d374      	bcc.n	800020e <__udivsi3+0xf2>
 8000124:	0903      	lsrs	r3, r0, #4
 8000126:	428b      	cmp	r3, r1
 8000128:	d35f      	bcc.n	80001ea <__udivsi3+0xce>
 800012a:	0a03      	lsrs	r3, r0, #8
 800012c:	428b      	cmp	r3, r1
 800012e:	d344      	bcc.n	80001ba <__udivsi3+0x9e>
 8000130:	0b03      	lsrs	r3, r0, #12
 8000132:	428b      	cmp	r3, r1
 8000134:	d328      	bcc.n	8000188 <__udivsi3+0x6c>
 8000136:	0c03      	lsrs	r3, r0, #16
 8000138:	428b      	cmp	r3, r1
 800013a:	d30d      	bcc.n	8000158 <__udivsi3+0x3c>
 800013c:	22ff      	movs	r2, #255	; 0xff
 800013e:	0209      	lsls	r1, r1, #8
 8000140:	ba12      	rev	r2, r2
 8000142:	0c03      	lsrs	r3, r0, #16
 8000144:	428b      	cmp	r3, r1
 8000146:	d302      	bcc.n	800014e <__udivsi3+0x32>
 8000148:	1212      	asrs	r2, r2, #8
 800014a:	0209      	lsls	r1, r1, #8
 800014c:	d065      	beq.n	800021a <__udivsi3+0xfe>
 800014e:	0b03      	lsrs	r3, r0, #12
 8000150:	428b      	cmp	r3, r1
 8000152:	d319      	bcc.n	8000188 <__udivsi3+0x6c>
 8000154:	e000      	b.n	8000158 <__udivsi3+0x3c>
 8000156:	0a09      	lsrs	r1, r1, #8
 8000158:	0bc3      	lsrs	r3, r0, #15
 800015a:	428b      	cmp	r3, r1
 800015c:	d301      	bcc.n	8000162 <__udivsi3+0x46>
 800015e:	03cb      	lsls	r3, r1, #15
 8000160:	1ac0      	subs	r0, r0, r3
 8000162:	4152      	adcs	r2, r2
 8000164:	0b83      	lsrs	r3, r0, #14
 8000166:	428b      	cmp	r3, r1
 8000168:	d301      	bcc.n	800016e <__udivsi3+0x52>
 800016a:	038b      	lsls	r3, r1, #14
 800016c:	1ac0      	subs	r0, r0, r3
 800016e:	4152      	adcs	r2, r2
 8000170:	0b43      	lsrs	r3, r0, #13
 8000172:	428b      	cmp	r3, r1
 8000174:	d301      	bcc.n	800017a <__udivsi3+0x5e>
 8000176:	034b      	lsls	r3, r1, #13
 8000178:	1ac0      	subs	r0, r0, r3
 800017a:	4152      	adcs	r2, r2
 800017c:	0b03      	lsrs	r3, r0, #12
 800017e:	428b      	cmp	r3, r1
 8000180:	d301      	bcc.n	8000186 <__udivsi3+0x6a>
 8000182:	030b      	lsls	r3, r1, #12
 8000184:	1ac0      	subs	r0, r0, r3
 8000186:	4152      	adcs	r2, r2
 8000188:	0ac3      	lsrs	r3, r0, #11
 800018a:	428b      	cmp	r3, r1
 800018c:	d301      	bcc.n	8000192 <__udivsi3+0x76>
 800018e:	02cb      	lsls	r3, r1, #11
 8000190:	1ac0      	subs	r0, r0, r3
 8000192:	4152      	adcs	r2, r2
 8000194:	0a83      	lsrs	r3, r0, #10
 8000196:	428b      	cmp	r3, r1
 8000198:	d301      	bcc.n	800019e <__udivsi3+0x82>
 800019a:	028b      	lsls	r3, r1, #10
 800019c:	1ac0      	subs	r0, r0, r3
 800019e:	4152      	adcs	r2, r2
 80001a0:	0a43      	lsrs	r3, r0, #9
 80001a2:	428b      	cmp	r3, r1
 80001a4:	d301      	bcc.n	80001aa <__udivsi3+0x8e>
 80001a6:	024b      	lsls	r3, r1, #9
 80001a8:	1ac0      	subs	r0, r0, r3
 80001aa:	4152      	adcs	r2, r2
 80001ac:	0a03      	lsrs	r3, r0, #8
 80001ae:	428b      	cmp	r3, r1
 80001b0:	d301      	bcc.n	80001b6 <__udivsi3+0x9a>
 80001b2:	020b      	lsls	r3, r1, #8
 80001b4:	1ac0      	subs	r0, r0, r3
 80001b6:	4152      	adcs	r2, r2
 80001b8:	d2cd      	bcs.n	8000156 <__udivsi3+0x3a>
 80001ba:	09c3      	lsrs	r3, r0, #7
 80001bc:	428b      	cmp	r3, r1
 80001be:	d301      	bcc.n	80001c4 <__udivsi3+0xa8>
 80001c0:	01cb      	lsls	r3, r1, #7
 80001c2:	1ac0      	subs	r0, r0, r3
 80001c4:	4152      	adcs	r2, r2
 80001c6:	0983      	lsrs	r3, r0, #6
 80001c8:	428b      	cmp	r3, r1
 80001ca:	d301      	bcc.n	80001d0 <__udivsi3+0xb4>
 80001cc:	018b      	lsls	r3, r1, #6
 80001ce:	1ac0      	subs	r0, r0, r3
 80001d0:	4152      	adcs	r2, r2
 80001d2:	0943      	lsrs	r3, r0, #5
 80001d4:	428b      	cmp	r3, r1
 80001d6:	d301      	bcc.n	80001dc <__udivsi3+0xc0>
 80001d8:	014b      	lsls	r3, r1, #5
 80001da:	1ac0      	subs	r0, r0, r3
 80001dc:	4152      	adcs	r2, r2
 80001de:	0903      	lsrs	r3, r0, #4
 80001e0:	428b      	cmp	r3, r1
 80001e2:	d301      	bcc.n	80001e8 <__udivsi3+0xcc>
 80001e4:	010b      	lsls	r3, r1, #4
 80001e6:	1ac0      	subs	r0, r0, r3
 80001e8:	4152      	adcs	r2, r2
 80001ea:	08c3      	lsrs	r3, r0, #3
 80001ec:	428b      	cmp	r3, r1
 80001ee:	d301      	bcc.n	80001f4 <__udivsi3+0xd8>
 80001f0:	00cb      	lsls	r3, r1, #3
 80001f2:	1ac0      	subs	r0, r0, r3
 80001f4:	4152      	adcs	r2, r2
 80001f6:	0883      	lsrs	r3, r0, #2
 80001f8:	428b      	cmp	r3, r1
 80001fa:	d301      	bcc.n	8000200 <__udivsi3+0xe4>
 80001fc:	008b      	lsls	r3, r1, #2
 80001fe:	1ac0      	subs	r0, r0, r3
 8000200:	4152      	adcs	r2, r2
 8000202:	0843      	lsrs	r3, r0, #1
 8000204:	428b      	cmp	r3, r1
 8000206:	d301      	bcc.n	800020c <__udivsi3+0xf0>
 8000208:	004b      	lsls	r3, r1, #1
 800020a:	1ac0      	subs	r0, r0, r3
 800020c:	4152      	adcs	r2, r2
 800020e:	1a41      	subs	r1, r0, r1
 8000210:	d200      	bcs.n	8000214 <__udivsi3+0xf8>
 8000212:	4601      	mov	r1, r0
 8000214:	4152      	adcs	r2, r2
 8000216:	4610      	mov	r0, r2
 8000218:	4770      	bx	lr
 800021a:	e7ff      	b.n	800021c <__udivsi3+0x100>
 800021c:	b501      	push	{r0, lr}
 800021e:	2000      	movs	r0, #0
 8000220:	f000 f8f0 	bl	8000404 <__aeabi_idiv0>
 8000224:	bd02      	pop	{r1, pc}
 8000226:	46c0      	nop			; (mov r8, r8)

08000228 <__aeabi_uidivmod>:
 8000228:	2900      	cmp	r1, #0
 800022a:	d0f7      	beq.n	800021c <__udivsi3+0x100>
 800022c:	e776      	b.n	800011c <__udivsi3>
 800022e:	4770      	bx	lr

08000230 <__divsi3>:
 8000230:	4603      	mov	r3, r0
 8000232:	430b      	orrs	r3, r1
 8000234:	d47f      	bmi.n	8000336 <__divsi3+0x106>
 8000236:	2200      	movs	r2, #0
 8000238:	0843      	lsrs	r3, r0, #1
 800023a:	428b      	cmp	r3, r1
 800023c:	d374      	bcc.n	8000328 <__divsi3+0xf8>
 800023e:	0903      	lsrs	r3, r0, #4
 8000240:	428b      	cmp	r3, r1
 8000242:	d35f      	bcc.n	8000304 <__divsi3+0xd4>
 8000244:	0a03      	lsrs	r3, r0, #8
 8000246:	428b      	cmp	r3, r1
 8000248:	d344      	bcc.n	80002d4 <__divsi3+0xa4>
 800024a:	0b03      	lsrs	r3, r0, #12
 800024c:	428b      	cmp	r3, r1
 800024e:	d328      	bcc.n	80002a2 <__divsi3+0x72>
 8000250:	0c03      	lsrs	r3, r0, #16
 8000252:	428b      	cmp	r3, r1
 8000254:	d30d      	bcc.n	8000272 <__divsi3+0x42>
 8000256:	22ff      	movs	r2, #255	; 0xff
 8000258:	0209      	lsls	r1, r1, #8
 800025a:	ba12      	rev	r2, r2
 800025c:	0c03      	lsrs	r3, r0, #16
 800025e:	428b      	cmp	r3, r1
 8000260:	d302      	bcc.n	8000268 <__divsi3+0x38>
 8000262:	1212      	asrs	r2, r2, #8
 8000264:	0209      	lsls	r1, r1, #8
 8000266:	d065      	beq.n	8000334 <__divsi3+0x104>
 8000268:	0b03      	lsrs	r3, r0, #12
 800026a:	428b      	cmp	r3, r1
 800026c:	d319      	bcc.n	80002a2 <__divsi3+0x72>
 800026e:	e000      	b.n	8000272 <__divsi3+0x42>
 8000270:	0a09      	lsrs	r1, r1, #8
 8000272:	0bc3      	lsrs	r3, r0, #15
 8000274:	428b      	cmp	r3, r1
 8000276:	d301      	bcc.n	800027c <__divsi3+0x4c>
 8000278:	03cb      	lsls	r3, r1, #15
 800027a:	1ac0      	subs	r0, r0, r3
 800027c:	4152      	adcs	r2, r2
 800027e:	0b83      	lsrs	r3, r0, #14
 8000280:	428b      	cmp	r3, r1
 8000282:	d301      	bcc.n	8000288 <__divsi3+0x58>
 8000284:	038b      	lsls	r3, r1, #14
 8000286:	1ac0      	subs	r0, r0, r3
 8000288:	4152      	adcs	r2, r2
 800028a:	0b43      	lsrs	r3, r0, #13
 800028c:	428b      	cmp	r3, r1
 800028e:	d301      	bcc.n	8000294 <__divsi3+0x64>
 8000290:	034b      	lsls	r3, r1, #13
 8000292:	1ac0      	subs	r0, r0, r3
 8000294:	4152      	adcs	r2, r2
 8000296:	0b03      	lsrs	r3, r0, #12
 8000298:	428b      	cmp	r3, r1
 800029a:	d301      	bcc.n	80002a0 <__divsi3+0x70>
 800029c:	030b      	lsls	r3, r1, #12
 800029e:	1ac0      	subs	r0, r0, r3
 80002a0:	4152      	adcs	r2, r2
 80002a2:	0ac3      	lsrs	r3, r0, #11
 80002a4:	428b      	cmp	r3, r1
 80002a6:	d301      	bcc.n	80002ac <__divsi3+0x7c>
 80002a8:	02cb      	lsls	r3, r1, #11
 80002aa:	1ac0      	subs	r0, r0, r3
 80002ac:	4152      	adcs	r2, r2
 80002ae:	0a83      	lsrs	r3, r0, #10
 80002b0:	428b      	cmp	r3, r1
 80002b2:	d301      	bcc.n	80002b8 <__divsi3+0x88>
 80002b4:	028b      	lsls	r3, r1, #10
 80002b6:	1ac0      	subs	r0, r0, r3
 80002b8:	4152      	adcs	r2, r2
 80002ba:	0a43      	lsrs	r3, r0, #9
 80002bc:	428b      	cmp	r3, r1
 80002be:	d301      	bcc.n	80002c4 <__divsi3+0x94>
 80002c0:	024b      	lsls	r3, r1, #9
 80002c2:	1ac0      	subs	r0, r0, r3
 80002c4:	4152      	adcs	r2, r2
 80002c6:	0a03      	lsrs	r3, r0, #8
 80002c8:	428b      	cmp	r3, r1
 80002ca:	d301      	bcc.n	80002d0 <__divsi3+0xa0>
 80002cc:	020b      	lsls	r3, r1, #8
 80002ce:	1ac0      	subs	r0, r0, r3
 80002d0:	4152      	adcs	r2, r2
 80002d2:	d2cd      	bcs.n	8000270 <__divsi3+0x40>
 80002d4:	09c3      	lsrs	r3, r0, #7
 80002d6:	428b      	cmp	r3, r1
 80002d8:	d301      	bcc.n	80002de <__divsi3+0xae>
 80002da:	01cb      	lsls	r3, r1, #7
 80002dc:	1ac0      	subs	r0, r0, r3
 80002de:	4152      	adcs	r2, r2
 80002e0:	0983      	lsrs	r3, r0, #6
 80002e2:	428b      	cmp	r3, r1
 80002e4:	d301      	bcc.n	80002ea <__divsi3+0xba>
 80002e6:	018b      	lsls	r3, r1, #6
 80002e8:	1ac0      	subs	r0, r0, r3
 80002ea:	4152      	adcs	r2, r2
 80002ec:	0943      	lsrs	r3, r0, #5
 80002ee:	428b      	cmp	r3, r1
 80002f0:	d301      	bcc.n	80002f6 <__divsi3+0xc6>
 80002f2:	014b      	lsls	r3, r1, #5
 80002f4:	1ac0      	subs	r0, r0, r3
 80002f6:	4152      	adcs	r2, r2
 80002f8:	0903      	lsrs	r3, r0, #4
 80002fa:	428b      	cmp	r3, r1
 80002fc:	d301      	bcc.n	8000302 <__divsi3+0xd2>
 80002fe:	010b      	lsls	r3, r1, #4
 8000300:	1ac0      	subs	r0, r0, r3
 8000302:	4152      	adcs	r2, r2
 8000304:	08c3      	lsrs	r3, r0, #3
 8000306:	428b      	cmp	r3, r1
 8000308:	d301      	bcc.n	800030e <__divsi3+0xde>
 800030a:	00cb      	lsls	r3, r1, #3
 800030c:	1ac0      	subs	r0, r0, r3
 800030e:	4152      	adcs	r2, r2
 8000310:	0883      	lsrs	r3, r0, #2
 8000312:	428b      	cmp	r3, r1
 8000314:	d301      	bcc.n	800031a <__divsi3+0xea>
 8000316:	008b      	lsls	r3, r1, #2
 8000318:	1ac0      	subs	r0, r0, r3
 800031a:	4152      	adcs	r2, r2
 800031c:	0843      	lsrs	r3, r0, #1
 800031e:	428b      	cmp	r3, r1
 8000320:	d301      	bcc.n	8000326 <__divsi3+0xf6>
 8000322:	004b      	lsls	r3, r1, #1
 8000324:	1ac0      	subs	r0, r0, r3
 8000326:	4152      	adcs	r2, r2
 8000328:	1a41      	subs	r1, r0, r1
 800032a:	d200      	bcs.n	800032e <__divsi3+0xfe>
 800032c:	4601      	mov	r1, r0
 800032e:	4152      	adcs	r2, r2
 8000330:	4610      	mov	r0, r2
 8000332:	4770      	bx	lr
 8000334:	e05d      	b.n	80003f2 <__divsi3+0x1c2>
 8000336:	0fca      	lsrs	r2, r1, #31
 8000338:	d000      	beq.n	800033c <__divsi3+0x10c>
 800033a:	4249      	negs	r1, r1
 800033c:	1003      	asrs	r3, r0, #32
 800033e:	d300      	bcc.n	8000342 <__divsi3+0x112>
 8000340:	4240      	negs	r0, r0
 8000342:	4053      	eors	r3, r2
 8000344:	2200      	movs	r2, #0
 8000346:	469c      	mov	ip, r3
 8000348:	0903      	lsrs	r3, r0, #4
 800034a:	428b      	cmp	r3, r1
 800034c:	d32d      	bcc.n	80003aa <__divsi3+0x17a>
 800034e:	0a03      	lsrs	r3, r0, #8
 8000350:	428b      	cmp	r3, r1
 8000352:	d312      	bcc.n	800037a <__divsi3+0x14a>
 8000354:	22fc      	movs	r2, #252	; 0xfc
 8000356:	0189      	lsls	r1, r1, #6
 8000358:	ba12      	rev	r2, r2
 800035a:	0a03      	lsrs	r3, r0, #8
 800035c:	428b      	cmp	r3, r1
 800035e:	d30c      	bcc.n	800037a <__divsi3+0x14a>
 8000360:	0189      	lsls	r1, r1, #6
 8000362:	1192      	asrs	r2, r2, #6
 8000364:	428b      	cmp	r3, r1
 8000366:	d308      	bcc.n	800037a <__divsi3+0x14a>
 8000368:	0189      	lsls	r1, r1, #6
 800036a:	1192      	asrs	r2, r2, #6
 800036c:	428b      	cmp	r3, r1
 800036e:	d304      	bcc.n	800037a <__divsi3+0x14a>
 8000370:	0189      	lsls	r1, r1, #6
 8000372:	d03a      	beq.n	80003ea <__divsi3+0x1ba>
 8000374:	1192      	asrs	r2, r2, #6
 8000376:	e000      	b.n	800037a <__divsi3+0x14a>
 8000378:	0989      	lsrs	r1, r1, #6
 800037a:	09c3      	lsrs	r3, r0, #7
 800037c:	428b      	cmp	r3, r1
 800037e:	d301      	bcc.n	8000384 <__divsi3+0x154>
 8000380:	01cb      	lsls	r3, r1, #7
 8000382:	1ac0      	subs	r0, r0, r3
 8000384:	4152      	adcs	r2, r2
 8000386:	0983      	lsrs	r3, r0, #6
 8000388:	428b      	cmp	r3, r1
 800038a:	d301      	bcc.n	8000390 <__divsi3+0x160>
 800038c:	018b      	lsls	r3, r1, #6
 800038e:	1ac0      	subs	r0, r0, r3
 8000390:	4152      	adcs	r2, r2
 8000392:	0943      	lsrs	r3, r0, #5
 8000394:	428b      	cmp	r3, r1
 8000396:	d301      	bcc.n	800039c <__divsi3+0x16c>
 8000398:	014b      	lsls	r3, r1, #5
 800039a:	1ac0      	subs	r0, r0, r3
 800039c:	4152      	adcs	r2, r2
 800039e:	0903      	lsrs	r3, r0, #4
 80003a0:	428b      	cmp	r3, r1
 80003a2:	d301      	bcc.n	80003a8 <__divsi3+0x178>
 80003a4:	010b      	lsls	r3, r1, #4
 80003a6:	1ac0      	subs	r0, r0, r3
 80003a8:	4152      	adcs	r2, r2
 80003aa:	08c3      	lsrs	r3, r0, #3
 80003ac:	428b      	cmp	r3, r1
 80003ae:	d301      	bcc.n	80003b4 <__divsi3+0x184>
 80003b0:	00cb      	lsls	r3, r1, #3
 80003b2:	1ac0      	subs	r0, r0, r3
 80003b4:	4152      	adcs	r2, r2
 80003b6:	0883      	lsrs	r3, r0, #2
 80003b8:	428b      	cmp	r3, r1
 80003ba:	d301      	bcc.n	80003c0 <__divsi3+0x190>
 80003bc:	008b      	lsls	r3, r1, #2
 80003be:	1ac0      	subs	r0, r0, r3
 80003c0:	4152      	adcs	r2, r2
 80003c2:	d2d9      	bcs.n	8000378 <__divsi3+0x148>
 80003c4:	0843      	lsrs	r3, r0, #1
 80003c6:	428b      	cmp	r3, r1
 80003c8:	d301      	bcc.n	80003ce <__divsi3+0x19e>
 80003ca:	004b      	lsls	r3, r1, #1
 80003cc:	1ac0      	subs	r0, r0, r3
 80003ce:	4152      	adcs	r2, r2
 80003d0:	1a41      	subs	r1, r0, r1
 80003d2:	d200      	bcs.n	80003d6 <__divsi3+0x1a6>
 80003d4:	4601      	mov	r1, r0
 80003d6:	4663      	mov	r3, ip
 80003d8:	4152      	adcs	r2, r2
 80003da:	105b      	asrs	r3, r3, #1
 80003dc:	4610      	mov	r0, r2
 80003de:	d301      	bcc.n	80003e4 <__divsi3+0x1b4>
 80003e0:	4240      	negs	r0, r0
 80003e2:	2b00      	cmp	r3, #0
 80003e4:	d500      	bpl.n	80003e8 <__divsi3+0x1b8>
 80003e6:	4249      	negs	r1, r1
 80003e8:	4770      	bx	lr
 80003ea:	4663      	mov	r3, ip
 80003ec:	105b      	asrs	r3, r3, #1
 80003ee:	d300      	bcc.n	80003f2 <__divsi3+0x1c2>
 80003f0:	4240      	negs	r0, r0
 80003f2:	b501      	push	{r0, lr}
 80003f4:	2000      	movs	r0, #0
 80003f6:	f000 f805 	bl	8000404 <__aeabi_idiv0>
 80003fa:	bd02      	pop	{r1, pc}

080003fc <__aeabi_idivmod>:
 80003fc:	2900      	cmp	r1, #0
 80003fe:	d0f8      	beq.n	80003f2 <__divsi3+0x1c2>
 8000400:	e716      	b.n	8000230 <__divsi3>
 8000402:	4770      	bx	lr

08000404 <__aeabi_idiv0>:
 8000404:	4770      	bx	lr
 8000406:	46c0      	nop			; (mov r8, r8)

08000408 <__aeabi_f2uiz>:
 8000408:	219e      	movs	r1, #158	; 0x9e
 800040a:	b510      	push	{r4, lr}
 800040c:	05c9      	lsls	r1, r1, #23
 800040e:	1c04      	adds	r4, r0, #0
 8000410:	f000 fb36 	bl	8000a80 <__aeabi_fcmpge>
 8000414:	2800      	cmp	r0, #0
 8000416:	d103      	bne.n	8000420 <__aeabi_f2uiz+0x18>
 8000418:	1c20      	adds	r0, r4, #0
 800041a:	f000 fae1 	bl	80009e0 <__aeabi_f2iz>
 800041e:	bd10      	pop	{r4, pc}
 8000420:	219e      	movs	r1, #158	; 0x9e
 8000422:	1c20      	adds	r0, r4, #0
 8000424:	05c9      	lsls	r1, r1, #23
 8000426:	f000 f92d 	bl	8000684 <__aeabi_fsub>
 800042a:	f000 fad9 	bl	80009e0 <__aeabi_f2iz>
 800042e:	2380      	movs	r3, #128	; 0x80
 8000430:	061b      	lsls	r3, r3, #24
 8000432:	469c      	mov	ip, r3
 8000434:	4460      	add	r0, ip
 8000436:	e7f2      	b.n	800041e <__aeabi_f2uiz+0x16>

08000438 <__aeabi_fmul>:
 8000438:	b5f0      	push	{r4, r5, r6, r7, lr}
 800043a:	464f      	mov	r7, r9
 800043c:	4646      	mov	r6, r8
 800043e:	46d6      	mov	lr, sl
 8000440:	0244      	lsls	r4, r0, #9
 8000442:	0045      	lsls	r5, r0, #1
 8000444:	b5c0      	push	{r6, r7, lr}
 8000446:	0a64      	lsrs	r4, r4, #9
 8000448:	1c0f      	adds	r7, r1, #0
 800044a:	0e2d      	lsrs	r5, r5, #24
 800044c:	0fc6      	lsrs	r6, r0, #31
 800044e:	2d00      	cmp	r5, #0
 8000450:	d100      	bne.n	8000454 <__aeabi_fmul+0x1c>
 8000452:	e08d      	b.n	8000570 <__aeabi_fmul+0x138>
 8000454:	2dff      	cmp	r5, #255	; 0xff
 8000456:	d100      	bne.n	800045a <__aeabi_fmul+0x22>
 8000458:	e092      	b.n	8000580 <__aeabi_fmul+0x148>
 800045a:	2300      	movs	r3, #0
 800045c:	2080      	movs	r0, #128	; 0x80
 800045e:	4699      	mov	r9, r3
 8000460:	469a      	mov	sl, r3
 8000462:	00e4      	lsls	r4, r4, #3
 8000464:	04c0      	lsls	r0, r0, #19
 8000466:	4304      	orrs	r4, r0
 8000468:	3d7f      	subs	r5, #127	; 0x7f
 800046a:	0278      	lsls	r0, r7, #9
 800046c:	0a43      	lsrs	r3, r0, #9
 800046e:	4698      	mov	r8, r3
 8000470:	007b      	lsls	r3, r7, #1
 8000472:	0e1b      	lsrs	r3, r3, #24
 8000474:	0fff      	lsrs	r7, r7, #31
 8000476:	2b00      	cmp	r3, #0
 8000478:	d100      	bne.n	800047c <__aeabi_fmul+0x44>
 800047a:	e070      	b.n	800055e <__aeabi_fmul+0x126>
 800047c:	2bff      	cmp	r3, #255	; 0xff
 800047e:	d100      	bne.n	8000482 <__aeabi_fmul+0x4a>
 8000480:	e086      	b.n	8000590 <__aeabi_fmul+0x158>
 8000482:	4642      	mov	r2, r8
 8000484:	00d0      	lsls	r0, r2, #3
 8000486:	2280      	movs	r2, #128	; 0x80
 8000488:	3b7f      	subs	r3, #127	; 0x7f
 800048a:	18ed      	adds	r5, r5, r3
 800048c:	2300      	movs	r3, #0
 800048e:	04d2      	lsls	r2, r2, #19
 8000490:	4302      	orrs	r2, r0
 8000492:	4690      	mov	r8, r2
 8000494:	469c      	mov	ip, r3
 8000496:	0031      	movs	r1, r6
 8000498:	464b      	mov	r3, r9
 800049a:	4079      	eors	r1, r7
 800049c:	1c68      	adds	r0, r5, #1
 800049e:	2b0f      	cmp	r3, #15
 80004a0:	d81c      	bhi.n	80004dc <__aeabi_fmul+0xa4>
 80004a2:	4a76      	ldr	r2, [pc, #472]	; (800067c <__aeabi_fmul+0x244>)
 80004a4:	009b      	lsls	r3, r3, #2
 80004a6:	58d3      	ldr	r3, [r2, r3]
 80004a8:	469f      	mov	pc, r3
 80004aa:	0039      	movs	r1, r7
 80004ac:	4644      	mov	r4, r8
 80004ae:	46e2      	mov	sl, ip
 80004b0:	4653      	mov	r3, sl
 80004b2:	2b02      	cmp	r3, #2
 80004b4:	d00f      	beq.n	80004d6 <__aeabi_fmul+0x9e>
 80004b6:	2b03      	cmp	r3, #3
 80004b8:	d100      	bne.n	80004bc <__aeabi_fmul+0x84>
 80004ba:	e0d7      	b.n	800066c <__aeabi_fmul+0x234>
 80004bc:	2b01      	cmp	r3, #1
 80004be:	d137      	bne.n	8000530 <__aeabi_fmul+0xf8>
 80004c0:	2000      	movs	r0, #0
 80004c2:	2400      	movs	r4, #0
 80004c4:	05c0      	lsls	r0, r0, #23
 80004c6:	4320      	orrs	r0, r4
 80004c8:	07c9      	lsls	r1, r1, #31
 80004ca:	4308      	orrs	r0, r1
 80004cc:	bce0      	pop	{r5, r6, r7}
 80004ce:	46ba      	mov	sl, r7
 80004d0:	46b1      	mov	r9, r6
 80004d2:	46a8      	mov	r8, r5
 80004d4:	bdf0      	pop	{r4, r5, r6, r7, pc}
 80004d6:	20ff      	movs	r0, #255	; 0xff
 80004d8:	2400      	movs	r4, #0
 80004da:	e7f3      	b.n	80004c4 <__aeabi_fmul+0x8c>
 80004dc:	0c26      	lsrs	r6, r4, #16
 80004de:	0424      	lsls	r4, r4, #16
 80004e0:	0c22      	lsrs	r2, r4, #16
 80004e2:	4644      	mov	r4, r8
 80004e4:	0424      	lsls	r4, r4, #16
 80004e6:	0c24      	lsrs	r4, r4, #16
 80004e8:	4643      	mov	r3, r8
 80004ea:	0027      	movs	r7, r4
 80004ec:	0c1b      	lsrs	r3, r3, #16
 80004ee:	4357      	muls	r7, r2
 80004f0:	4374      	muls	r4, r6
 80004f2:	435a      	muls	r2, r3
 80004f4:	435e      	muls	r6, r3
 80004f6:	1912      	adds	r2, r2, r4
 80004f8:	0c3b      	lsrs	r3, r7, #16
 80004fa:	189b      	adds	r3, r3, r2
 80004fc:	429c      	cmp	r4, r3
 80004fe:	d903      	bls.n	8000508 <__aeabi_fmul+0xd0>
 8000500:	2280      	movs	r2, #128	; 0x80
 8000502:	0252      	lsls	r2, r2, #9
 8000504:	4694      	mov	ip, r2
 8000506:	4466      	add	r6, ip
 8000508:	043f      	lsls	r7, r7, #16
 800050a:	041a      	lsls	r2, r3, #16
 800050c:	0c3f      	lsrs	r7, r7, #16
 800050e:	19d2      	adds	r2, r2, r7
 8000510:	0194      	lsls	r4, r2, #6
 8000512:	1e67      	subs	r7, r4, #1
 8000514:	41bc      	sbcs	r4, r7
 8000516:	0c1b      	lsrs	r3, r3, #16
 8000518:	0e92      	lsrs	r2, r2, #26
 800051a:	199b      	adds	r3, r3, r6
 800051c:	4314      	orrs	r4, r2
 800051e:	019b      	lsls	r3, r3, #6
 8000520:	431c      	orrs	r4, r3
 8000522:	011b      	lsls	r3, r3, #4
 8000524:	d400      	bmi.n	8000528 <__aeabi_fmul+0xf0>
 8000526:	e09b      	b.n	8000660 <__aeabi_fmul+0x228>
 8000528:	2301      	movs	r3, #1
 800052a:	0862      	lsrs	r2, r4, #1
 800052c:	401c      	ands	r4, r3
 800052e:	4314      	orrs	r4, r2
 8000530:	0002      	movs	r2, r0
 8000532:	327f      	adds	r2, #127	; 0x7f
 8000534:	2a00      	cmp	r2, #0
 8000536:	dd64      	ble.n	8000602 <__aeabi_fmul+0x1ca>
 8000538:	0763      	lsls	r3, r4, #29
 800053a:	d004      	beq.n	8000546 <__aeabi_fmul+0x10e>
 800053c:	230f      	movs	r3, #15
 800053e:	4023      	ands	r3, r4
 8000540:	2b04      	cmp	r3, #4
 8000542:	d000      	beq.n	8000546 <__aeabi_fmul+0x10e>
 8000544:	3404      	adds	r4, #4
 8000546:	0123      	lsls	r3, r4, #4
 8000548:	d503      	bpl.n	8000552 <__aeabi_fmul+0x11a>
 800054a:	0002      	movs	r2, r0
 800054c:	4b4c      	ldr	r3, [pc, #304]	; (8000680 <__aeabi_fmul+0x248>)
 800054e:	3280      	adds	r2, #128	; 0x80
 8000550:	401c      	ands	r4, r3
 8000552:	2afe      	cmp	r2, #254	; 0xfe
 8000554:	dcbf      	bgt.n	80004d6 <__aeabi_fmul+0x9e>
 8000556:	01a4      	lsls	r4, r4, #6
 8000558:	0a64      	lsrs	r4, r4, #9
 800055a:	b2d0      	uxtb	r0, r2
 800055c:	e7b2      	b.n	80004c4 <__aeabi_fmul+0x8c>
 800055e:	4643      	mov	r3, r8
 8000560:	2b00      	cmp	r3, #0
 8000562:	d13d      	bne.n	80005e0 <__aeabi_fmul+0x1a8>
 8000564:	464a      	mov	r2, r9
 8000566:	3301      	adds	r3, #1
 8000568:	431a      	orrs	r2, r3
 800056a:	4691      	mov	r9, r2
 800056c:	469c      	mov	ip, r3
 800056e:	e792      	b.n	8000496 <__aeabi_fmul+0x5e>
 8000570:	2c00      	cmp	r4, #0
 8000572:	d129      	bne.n	80005c8 <__aeabi_fmul+0x190>
 8000574:	2304      	movs	r3, #4
 8000576:	4699      	mov	r9, r3
 8000578:	3b03      	subs	r3, #3
 800057a:	2500      	movs	r5, #0
 800057c:	469a      	mov	sl, r3
 800057e:	e774      	b.n	800046a <__aeabi_fmul+0x32>
 8000580:	2c00      	cmp	r4, #0
 8000582:	d11b      	bne.n	80005bc <__aeabi_fmul+0x184>
 8000584:	2308      	movs	r3, #8
 8000586:	4699      	mov	r9, r3
 8000588:	3b06      	subs	r3, #6
 800058a:	25ff      	movs	r5, #255	; 0xff
 800058c:	469a      	mov	sl, r3
 800058e:	e76c      	b.n	800046a <__aeabi_fmul+0x32>
 8000590:	4643      	mov	r3, r8
 8000592:	35ff      	adds	r5, #255	; 0xff
 8000594:	2b00      	cmp	r3, #0
 8000596:	d10b      	bne.n	80005b0 <__aeabi_fmul+0x178>
 8000598:	2302      	movs	r3, #2
 800059a:	464a      	mov	r2, r9
 800059c:	431a      	orrs	r2, r3
 800059e:	4691      	mov	r9, r2
 80005a0:	469c      	mov	ip, r3
 80005a2:	e778      	b.n	8000496 <__aeabi_fmul+0x5e>
 80005a4:	4653      	mov	r3, sl
 80005a6:	0031      	movs	r1, r6
 80005a8:	2b02      	cmp	r3, #2
 80005aa:	d000      	beq.n	80005ae <__aeabi_fmul+0x176>
 80005ac:	e783      	b.n	80004b6 <__aeabi_fmul+0x7e>
 80005ae:	e792      	b.n	80004d6 <__aeabi_fmul+0x9e>
 80005b0:	2303      	movs	r3, #3
 80005b2:	464a      	mov	r2, r9
 80005b4:	431a      	orrs	r2, r3
 80005b6:	4691      	mov	r9, r2
 80005b8:	469c      	mov	ip, r3
 80005ba:	e76c      	b.n	8000496 <__aeabi_fmul+0x5e>
 80005bc:	230c      	movs	r3, #12
 80005be:	4699      	mov	r9, r3
 80005c0:	3b09      	subs	r3, #9
 80005c2:	25ff      	movs	r5, #255	; 0xff
 80005c4:	469a      	mov	sl, r3
 80005c6:	e750      	b.n	800046a <__aeabi_fmul+0x32>
 80005c8:	0020      	movs	r0, r4
 80005ca:	f000 fa63 	bl	8000a94 <__clzsi2>
 80005ce:	2576      	movs	r5, #118	; 0x76
 80005d0:	1f43      	subs	r3, r0, #5
 80005d2:	409c      	lsls	r4, r3
 80005d4:	2300      	movs	r3, #0
 80005d6:	426d      	negs	r5, r5
 80005d8:	4699      	mov	r9, r3
 80005da:	469a      	mov	sl, r3
 80005dc:	1a2d      	subs	r5, r5, r0
 80005de:	e744      	b.n	800046a <__aeabi_fmul+0x32>
 80005e0:	4640      	mov	r0, r8
 80005e2:	f000 fa57 	bl	8000a94 <__clzsi2>
 80005e6:	4642      	mov	r2, r8
 80005e8:	1f43      	subs	r3, r0, #5
 80005ea:	409a      	lsls	r2, r3
 80005ec:	2300      	movs	r3, #0
 80005ee:	1a2d      	subs	r5, r5, r0
 80005f0:	4690      	mov	r8, r2
 80005f2:	469c      	mov	ip, r3
 80005f4:	3d76      	subs	r5, #118	; 0x76
 80005f6:	e74e      	b.n	8000496 <__aeabi_fmul+0x5e>
 80005f8:	2480      	movs	r4, #128	; 0x80
 80005fa:	2100      	movs	r1, #0
 80005fc:	20ff      	movs	r0, #255	; 0xff
 80005fe:	03e4      	lsls	r4, r4, #15
 8000600:	e760      	b.n	80004c4 <__aeabi_fmul+0x8c>
 8000602:	2301      	movs	r3, #1
 8000604:	1a9b      	subs	r3, r3, r2
 8000606:	2b1b      	cmp	r3, #27
 8000608:	dd00      	ble.n	800060c <__aeabi_fmul+0x1d4>
 800060a:	e759      	b.n	80004c0 <__aeabi_fmul+0x88>
 800060c:	0022      	movs	r2, r4
 800060e:	309e      	adds	r0, #158	; 0x9e
 8000610:	40da      	lsrs	r2, r3
 8000612:	4084      	lsls	r4, r0
 8000614:	0013      	movs	r3, r2
 8000616:	1e62      	subs	r2, r4, #1
 8000618:	4194      	sbcs	r4, r2
 800061a:	431c      	orrs	r4, r3
 800061c:	0763      	lsls	r3, r4, #29
 800061e:	d004      	beq.n	800062a <__aeabi_fmul+0x1f2>
 8000620:	230f      	movs	r3, #15
 8000622:	4023      	ands	r3, r4
 8000624:	2b04      	cmp	r3, #4
 8000626:	d000      	beq.n	800062a <__aeabi_fmul+0x1f2>
 8000628:	3404      	adds	r4, #4
 800062a:	0163      	lsls	r3, r4, #5
 800062c:	d51a      	bpl.n	8000664 <__aeabi_fmul+0x22c>
 800062e:	2001      	movs	r0, #1
 8000630:	2400      	movs	r4, #0
 8000632:	e747      	b.n	80004c4 <__aeabi_fmul+0x8c>
 8000634:	2080      	movs	r0, #128	; 0x80
 8000636:	03c0      	lsls	r0, r0, #15
 8000638:	4204      	tst	r4, r0
 800063a:	d009      	beq.n	8000650 <__aeabi_fmul+0x218>
 800063c:	4643      	mov	r3, r8
 800063e:	4203      	tst	r3, r0
 8000640:	d106      	bne.n	8000650 <__aeabi_fmul+0x218>
 8000642:	4644      	mov	r4, r8
 8000644:	4304      	orrs	r4, r0
 8000646:	0264      	lsls	r4, r4, #9
 8000648:	0039      	movs	r1, r7
 800064a:	20ff      	movs	r0, #255	; 0xff
 800064c:	0a64      	lsrs	r4, r4, #9
 800064e:	e739      	b.n	80004c4 <__aeabi_fmul+0x8c>
 8000650:	2080      	movs	r0, #128	; 0x80
 8000652:	03c0      	lsls	r0, r0, #15
 8000654:	4304      	orrs	r4, r0
 8000656:	0264      	lsls	r4, r4, #9
 8000658:	0031      	movs	r1, r6
 800065a:	20ff      	movs	r0, #255	; 0xff
 800065c:	0a64      	lsrs	r4, r4, #9
 800065e:	e731      	b.n	80004c4 <__aeabi_fmul+0x8c>
 8000660:	0028      	movs	r0, r5
 8000662:	e765      	b.n	8000530 <__aeabi_fmul+0xf8>
 8000664:	01a4      	lsls	r4, r4, #6
 8000666:	2000      	movs	r0, #0
 8000668:	0a64      	lsrs	r4, r4, #9
 800066a:	e72b      	b.n	80004c4 <__aeabi_fmul+0x8c>
 800066c:	2080      	movs	r0, #128	; 0x80
 800066e:	03c0      	lsls	r0, r0, #15
 8000670:	4304      	orrs	r4, r0
 8000672:	0264      	lsls	r4, r4, #9
 8000674:	20ff      	movs	r0, #255	; 0xff
 8000676:	0a64      	lsrs	r4, r4, #9
 8000678:	e724      	b.n	80004c4 <__aeabi_fmul+0x8c>
 800067a:	46c0      	nop			; (mov r8, r8)
 800067c:	08005108 	.word	0x08005108
 8000680:	f7ffffff 	.word	0xf7ffffff

08000684 <__aeabi_fsub>:
 8000684:	b5f8      	push	{r3, r4, r5, r6, r7, lr}
 8000686:	46ce      	mov	lr, r9
 8000688:	4647      	mov	r7, r8
 800068a:	0243      	lsls	r3, r0, #9
 800068c:	0a5b      	lsrs	r3, r3, #9
 800068e:	024e      	lsls	r6, r1, #9
 8000690:	00da      	lsls	r2, r3, #3
 8000692:	4694      	mov	ip, r2
 8000694:	0a72      	lsrs	r2, r6, #9
 8000696:	4691      	mov	r9, r2
 8000698:	0045      	lsls	r5, r0, #1
 800069a:	004a      	lsls	r2, r1, #1
 800069c:	b580      	push	{r7, lr}
 800069e:	0e2d      	lsrs	r5, r5, #24
 80006a0:	001f      	movs	r7, r3
 80006a2:	0fc4      	lsrs	r4, r0, #31
 80006a4:	0e12      	lsrs	r2, r2, #24
 80006a6:	0fc9      	lsrs	r1, r1, #31
 80006a8:	09b6      	lsrs	r6, r6, #6
 80006aa:	2aff      	cmp	r2, #255	; 0xff
 80006ac:	d05b      	beq.n	8000766 <__aeabi_fsub+0xe2>
 80006ae:	2001      	movs	r0, #1
 80006b0:	4041      	eors	r1, r0
 80006b2:	428c      	cmp	r4, r1
 80006b4:	d039      	beq.n	800072a <__aeabi_fsub+0xa6>
 80006b6:	1aa8      	subs	r0, r5, r2
 80006b8:	2800      	cmp	r0, #0
 80006ba:	dd5a      	ble.n	8000772 <__aeabi_fsub+0xee>
 80006bc:	2a00      	cmp	r2, #0
 80006be:	d06a      	beq.n	8000796 <__aeabi_fsub+0x112>
 80006c0:	2dff      	cmp	r5, #255	; 0xff
 80006c2:	d100      	bne.n	80006c6 <__aeabi_fsub+0x42>
 80006c4:	e0d9      	b.n	800087a <__aeabi_fsub+0x1f6>
 80006c6:	2280      	movs	r2, #128	; 0x80
 80006c8:	04d2      	lsls	r2, r2, #19
 80006ca:	4316      	orrs	r6, r2
 80006cc:	281b      	cmp	r0, #27
 80006ce:	dc00      	bgt.n	80006d2 <__aeabi_fsub+0x4e>
 80006d0:	e0e9      	b.n	80008a6 <__aeabi_fsub+0x222>
 80006d2:	2001      	movs	r0, #1
 80006d4:	4663      	mov	r3, ip
 80006d6:	1a18      	subs	r0, r3, r0
 80006d8:	0143      	lsls	r3, r0, #5
 80006da:	d400      	bmi.n	80006de <__aeabi_fsub+0x5a>
 80006dc:	e0b4      	b.n	8000848 <__aeabi_fsub+0x1c4>
 80006de:	0180      	lsls	r0, r0, #6
 80006e0:	0987      	lsrs	r7, r0, #6
 80006e2:	0038      	movs	r0, r7
 80006e4:	f000 f9d6 	bl	8000a94 <__clzsi2>
 80006e8:	3805      	subs	r0, #5
 80006ea:	4087      	lsls	r7, r0
 80006ec:	4285      	cmp	r5, r0
 80006ee:	dc00      	bgt.n	80006f2 <__aeabi_fsub+0x6e>
 80006f0:	e0cc      	b.n	800088c <__aeabi_fsub+0x208>
 80006f2:	1a2d      	subs	r5, r5, r0
 80006f4:	48b5      	ldr	r0, [pc, #724]	; (80009cc <__aeabi_fsub+0x348>)
 80006f6:	4038      	ands	r0, r7
 80006f8:	0743      	lsls	r3, r0, #29
 80006fa:	d004      	beq.n	8000706 <__aeabi_fsub+0x82>
 80006fc:	230f      	movs	r3, #15
 80006fe:	4003      	ands	r3, r0
 8000700:	2b04      	cmp	r3, #4
 8000702:	d000      	beq.n	8000706 <__aeabi_fsub+0x82>
 8000704:	3004      	adds	r0, #4
 8000706:	0143      	lsls	r3, r0, #5
 8000708:	d400      	bmi.n	800070c <__aeabi_fsub+0x88>
 800070a:	e0a0      	b.n	800084e <__aeabi_fsub+0x1ca>
 800070c:	1c6a      	adds	r2, r5, #1
 800070e:	2dfe      	cmp	r5, #254	; 0xfe
 8000710:	d100      	bne.n	8000714 <__aeabi_fsub+0x90>
 8000712:	e08d      	b.n	8000830 <__aeabi_fsub+0x1ac>
 8000714:	0180      	lsls	r0, r0, #6
 8000716:	0a47      	lsrs	r7, r0, #9
 8000718:	b2d2      	uxtb	r2, r2
 800071a:	05d0      	lsls	r0, r2, #23
 800071c:	4338      	orrs	r0, r7
 800071e:	07e4      	lsls	r4, r4, #31
 8000720:	4320      	orrs	r0, r4
 8000722:	bcc0      	pop	{r6, r7}
 8000724:	46b9      	mov	r9, r7
 8000726:	46b0      	mov	r8, r6
 8000728:	bdf8      	pop	{r3, r4, r5, r6, r7, pc}
 800072a:	1aa8      	subs	r0, r5, r2
 800072c:	4680      	mov	r8, r0
 800072e:	2800      	cmp	r0, #0
 8000730:	dd45      	ble.n	80007be <__aeabi_fsub+0x13a>
 8000732:	2a00      	cmp	r2, #0
 8000734:	d070      	beq.n	8000818 <__aeabi_fsub+0x194>
 8000736:	2dff      	cmp	r5, #255	; 0xff
 8000738:	d100      	bne.n	800073c <__aeabi_fsub+0xb8>
 800073a:	e09e      	b.n	800087a <__aeabi_fsub+0x1f6>
 800073c:	2380      	movs	r3, #128	; 0x80
 800073e:	04db      	lsls	r3, r3, #19
 8000740:	431e      	orrs	r6, r3
 8000742:	4643      	mov	r3, r8
 8000744:	2b1b      	cmp	r3, #27
 8000746:	dc00      	bgt.n	800074a <__aeabi_fsub+0xc6>
 8000748:	e0d2      	b.n	80008f0 <__aeabi_fsub+0x26c>
 800074a:	2001      	movs	r0, #1
 800074c:	4460      	add	r0, ip
 800074e:	0143      	lsls	r3, r0, #5
 8000750:	d57a      	bpl.n	8000848 <__aeabi_fsub+0x1c4>
 8000752:	3501      	adds	r5, #1
 8000754:	2dff      	cmp	r5, #255	; 0xff
 8000756:	d06b      	beq.n	8000830 <__aeabi_fsub+0x1ac>
 8000758:	2301      	movs	r3, #1
 800075a:	4a9d      	ldr	r2, [pc, #628]	; (80009d0 <__aeabi_fsub+0x34c>)
 800075c:	4003      	ands	r3, r0
 800075e:	0840      	lsrs	r0, r0, #1
 8000760:	4010      	ands	r0, r2
 8000762:	4318      	orrs	r0, r3
 8000764:	e7c8      	b.n	80006f8 <__aeabi_fsub+0x74>
 8000766:	2e00      	cmp	r6, #0
 8000768:	d020      	beq.n	80007ac <__aeabi_fsub+0x128>
 800076a:	428c      	cmp	r4, r1
 800076c:	d023      	beq.n	80007b6 <__aeabi_fsub+0x132>
 800076e:	0028      	movs	r0, r5
 8000770:	38ff      	subs	r0, #255	; 0xff
 8000772:	2800      	cmp	r0, #0
 8000774:	d039      	beq.n	80007ea <__aeabi_fsub+0x166>
 8000776:	1b57      	subs	r7, r2, r5
 8000778:	2d00      	cmp	r5, #0
 800077a:	d000      	beq.n	800077e <__aeabi_fsub+0xfa>
 800077c:	e09d      	b.n	80008ba <__aeabi_fsub+0x236>
 800077e:	4663      	mov	r3, ip
 8000780:	2b00      	cmp	r3, #0
 8000782:	d100      	bne.n	8000786 <__aeabi_fsub+0x102>
 8000784:	e0db      	b.n	800093e <__aeabi_fsub+0x2ba>
 8000786:	1e7b      	subs	r3, r7, #1
 8000788:	2f01      	cmp	r7, #1
 800078a:	d100      	bne.n	800078e <__aeabi_fsub+0x10a>
 800078c:	e10d      	b.n	80009aa <__aeabi_fsub+0x326>
 800078e:	2fff      	cmp	r7, #255	; 0xff
 8000790:	d071      	beq.n	8000876 <__aeabi_fsub+0x1f2>
 8000792:	001f      	movs	r7, r3
 8000794:	e098      	b.n	80008c8 <__aeabi_fsub+0x244>
 8000796:	2e00      	cmp	r6, #0
 8000798:	d100      	bne.n	800079c <__aeabi_fsub+0x118>
 800079a:	e0a7      	b.n	80008ec <__aeabi_fsub+0x268>
 800079c:	1e42      	subs	r2, r0, #1
 800079e:	2801      	cmp	r0, #1
 80007a0:	d100      	bne.n	80007a4 <__aeabi_fsub+0x120>
 80007a2:	e0e6      	b.n	8000972 <__aeabi_fsub+0x2ee>
 80007a4:	28ff      	cmp	r0, #255	; 0xff
 80007a6:	d068      	beq.n	800087a <__aeabi_fsub+0x1f6>
 80007a8:	0010      	movs	r0, r2
 80007aa:	e78f      	b.n	80006cc <__aeabi_fsub+0x48>
 80007ac:	2001      	movs	r0, #1
 80007ae:	4041      	eors	r1, r0
 80007b0:	42a1      	cmp	r1, r4
 80007b2:	d000      	beq.n	80007b6 <__aeabi_fsub+0x132>
 80007b4:	e77f      	b.n	80006b6 <__aeabi_fsub+0x32>
 80007b6:	20ff      	movs	r0, #255	; 0xff
 80007b8:	4240      	negs	r0, r0
 80007ba:	4680      	mov	r8, r0
 80007bc:	44a8      	add	r8, r5
 80007be:	4640      	mov	r0, r8
 80007c0:	2800      	cmp	r0, #0
 80007c2:	d038      	beq.n	8000836 <__aeabi_fsub+0x1b2>
 80007c4:	1b51      	subs	r1, r2, r5
 80007c6:	2d00      	cmp	r5, #0
 80007c8:	d100      	bne.n	80007cc <__aeabi_fsub+0x148>
 80007ca:	e0ae      	b.n	800092a <__aeabi_fsub+0x2a6>
 80007cc:	2aff      	cmp	r2, #255	; 0xff
 80007ce:	d100      	bne.n	80007d2 <__aeabi_fsub+0x14e>
 80007d0:	e0df      	b.n	8000992 <__aeabi_fsub+0x30e>
 80007d2:	2380      	movs	r3, #128	; 0x80
 80007d4:	4660      	mov	r0, ip
 80007d6:	04db      	lsls	r3, r3, #19
 80007d8:	4318      	orrs	r0, r3
 80007da:	4684      	mov	ip, r0
 80007dc:	291b      	cmp	r1, #27
 80007de:	dc00      	bgt.n	80007e2 <__aeabi_fsub+0x15e>
 80007e0:	e0d9      	b.n	8000996 <__aeabi_fsub+0x312>
 80007e2:	2001      	movs	r0, #1
 80007e4:	0015      	movs	r5, r2
 80007e6:	1980      	adds	r0, r0, r6
 80007e8:	e7b1      	b.n	800074e <__aeabi_fsub+0xca>
 80007ea:	20fe      	movs	r0, #254	; 0xfe
 80007ec:	1c6a      	adds	r2, r5, #1
 80007ee:	4210      	tst	r0, r2
 80007f0:	d171      	bne.n	80008d6 <__aeabi_fsub+0x252>
 80007f2:	2d00      	cmp	r5, #0
 80007f4:	d000      	beq.n	80007f8 <__aeabi_fsub+0x174>
 80007f6:	e0a6      	b.n	8000946 <__aeabi_fsub+0x2c2>
 80007f8:	4663      	mov	r3, ip
 80007fa:	2b00      	cmp	r3, #0
 80007fc:	d100      	bne.n	8000800 <__aeabi_fsub+0x17c>
 80007fe:	e0d9      	b.n	80009b4 <__aeabi_fsub+0x330>
 8000800:	2200      	movs	r2, #0
 8000802:	2e00      	cmp	r6, #0
 8000804:	d100      	bne.n	8000808 <__aeabi_fsub+0x184>
 8000806:	e788      	b.n	800071a <__aeabi_fsub+0x96>
 8000808:	1b98      	subs	r0, r3, r6
 800080a:	0143      	lsls	r3, r0, #5
 800080c:	d400      	bmi.n	8000810 <__aeabi_fsub+0x18c>
 800080e:	e0e1      	b.n	80009d4 <__aeabi_fsub+0x350>
 8000810:	4663      	mov	r3, ip
 8000812:	000c      	movs	r4, r1
 8000814:	1af0      	subs	r0, r6, r3
 8000816:	e76f      	b.n	80006f8 <__aeabi_fsub+0x74>
 8000818:	2e00      	cmp	r6, #0
 800081a:	d100      	bne.n	800081e <__aeabi_fsub+0x19a>
 800081c:	e0b7      	b.n	800098e <__aeabi_fsub+0x30a>
 800081e:	0002      	movs	r2, r0
 8000820:	3a01      	subs	r2, #1
 8000822:	2801      	cmp	r0, #1
 8000824:	d100      	bne.n	8000828 <__aeabi_fsub+0x1a4>
 8000826:	e09c      	b.n	8000962 <__aeabi_fsub+0x2de>
 8000828:	28ff      	cmp	r0, #255	; 0xff
 800082a:	d026      	beq.n	800087a <__aeabi_fsub+0x1f6>
 800082c:	4690      	mov	r8, r2
 800082e:	e788      	b.n	8000742 <__aeabi_fsub+0xbe>
 8000830:	22ff      	movs	r2, #255	; 0xff
 8000832:	2700      	movs	r7, #0
 8000834:	e771      	b.n	800071a <__aeabi_fsub+0x96>
 8000836:	20fe      	movs	r0, #254	; 0xfe
 8000838:	1c6a      	adds	r2, r5, #1
 800083a:	4210      	tst	r0, r2
 800083c:	d064      	beq.n	8000908 <__aeabi_fsub+0x284>
 800083e:	2aff      	cmp	r2, #255	; 0xff
 8000840:	d0f6      	beq.n	8000830 <__aeabi_fsub+0x1ac>
 8000842:	0015      	movs	r5, r2
 8000844:	4466      	add	r6, ip
 8000846:	0870      	lsrs	r0, r6, #1
 8000848:	0743      	lsls	r3, r0, #29
 800084a:	d000      	beq.n	800084e <__aeabi_fsub+0x1ca>
 800084c:	e756      	b.n	80006fc <__aeabi_fsub+0x78>
 800084e:	08c3      	lsrs	r3, r0, #3
 8000850:	2dff      	cmp	r5, #255	; 0xff
 8000852:	d012      	beq.n	800087a <__aeabi_fsub+0x1f6>
 8000854:	025b      	lsls	r3, r3, #9
 8000856:	0a5f      	lsrs	r7, r3, #9
 8000858:	b2ea      	uxtb	r2, r5
 800085a:	e75e      	b.n	800071a <__aeabi_fsub+0x96>
 800085c:	4662      	mov	r2, ip
 800085e:	2a00      	cmp	r2, #0
 8000860:	d100      	bne.n	8000864 <__aeabi_fsub+0x1e0>
 8000862:	e096      	b.n	8000992 <__aeabi_fsub+0x30e>
 8000864:	2e00      	cmp	r6, #0
 8000866:	d008      	beq.n	800087a <__aeabi_fsub+0x1f6>
 8000868:	2280      	movs	r2, #128	; 0x80
 800086a:	03d2      	lsls	r2, r2, #15
 800086c:	4213      	tst	r3, r2
 800086e:	d004      	beq.n	800087a <__aeabi_fsub+0x1f6>
 8000870:	4648      	mov	r0, r9
 8000872:	4210      	tst	r0, r2
 8000874:	d101      	bne.n	800087a <__aeabi_fsub+0x1f6>
 8000876:	000c      	movs	r4, r1
 8000878:	464b      	mov	r3, r9
 800087a:	2b00      	cmp	r3, #0
 800087c:	d0d8      	beq.n	8000830 <__aeabi_fsub+0x1ac>
 800087e:	2780      	movs	r7, #128	; 0x80
 8000880:	03ff      	lsls	r7, r7, #15
 8000882:	431f      	orrs	r7, r3
 8000884:	027f      	lsls	r7, r7, #9
 8000886:	22ff      	movs	r2, #255	; 0xff
 8000888:	0a7f      	lsrs	r7, r7, #9
 800088a:	e746      	b.n	800071a <__aeabi_fsub+0x96>
 800088c:	2320      	movs	r3, #32
 800088e:	003a      	movs	r2, r7
 8000890:	1b45      	subs	r5, r0, r5
 8000892:	0038      	movs	r0, r7
 8000894:	3501      	adds	r5, #1
 8000896:	40ea      	lsrs	r2, r5
 8000898:	1b5d      	subs	r5, r3, r5
 800089a:	40a8      	lsls	r0, r5
 800089c:	1e43      	subs	r3, r0, #1
 800089e:	4198      	sbcs	r0, r3
 80008a0:	2500      	movs	r5, #0
 80008a2:	4310      	orrs	r0, r2
 80008a4:	e728      	b.n	80006f8 <__aeabi_fsub+0x74>
 80008a6:	2320      	movs	r3, #32
 80008a8:	1a1b      	subs	r3, r3, r0
 80008aa:	0032      	movs	r2, r6
 80008ac:	409e      	lsls	r6, r3
 80008ae:	40c2      	lsrs	r2, r0
 80008b0:	0030      	movs	r0, r6
 80008b2:	1e43      	subs	r3, r0, #1
 80008b4:	4198      	sbcs	r0, r3
 80008b6:	4310      	orrs	r0, r2
 80008b8:	e70c      	b.n	80006d4 <__aeabi_fsub+0x50>
 80008ba:	2aff      	cmp	r2, #255	; 0xff
 80008bc:	d0db      	beq.n	8000876 <__aeabi_fsub+0x1f2>
 80008be:	2380      	movs	r3, #128	; 0x80
 80008c0:	4660      	mov	r0, ip
 80008c2:	04db      	lsls	r3, r3, #19
 80008c4:	4318      	orrs	r0, r3
 80008c6:	4684      	mov	ip, r0
 80008c8:	2f1b      	cmp	r7, #27
 80008ca:	dd56      	ble.n	800097a <__aeabi_fsub+0x2f6>
 80008cc:	2001      	movs	r0, #1
 80008ce:	000c      	movs	r4, r1
 80008d0:	0015      	movs	r5, r2
 80008d2:	1a30      	subs	r0, r6, r0
 80008d4:	e700      	b.n	80006d8 <__aeabi_fsub+0x54>
 80008d6:	4663      	mov	r3, ip
 80008d8:	1b9f      	subs	r7, r3, r6
 80008da:	017b      	lsls	r3, r7, #5
 80008dc:	d43d      	bmi.n	800095a <__aeabi_fsub+0x2d6>
 80008de:	2f00      	cmp	r7, #0
 80008e0:	d000      	beq.n	80008e4 <__aeabi_fsub+0x260>
 80008e2:	e6fe      	b.n	80006e2 <__aeabi_fsub+0x5e>
 80008e4:	2400      	movs	r4, #0
 80008e6:	2200      	movs	r2, #0
 80008e8:	2700      	movs	r7, #0
 80008ea:	e716      	b.n	800071a <__aeabi_fsub+0x96>
 80008ec:	0005      	movs	r5, r0
 80008ee:	e7af      	b.n	8000850 <__aeabi_fsub+0x1cc>
 80008f0:	0032      	movs	r2, r6
 80008f2:	4643      	mov	r3, r8
 80008f4:	4641      	mov	r1, r8
 80008f6:	40da      	lsrs	r2, r3
 80008f8:	2320      	movs	r3, #32
 80008fa:	1a5b      	subs	r3, r3, r1
 80008fc:	409e      	lsls	r6, r3
 80008fe:	0030      	movs	r0, r6
 8000900:	1e43      	subs	r3, r0, #1
 8000902:	4198      	sbcs	r0, r3
 8000904:	4310      	orrs	r0, r2
 8000906:	e721      	b.n	800074c <__aeabi_fsub+0xc8>
 8000908:	2d00      	cmp	r5, #0
 800090a:	d1a7      	bne.n	800085c <__aeabi_fsub+0x1d8>
 800090c:	4663      	mov	r3, ip
 800090e:	2b00      	cmp	r3, #0
 8000910:	d059      	beq.n	80009c6 <__aeabi_fsub+0x342>
 8000912:	2200      	movs	r2, #0
 8000914:	2e00      	cmp	r6, #0
 8000916:	d100      	bne.n	800091a <__aeabi_fsub+0x296>
 8000918:	e6ff      	b.n	800071a <__aeabi_fsub+0x96>
 800091a:	0030      	movs	r0, r6
 800091c:	4460      	add	r0, ip
 800091e:	0143      	lsls	r3, r0, #5
 8000920:	d592      	bpl.n	8000848 <__aeabi_fsub+0x1c4>
 8000922:	4b2a      	ldr	r3, [pc, #168]	; (80009cc <__aeabi_fsub+0x348>)
 8000924:	3501      	adds	r5, #1
 8000926:	4018      	ands	r0, r3
 8000928:	e78e      	b.n	8000848 <__aeabi_fsub+0x1c4>
 800092a:	4663      	mov	r3, ip
 800092c:	2b00      	cmp	r3, #0
 800092e:	d047      	beq.n	80009c0 <__aeabi_fsub+0x33c>
 8000930:	1e4b      	subs	r3, r1, #1
 8000932:	2901      	cmp	r1, #1
 8000934:	d015      	beq.n	8000962 <__aeabi_fsub+0x2de>
 8000936:	29ff      	cmp	r1, #255	; 0xff
 8000938:	d02b      	beq.n	8000992 <__aeabi_fsub+0x30e>
 800093a:	0019      	movs	r1, r3
 800093c:	e74e      	b.n	80007dc <__aeabi_fsub+0x158>
 800093e:	000c      	movs	r4, r1
 8000940:	464b      	mov	r3, r9
 8000942:	003d      	movs	r5, r7
 8000944:	e784      	b.n	8000850 <__aeabi_fsub+0x1cc>
 8000946:	4662      	mov	r2, ip
 8000948:	2a00      	cmp	r2, #0
 800094a:	d18b      	bne.n	8000864 <__aeabi_fsub+0x1e0>
 800094c:	2e00      	cmp	r6, #0
 800094e:	d192      	bne.n	8000876 <__aeabi_fsub+0x1f2>
 8000950:	2780      	movs	r7, #128	; 0x80
 8000952:	2400      	movs	r4, #0
 8000954:	22ff      	movs	r2, #255	; 0xff
 8000956:	03ff      	lsls	r7, r7, #15
 8000958:	e6df      	b.n	800071a <__aeabi_fsub+0x96>
 800095a:	4663      	mov	r3, ip
 800095c:	000c      	movs	r4, r1
 800095e:	1af7      	subs	r7, r6, r3
 8000960:	e6bf      	b.n	80006e2 <__aeabi_fsub+0x5e>
 8000962:	0030      	movs	r0, r6
 8000964:	4460      	add	r0, ip
 8000966:	2501      	movs	r5, #1
 8000968:	0143      	lsls	r3, r0, #5
 800096a:	d400      	bmi.n	800096e <__aeabi_fsub+0x2ea>
 800096c:	e76c      	b.n	8000848 <__aeabi_fsub+0x1c4>
 800096e:	2502      	movs	r5, #2
 8000970:	e6f2      	b.n	8000758 <__aeabi_fsub+0xd4>
 8000972:	4663      	mov	r3, ip
 8000974:	2501      	movs	r5, #1
 8000976:	1b98      	subs	r0, r3, r6
 8000978:	e6ae      	b.n	80006d8 <__aeabi_fsub+0x54>
 800097a:	2320      	movs	r3, #32
 800097c:	4664      	mov	r4, ip
 800097e:	4660      	mov	r0, ip
 8000980:	40fc      	lsrs	r4, r7
 8000982:	1bdf      	subs	r7, r3, r7
 8000984:	40b8      	lsls	r0, r7
 8000986:	1e43      	subs	r3, r0, #1
 8000988:	4198      	sbcs	r0, r3
 800098a:	4320      	orrs	r0, r4
 800098c:	e79f      	b.n	80008ce <__aeabi_fsub+0x24a>
 800098e:	0005      	movs	r5, r0
 8000990:	e75e      	b.n	8000850 <__aeabi_fsub+0x1cc>
 8000992:	464b      	mov	r3, r9
 8000994:	e771      	b.n	800087a <__aeabi_fsub+0x1f6>
 8000996:	2320      	movs	r3, #32
 8000998:	4665      	mov	r5, ip
 800099a:	4660      	mov	r0, ip
 800099c:	40cd      	lsrs	r5, r1
 800099e:	1a59      	subs	r1, r3, r1
 80009a0:	4088      	lsls	r0, r1
 80009a2:	1e43      	subs	r3, r0, #1
 80009a4:	4198      	sbcs	r0, r3
 80009a6:	4328      	orrs	r0, r5
 80009a8:	e71c      	b.n	80007e4 <__aeabi_fsub+0x160>
 80009aa:	4663      	mov	r3, ip
 80009ac:	000c      	movs	r4, r1
 80009ae:	2501      	movs	r5, #1
 80009b0:	1af0      	subs	r0, r6, r3
 80009b2:	e691      	b.n	80006d8 <__aeabi_fsub+0x54>
 80009b4:	2e00      	cmp	r6, #0
 80009b6:	d095      	beq.n	80008e4 <__aeabi_fsub+0x260>
 80009b8:	000c      	movs	r4, r1
 80009ba:	464f      	mov	r7, r9
 80009bc:	2200      	movs	r2, #0
 80009be:	e6ac      	b.n	800071a <__aeabi_fsub+0x96>
 80009c0:	464b      	mov	r3, r9
 80009c2:	000d      	movs	r5, r1
 80009c4:	e744      	b.n	8000850 <__aeabi_fsub+0x1cc>
 80009c6:	464f      	mov	r7, r9
 80009c8:	2200      	movs	r2, #0
 80009ca:	e6a6      	b.n	800071a <__aeabi_fsub+0x96>
 80009cc:	fbffffff 	.word	0xfbffffff
 80009d0:	7dffffff 	.word	0x7dffffff
 80009d4:	2800      	cmp	r0, #0
 80009d6:	d000      	beq.n	80009da <__aeabi_fsub+0x356>
 80009d8:	e736      	b.n	8000848 <__aeabi_fsub+0x1c4>
 80009da:	2400      	movs	r4, #0
 80009dc:	2700      	movs	r7, #0
 80009de:	e69c      	b.n	800071a <__aeabi_fsub+0x96>

080009e0 <__aeabi_f2iz>:
 80009e0:	0241      	lsls	r1, r0, #9
 80009e2:	0042      	lsls	r2, r0, #1
 80009e4:	0fc3      	lsrs	r3, r0, #31
 80009e6:	0a49      	lsrs	r1, r1, #9
 80009e8:	2000      	movs	r0, #0
 80009ea:	0e12      	lsrs	r2, r2, #24
 80009ec:	2a7e      	cmp	r2, #126	; 0x7e
 80009ee:	dd03      	ble.n	80009f8 <__aeabi_f2iz+0x18>
 80009f0:	2a9d      	cmp	r2, #157	; 0x9d
 80009f2:	dd02      	ble.n	80009fa <__aeabi_f2iz+0x1a>
 80009f4:	4a09      	ldr	r2, [pc, #36]	; (8000a1c <__aeabi_f2iz+0x3c>)
 80009f6:	1898      	adds	r0, r3, r2
 80009f8:	4770      	bx	lr
 80009fa:	2080      	movs	r0, #128	; 0x80
 80009fc:	0400      	lsls	r0, r0, #16
 80009fe:	4301      	orrs	r1, r0
 8000a00:	2a95      	cmp	r2, #149	; 0x95
 8000a02:	dc07      	bgt.n	8000a14 <__aeabi_f2iz+0x34>
 8000a04:	2096      	movs	r0, #150	; 0x96
 8000a06:	1a82      	subs	r2, r0, r2
 8000a08:	40d1      	lsrs	r1, r2
 8000a0a:	4248      	negs	r0, r1
 8000a0c:	2b00      	cmp	r3, #0
 8000a0e:	d1f3      	bne.n	80009f8 <__aeabi_f2iz+0x18>
 8000a10:	0008      	movs	r0, r1
 8000a12:	e7f1      	b.n	80009f8 <__aeabi_f2iz+0x18>
 8000a14:	3a96      	subs	r2, #150	; 0x96
 8000a16:	4091      	lsls	r1, r2
 8000a18:	e7f7      	b.n	8000a0a <__aeabi_f2iz+0x2a>
 8000a1a:	46c0      	nop			; (mov r8, r8)
 8000a1c:	7fffffff 	.word	0x7fffffff

08000a20 <__aeabi_cfrcmple>:
 8000a20:	4684      	mov	ip, r0
 8000a22:	0008      	movs	r0, r1
 8000a24:	4661      	mov	r1, ip
 8000a26:	e7ff      	b.n	8000a28 <__aeabi_cfcmpeq>

08000a28 <__aeabi_cfcmpeq>:
 8000a28:	b51f      	push	{r0, r1, r2, r3, r4, lr}
 8000a2a:	f000 f8bd 	bl	8000ba8 <__lesf2>
 8000a2e:	2800      	cmp	r0, #0
 8000a30:	d401      	bmi.n	8000a36 <__aeabi_cfcmpeq+0xe>
 8000a32:	2100      	movs	r1, #0
 8000a34:	42c8      	cmn	r0, r1
 8000a36:	bd1f      	pop	{r0, r1, r2, r3, r4, pc}

08000a38 <__aeabi_fcmpeq>:
 8000a38:	b510      	push	{r4, lr}
 8000a3a:	f000 f849 	bl	8000ad0 <__eqsf2>
 8000a3e:	4240      	negs	r0, r0
 8000a40:	3001      	adds	r0, #1
 8000a42:	bd10      	pop	{r4, pc}

08000a44 <__aeabi_fcmplt>:
 8000a44:	b510      	push	{r4, lr}
 8000a46:	f000 f8af 	bl	8000ba8 <__lesf2>
 8000a4a:	2800      	cmp	r0, #0
 8000a4c:	db01      	blt.n	8000a52 <__aeabi_fcmplt+0xe>
 8000a4e:	2000      	movs	r0, #0
 8000a50:	bd10      	pop	{r4, pc}
 8000a52:	2001      	movs	r0, #1
 8000a54:	bd10      	pop	{r4, pc}
 8000a56:	46c0      	nop			; (mov r8, r8)

08000a58 <__aeabi_fcmple>:
 8000a58:	b510      	push	{r4, lr}
 8000a5a:	f000 f8a5 	bl	8000ba8 <__lesf2>
 8000a5e:	2800      	cmp	r0, #0
 8000a60:	dd01      	ble.n	8000a66 <__aeabi_fcmple+0xe>
 8000a62:	2000      	movs	r0, #0
 8000a64:	bd10      	pop	{r4, pc}
 8000a66:	2001      	movs	r0, #1
 8000a68:	bd10      	pop	{r4, pc}
 8000a6a:	46c0      	nop			; (mov r8, r8)

08000a6c <__aeabi_fcmpgt>:
 8000a6c:	b510      	push	{r4, lr}
 8000a6e:	f000 f855 	bl	8000b1c <__gesf2>
 8000a72:	2800      	cmp	r0, #0
 8000a74:	dc01      	bgt.n	8000a7a <__aeabi_fcmpgt+0xe>
 8000a76:	2000      	movs	r0, #0
 8000a78:	bd10      	pop	{r4, pc}
 8000a7a:	2001      	movs	r0, #1
 8000a7c:	bd10      	pop	{r4, pc}
 8000a7e:	46c0      	nop			; (mov r8, r8)

08000a80 <__aeabi_fcmpge>:
 8000a80:	b510      	push	{r4, lr}
 8000a82:	f000 f84b 	bl	8000b1c <__gesf2>
 8000a86:	2800      	cmp	r0, #0
 8000a88:	da01      	bge.n	8000a8e <__aeabi_fcmpge+0xe>
 8000a8a:	2000      	movs	r0, #0
 8000a8c:	bd10      	pop	{r4, pc}
 8000a8e:	2001      	movs	r0, #1
 8000a90:	bd10      	pop	{r4, pc}
 8000a92:	46c0      	nop			; (mov r8, r8)

08000a94 <__clzsi2>:
 8000a94:	211c      	movs	r1, #28
 8000a96:	2301      	movs	r3, #1
 8000a98:	041b      	lsls	r3, r3, #16
 8000a9a:	4298      	cmp	r0, r3
 8000a9c:	d301      	bcc.n	8000aa2 <__clzsi2+0xe>
 8000a9e:	0c00      	lsrs	r0, r0, #16
 8000aa0:	3910      	subs	r1, #16
 8000aa2:	0a1b      	lsrs	r3, r3, #8
 8000aa4:	4298      	cmp	r0, r3
 8000aa6:	d301      	bcc.n	8000aac <__clzsi2+0x18>
 8000aa8:	0a00      	lsrs	r0, r0, #8
 8000aaa:	3908      	subs	r1, #8
 8000aac:	091b      	lsrs	r3, r3, #4
 8000aae:	4298      	cmp	r0, r3
 8000ab0:	d301      	bcc.n	8000ab6 <__clzsi2+0x22>
 8000ab2:	0900      	lsrs	r0, r0, #4
 8000ab4:	3904      	subs	r1, #4
 8000ab6:	a202      	add	r2, pc, #8	; (adr r2, 8000ac0 <__clzsi2+0x2c>)
 8000ab8:	5c10      	ldrb	r0, [r2, r0]
 8000aba:	1840      	adds	r0, r0, r1
 8000abc:	4770      	bx	lr
 8000abe:	46c0      	nop			; (mov r8, r8)
 8000ac0:	02020304 	.word	0x02020304
 8000ac4:	01010101 	.word	0x01010101
	...

08000ad0 <__eqsf2>:
 8000ad0:	b570      	push	{r4, r5, r6, lr}
 8000ad2:	0042      	lsls	r2, r0, #1
 8000ad4:	0245      	lsls	r5, r0, #9
 8000ad6:	024e      	lsls	r6, r1, #9
 8000ad8:	004c      	lsls	r4, r1, #1
 8000ada:	0fc3      	lsrs	r3, r0, #31
 8000adc:	0a6d      	lsrs	r5, r5, #9
 8000ade:	2001      	movs	r0, #1
 8000ae0:	0e12      	lsrs	r2, r2, #24
 8000ae2:	0a76      	lsrs	r6, r6, #9
 8000ae4:	0e24      	lsrs	r4, r4, #24
 8000ae6:	0fc9      	lsrs	r1, r1, #31
 8000ae8:	2aff      	cmp	r2, #255	; 0xff
 8000aea:	d006      	beq.n	8000afa <__eqsf2+0x2a>
 8000aec:	2cff      	cmp	r4, #255	; 0xff
 8000aee:	d003      	beq.n	8000af8 <__eqsf2+0x28>
 8000af0:	42a2      	cmp	r2, r4
 8000af2:	d101      	bne.n	8000af8 <__eqsf2+0x28>
 8000af4:	42b5      	cmp	r5, r6
 8000af6:	d006      	beq.n	8000b06 <__eqsf2+0x36>
 8000af8:	bd70      	pop	{r4, r5, r6, pc}
 8000afa:	2d00      	cmp	r5, #0
 8000afc:	d1fc      	bne.n	8000af8 <__eqsf2+0x28>
 8000afe:	2cff      	cmp	r4, #255	; 0xff
 8000b00:	d1fa      	bne.n	8000af8 <__eqsf2+0x28>
 8000b02:	2e00      	cmp	r6, #0
 8000b04:	d1f8      	bne.n	8000af8 <__eqsf2+0x28>
 8000b06:	428b      	cmp	r3, r1
 8000b08:	d006      	beq.n	8000b18 <__eqsf2+0x48>
 8000b0a:	2001      	movs	r0, #1
 8000b0c:	2a00      	cmp	r2, #0
 8000b0e:	d1f3      	bne.n	8000af8 <__eqsf2+0x28>
 8000b10:	0028      	movs	r0, r5
 8000b12:	1e43      	subs	r3, r0, #1
 8000b14:	4198      	sbcs	r0, r3
 8000b16:	e7ef      	b.n	8000af8 <__eqsf2+0x28>
 8000b18:	2000      	movs	r0, #0
 8000b1a:	e7ed      	b.n	8000af8 <__eqsf2+0x28>

08000b1c <__gesf2>:
 8000b1c:	b570      	push	{r4, r5, r6, lr}
 8000b1e:	0042      	lsls	r2, r0, #1
 8000b20:	0245      	lsls	r5, r0, #9
 8000b22:	024e      	lsls	r6, r1, #9
 8000b24:	004c      	lsls	r4, r1, #1
 8000b26:	0fc3      	lsrs	r3, r0, #31
 8000b28:	0a6d      	lsrs	r5, r5, #9
 8000b2a:	0e12      	lsrs	r2, r2, #24
 8000b2c:	0a76      	lsrs	r6, r6, #9
 8000b2e:	0e24      	lsrs	r4, r4, #24
 8000b30:	0fc8      	lsrs	r0, r1, #31
 8000b32:	2aff      	cmp	r2, #255	; 0xff
 8000b34:	d01b      	beq.n	8000b6e <__gesf2+0x52>
 8000b36:	2cff      	cmp	r4, #255	; 0xff
 8000b38:	d00e      	beq.n	8000b58 <__gesf2+0x3c>
 8000b3a:	2a00      	cmp	r2, #0
 8000b3c:	d11b      	bne.n	8000b76 <__gesf2+0x5a>
 8000b3e:	2c00      	cmp	r4, #0
 8000b40:	d101      	bne.n	8000b46 <__gesf2+0x2a>
 8000b42:	2e00      	cmp	r6, #0
 8000b44:	d01c      	beq.n	8000b80 <__gesf2+0x64>
 8000b46:	2d00      	cmp	r5, #0
 8000b48:	d00c      	beq.n	8000b64 <__gesf2+0x48>
 8000b4a:	4283      	cmp	r3, r0
 8000b4c:	d01c      	beq.n	8000b88 <__gesf2+0x6c>
 8000b4e:	2102      	movs	r1, #2
 8000b50:	1e58      	subs	r0, r3, #1
 8000b52:	4008      	ands	r0, r1
 8000b54:	3801      	subs	r0, #1
 8000b56:	bd70      	pop	{r4, r5, r6, pc}
 8000b58:	2e00      	cmp	r6, #0
 8000b5a:	d122      	bne.n	8000ba2 <__gesf2+0x86>
 8000b5c:	2a00      	cmp	r2, #0
 8000b5e:	d1f4      	bne.n	8000b4a <__gesf2+0x2e>
 8000b60:	2d00      	cmp	r5, #0
 8000b62:	d1f2      	bne.n	8000b4a <__gesf2+0x2e>
 8000b64:	2800      	cmp	r0, #0
 8000b66:	d1f6      	bne.n	8000b56 <__gesf2+0x3a>
 8000b68:	2001      	movs	r0, #1
 8000b6a:	4240      	negs	r0, r0
 8000b6c:	e7f3      	b.n	8000b56 <__gesf2+0x3a>
 8000b6e:	2d00      	cmp	r5, #0
 8000b70:	d117      	bne.n	8000ba2 <__gesf2+0x86>
 8000b72:	2cff      	cmp	r4, #255	; 0xff
 8000b74:	d0f0      	beq.n	8000b58 <__gesf2+0x3c>
 8000b76:	2c00      	cmp	r4, #0
 8000b78:	d1e7      	bne.n	8000b4a <__gesf2+0x2e>
 8000b7a:	2e00      	cmp	r6, #0
 8000b7c:	d1e5      	bne.n	8000b4a <__gesf2+0x2e>
 8000b7e:	e7e6      	b.n	8000b4e <__gesf2+0x32>
 8000b80:	2000      	movs	r0, #0
 8000b82:	2d00      	cmp	r5, #0
 8000b84:	d0e7      	beq.n	8000b56 <__gesf2+0x3a>
 8000b86:	e7e2      	b.n	8000b4e <__gesf2+0x32>
 8000b88:	42a2      	cmp	r2, r4
 8000b8a:	dc05      	bgt.n	8000b98 <__gesf2+0x7c>
 8000b8c:	dbea      	blt.n	8000b64 <__gesf2+0x48>
 8000b8e:	42b5      	cmp	r5, r6
 8000b90:	d802      	bhi.n	8000b98 <__gesf2+0x7c>
 8000b92:	d3e7      	bcc.n	8000b64 <__gesf2+0x48>
 8000b94:	2000      	movs	r0, #0
 8000b96:	e7de      	b.n	8000b56 <__gesf2+0x3a>
 8000b98:	4243      	negs	r3, r0
 8000b9a:	4158      	adcs	r0, r3
 8000b9c:	0040      	lsls	r0, r0, #1
 8000b9e:	3801      	subs	r0, #1
 8000ba0:	e7d9      	b.n	8000b56 <__gesf2+0x3a>
 8000ba2:	2002      	movs	r0, #2
 8000ba4:	4240      	negs	r0, r0
 8000ba6:	e7d6      	b.n	8000b56 <__gesf2+0x3a>

08000ba8 <__lesf2>:
 8000ba8:	b570      	push	{r4, r5, r6, lr}
 8000baa:	0042      	lsls	r2, r0, #1
 8000bac:	0245      	lsls	r5, r0, #9
 8000bae:	024e      	lsls	r6, r1, #9
 8000bb0:	004c      	lsls	r4, r1, #1
 8000bb2:	0fc3      	lsrs	r3, r0, #31
 8000bb4:	0a6d      	lsrs	r5, r5, #9
 8000bb6:	0e12      	lsrs	r2, r2, #24
 8000bb8:	0a76      	lsrs	r6, r6, #9
 8000bba:	0e24      	lsrs	r4, r4, #24
 8000bbc:	0fc8      	lsrs	r0, r1, #31
 8000bbe:	2aff      	cmp	r2, #255	; 0xff
 8000bc0:	d00b      	beq.n	8000bda <__lesf2+0x32>
 8000bc2:	2cff      	cmp	r4, #255	; 0xff
 8000bc4:	d00d      	beq.n	8000be2 <__lesf2+0x3a>
 8000bc6:	2a00      	cmp	r2, #0
 8000bc8:	d11f      	bne.n	8000c0a <__lesf2+0x62>
 8000bca:	2c00      	cmp	r4, #0
 8000bcc:	d116      	bne.n	8000bfc <__lesf2+0x54>
 8000bce:	2e00      	cmp	r6, #0
 8000bd0:	d114      	bne.n	8000bfc <__lesf2+0x54>
 8000bd2:	2000      	movs	r0, #0
 8000bd4:	2d00      	cmp	r5, #0
 8000bd6:	d010      	beq.n	8000bfa <__lesf2+0x52>
 8000bd8:	e009      	b.n	8000bee <__lesf2+0x46>
 8000bda:	2d00      	cmp	r5, #0
 8000bdc:	d10c      	bne.n	8000bf8 <__lesf2+0x50>
 8000bde:	2cff      	cmp	r4, #255	; 0xff
 8000be0:	d113      	bne.n	8000c0a <__lesf2+0x62>
 8000be2:	2e00      	cmp	r6, #0
 8000be4:	d108      	bne.n	8000bf8 <__lesf2+0x50>
 8000be6:	2a00      	cmp	r2, #0
 8000be8:	d008      	beq.n	8000bfc <__lesf2+0x54>
 8000bea:	4283      	cmp	r3, r0
 8000bec:	d012      	beq.n	8000c14 <__lesf2+0x6c>
 8000bee:	2102      	movs	r1, #2
 8000bf0:	1e58      	subs	r0, r3, #1
 8000bf2:	4008      	ands	r0, r1
 8000bf4:	3801      	subs	r0, #1
 8000bf6:	e000      	b.n	8000bfa <__lesf2+0x52>
 8000bf8:	2002      	movs	r0, #2
 8000bfa:	bd70      	pop	{r4, r5, r6, pc}
 8000bfc:	2d00      	cmp	r5, #0
 8000bfe:	d1f4      	bne.n	8000bea <__lesf2+0x42>
 8000c00:	2800      	cmp	r0, #0
 8000c02:	d1fa      	bne.n	8000bfa <__lesf2+0x52>
 8000c04:	2001      	movs	r0, #1
 8000c06:	4240      	negs	r0, r0
 8000c08:	e7f7      	b.n	8000bfa <__lesf2+0x52>
 8000c0a:	2c00      	cmp	r4, #0
 8000c0c:	d1ed      	bne.n	8000bea <__lesf2+0x42>
 8000c0e:	2e00      	cmp	r6, #0
 8000c10:	d1eb      	bne.n	8000bea <__lesf2+0x42>
 8000c12:	e7ec      	b.n	8000bee <__lesf2+0x46>
 8000c14:	42a2      	cmp	r2, r4
 8000c16:	dc05      	bgt.n	8000c24 <__lesf2+0x7c>
 8000c18:	dbf2      	blt.n	8000c00 <__lesf2+0x58>
 8000c1a:	42b5      	cmp	r5, r6
 8000c1c:	d802      	bhi.n	8000c24 <__lesf2+0x7c>
 8000c1e:	d3ef      	bcc.n	8000c00 <__lesf2+0x58>
 8000c20:	2000      	movs	r0, #0
 8000c22:	e7ea      	b.n	8000bfa <__lesf2+0x52>
 8000c24:	4243      	negs	r3, r0
 8000c26:	4158      	adcs	r0, r3
 8000c28:	0040      	lsls	r0, r0, #1
 8000c2a:	3801      	subs	r0, #1
 8000c2c:	e7e5      	b.n	8000bfa <__lesf2+0x52>
 8000c2e:	46c0      	nop			; (mov r8, r8)

08000c30 <main>:

/**
  * @brief  The application entry point.
  * @retval int
  */
int main(void){
 8000c30:	b5f0      	push	{r4, r5, r6, r7, lr}
 8000c32:	46d6      	mov	lr, sl
 8000c34:	464f      	mov	r7, r9
 8000c36:	4646      	mov	r6, r8
 8000c38:	b5c0      	push	{r6, r7, lr}
 8000c3a:	b092      	sub	sp, #72	; 0x48
 8000c3c:	af04      	add	r7, sp, #16
  /* USER CODE END 1 */

  /* MCU Configuration--------------------------------------------------------*/

  /* Reset of all peripherals, Initializes the Flash interface and the Systick. */
  HAL_Init();
 8000c3e:	f000 fe33 	bl	80018a8 <HAL_Init>
  /* USER CODE BEGIN Init */

  /* USER CODE END Init */

  /* Configure the system clock */
  SystemClock_Config();
 8000c42:	f000 f8df 	bl	8000e04 <SystemClock_Config>
  /* USER CODE BEGIN SysInit */

  /* USER CODE END SysInit */

  /* Initialize all configured peripherals */
  MX_GPIO_Init();
 8000c46:	f000 f9cd 	bl	8000fe4 <MX_GPIO_Init>
  MX_I2C1_Init();
 8000c4a:	f000 f93d 	bl	8000ec8 <MX_I2C1_Init>
  MX_DMA_Init();
 8000c4e:	f000 f9ab 	bl	8000fa8 <MX_DMA_Init>
  MX_USART2_UART_Init();
 8000c52:	f000 f979 	bl	8000f48 <MX_USART2_UART_Init>


  //TASK 6

  //Define the starting point
  int sec = 0;
 8000c56:	2300      	movs	r3, #0
 8000c58:	637b      	str	r3, [r7, #52]	; 0x34
  int min = 0;
 8000c5a:	2300      	movs	r3, #0
 8000c5c:	633b      	str	r3, [r7, #48]	; 0x30
  int hour = 12;
 8000c5e:	230c      	movs	r3, #12
 8000c60:	62fb      	str	r3, [r7, #44]	; 0x2c
  int dow = 2;
 8000c62:	2302      	movs	r3, #2
 8000c64:	62bb      	str	r3, [r7, #40]	; 0x28
  int dom = 20;
 8000c66:	2314      	movs	r3, #20
 8000c68:	627b      	str	r3, [r7, #36]	; 0x24
  int month = 9;
 8000c6a:	2309      	movs	r3, #9
 8000c6c:	623b      	str	r3, [r7, #32]
  int year = 22;
 8000c6e:	2316      	movs	r3, #22
 8000c70:	61fb      	str	r3, [r7, #28]

  //Set the starting time on the RTC
  setTime(decToBcd(sec),decToBcd(min),decToBcd(hour),decToBcd(dow),decToBcd(dom),decToBcd(month),decToBcd(year));
 8000c72:	6b7b      	ldr	r3, [r7, #52]	; 0x34
 8000c74:	0018      	movs	r0, r3
 8000c76:	f000 fa43 	bl	8001100 <decToBcd>
 8000c7a:	0003      	movs	r3, r0
 8000c7c:	001e      	movs	r6, r3
 8000c7e:	6b3b      	ldr	r3, [r7, #48]	; 0x30
 8000c80:	0018      	movs	r0, r3
 8000c82:	f000 fa3d 	bl	8001100 <decToBcd>
 8000c86:	0003      	movs	r3, r0
 8000c88:	4698      	mov	r8, r3
 8000c8a:	6afb      	ldr	r3, [r7, #44]	; 0x2c
 8000c8c:	0018      	movs	r0, r3
 8000c8e:	f000 fa37 	bl	8001100 <decToBcd>
 8000c92:	0003      	movs	r3, r0
 8000c94:	4699      	mov	r9, r3
 8000c96:	6abb      	ldr	r3, [r7, #40]	; 0x28
 8000c98:	0018      	movs	r0, r3
 8000c9a:	f000 fa31 	bl	8001100 <decToBcd>
 8000c9e:	0003      	movs	r3, r0
 8000ca0:	469a      	mov	sl, r3
 8000ca2:	6a7b      	ldr	r3, [r7, #36]	; 0x24
 8000ca4:	0018      	movs	r0, r3
 8000ca6:	f000 fa2b 	bl	8001100 <decToBcd>
 8000caa:	0003      	movs	r3, r0
 8000cac:	001c      	movs	r4, r3
 8000cae:	6a3b      	ldr	r3, [r7, #32]
 8000cb0:	0018      	movs	r0, r3
 8000cb2:	f000 fa25 	bl	8001100 <decToBcd>
 8000cb6:	0003      	movs	r3, r0
 8000cb8:	001d      	movs	r5, r3
 8000cba:	69fb      	ldr	r3, [r7, #28]
 8000cbc:	0018      	movs	r0, r3
 8000cbe:	f000 fa1f 	bl	8001100 <decToBcd>
 8000cc2:	0003      	movs	r3, r0
 8000cc4:	9302      	str	r3, [sp, #8]
 8000cc6:	9501      	str	r5, [sp, #4]
 8000cc8:	9400      	str	r4, [sp, #0]
 8000cca:	4653      	mov	r3, sl
 8000ccc:	464a      	mov	r2, r9
 8000cce:	4641      	mov	r1, r8
 8000cd0:	0030      	movs	r0, r6
 8000cd2:	f000 fa55 	bl	8001180 <setTime>

  //Transmit message from STM via UART, to show that code has started to run
  HAL_UART_Transmit(&huart2, data, sizeof(data), 1000);
 8000cd6:	23fa      	movs	r3, #250	; 0xfa
 8000cd8:	009b      	lsls	r3, r3, #2
 8000cda:	493e      	ldr	r1, [pc, #248]	; (8000dd4 <main+0x1a4>)
 8000cdc:	483e      	ldr	r0, [pc, #248]	; (8000dd8 <main+0x1a8>)
 8000cde:	2214      	movs	r2, #20
 8000ce0:	f002 fdf4 	bl	80038cc <HAL_UART_Transmit>

  //Display bcdToDec and decToBcd functions
  uint8_t testBCD = 10;
 8000ce4:	211b      	movs	r1, #27
 8000ce6:	187b      	adds	r3, r7, r1
 8000ce8:	220a      	movs	r2, #10
 8000cea:	701a      	strb	r2, [r3, #0]

  char bcd_print[9];
  //Store bcd time in bcd_print array
  sprintf(bcd_print, "BCD: %d\r\n", decToBcd(testBCD));
 8000cec:	187b      	adds	r3, r7, r1
 8000cee:	781b      	ldrb	r3, [r3, #0]
 8000cf0:	0018      	movs	r0, r3
 8000cf2:	f000 fa05 	bl	8001100 <decToBcd>
 8000cf6:	0003      	movs	r3, r0
 8000cf8:	001a      	movs	r2, r3
 8000cfa:	4938      	ldr	r1, [pc, #224]	; (8000ddc <main+0x1ac>)
 8000cfc:	2410      	movs	r4, #16
 8000cfe:	193b      	adds	r3, r7, r4
 8000d00:	0018      	movs	r0, r3
 8000d02:	f003 fd5f 	bl	80047c4 <siprintf>

  //Transmit bcd value via UART
  HAL_UART_Transmit(&huart2, bcd_print, sizeof(bcd_print), 1000);
 8000d06:	23fa      	movs	r3, #250	; 0xfa
 8000d08:	009b      	lsls	r3, r3, #2
 8000d0a:	1939      	adds	r1, r7, r4
 8000d0c:	4832      	ldr	r0, [pc, #200]	; (8000dd8 <main+0x1a8>)
 8000d0e:	2209      	movs	r2, #9
 8000d10:	f002 fddc 	bl	80038cc <HAL_UART_Transmit>

  uint8_t testDec = 16;
 8000d14:	211a      	movs	r1, #26
 8000d16:	187b      	adds	r3, r7, r1
 8000d18:	2210      	movs	r2, #16
 8000d1a:	701a      	strb	r2, [r3, #0]

  char dec_print[15];
  //Store bcd time in bcd_print array
  sprintf(dec_print, "Decimal: %d\r\n\r\n", bcdToDec(testDec));
 8000d1c:	187b      	adds	r3, r7, r1
 8000d1e:	781b      	ldrb	r3, [r3, #0]
 8000d20:	0018      	movs	r0, r3
 8000d22:	f000 fa10 	bl	8001146 <bcdToDec>
 8000d26:	0002      	movs	r2, r0
 8000d28:	492d      	ldr	r1, [pc, #180]	; (8000de0 <main+0x1b0>)
 8000d2a:	003b      	movs	r3, r7
 8000d2c:	0018      	movs	r0, r3
 8000d2e:	f003 fd49 	bl	80047c4 <siprintf>

  //Transmit bcd value via UART
  HAL_UART_Transmit(&huart2, dec_print, sizeof(dec_print), 1000);
 8000d32:	23fa      	movs	r3, #250	; 0xfa
 8000d34:	009b      	lsls	r3, r3, #2
 8000d36:	0039      	movs	r1, r7
 8000d38:	4827      	ldr	r0, [pc, #156]	; (8000dd8 <main+0x1a8>)
 8000d3a:	220f      	movs	r2, #15
 8000d3c:	f002 fdc6 	bl	80038cc <HAL_UART_Transmit>
  /* USER CODE BEGIN WHILE */
  while (1)
  {
    /* USER CODE END WHILE */

	HAL_GPIO_TogglePin(GPIOC, GPIO_PIN_8); // Toggle blue LED
 8000d40:	2380      	movs	r3, #128	; 0x80
 8000d42:	005b      	lsls	r3, r3, #1
 8000d44:	4a27      	ldr	r2, [pc, #156]	; (8000de4 <main+0x1b4>)
 8000d46:	0019      	movs	r1, r3
 8000d48:	0010      	movs	r0, r2
 8000d4a:	f001 fa24 	bl	8002196 <HAL_GPIO_TogglePin>
	//TASK 1
	//First run this with nothing else in the loop and scope pin PC8 on an oscilloscope
	pause_sec(DELAY1);
 8000d4e:	2300      	movs	r3, #0
 8000d50:	1c18      	adds	r0, r3, #0
 8000d52:	f000 f9bf 	bl	80010d4 <pause_sec>
	HAL_GPIO_TogglePin(GPIOC, GPIO_PIN_8);
 8000d56:	2380      	movs	r3, #128	; 0x80
 8000d58:	005b      	lsls	r3, r3, #1
 8000d5a:	4a22      	ldr	r2, [pc, #136]	; (8000de4 <main+0x1b4>)
 8000d5c:	0019      	movs	r1, r3
 8000d5e:	0010      	movs	r0, r2
 8000d60:	f001 fa19 	bl	8002196 <HAL_GPIO_TogglePin>
	//This creates a string "55555555555555" with a pointer called buffer

	//Transmit data via UART
	//Blocking! fine for small buffers

	HAL_UART_Transmit(&huart2, buffer, sizeof(buffer), 1000);
 8000d64:	23fa      	movs	r3, #250	; 0xfa
 8000d66:	009b      	lsls	r3, r3, #2
 8000d68:	491f      	ldr	r1, [pc, #124]	; (8000de8 <main+0x1b8>)
 8000d6a:	481b      	ldr	r0, [pc, #108]	; (8000dd8 <main+0x1a8>)
 8000d6c:	220e      	movs	r2, #14
 8000d6e:	f002 fdad 	bl	80038cc <HAL_UART_Transmit>


	//get time from RTC
	getTime();
 8000d72:	f000 fa4b 	bl	800120c <getTime>
	timeToString();
 8000d76:	f000 fb55 	bl	8001424 <timeToString>

	//Store output of timeToString in a time_print array
	sprintf(time_print, "Time: %s\r", time_string);
 8000d7a:	4a1c      	ldr	r2, [pc, #112]	; (8000dec <main+0x1bc>)
 8000d7c:	491c      	ldr	r1, [pc, #112]	; (8000df0 <main+0x1c0>)
 8000d7e:	4b1d      	ldr	r3, [pc, #116]	; (8000df4 <main+0x1c4>)
 8000d80:	0018      	movs	r0, r3
 8000d82:	f003 fd1f 	bl	80047c4 <siprintf>

	//Transmit the current time via UART
	HAL_UART_Transmit(&huart2, time_print, sizeof(time_print), 1000);
 8000d86:	23fa      	movs	r3, #250	; 0xfa
 8000d88:	009b      	lsls	r3, r3, #2
 8000d8a:	491a      	ldr	r1, [pc, #104]	; (8000df4 <main+0x1c4>)
 8000d8c:	4812      	ldr	r0, [pc, #72]	; (8000dd8 <main+0x1a8>)
 8000d8e:	2219      	movs	r2, #25
 8000d90:	f002 fd9c 	bl	80038cc <HAL_UART_Transmit>

	//Store epoch time in epoch_print array
	sprintf(epoch_print, "Epoch: %d\r\n\r\n",epochFromTime(time));
 8000d94:	4b18      	ldr	r3, [pc, #96]	; (8000df8 <main+0x1c8>)
 8000d96:	6818      	ldr	r0, [r3, #0]
 8000d98:	6859      	ldr	r1, [r3, #4]
 8000d9a:	f000 fa8f 	bl	80012bc <epochFromTime>
 8000d9e:	0002      	movs	r2, r0
 8000da0:	4916      	ldr	r1, [pc, #88]	; (8000dfc <main+0x1cc>)
 8000da2:	4b17      	ldr	r3, [pc, #92]	; (8000e00 <main+0x1d0>)
 8000da4:	0018      	movs	r0, r3
 8000da6:	f003 fd0d 	bl	80047c4 <siprintf>

	//Transmit epoch time via UART
	HAL_UART_Transmit(&huart2, epoch_print, sizeof(epoch_print), 1000);
 8000daa:	23fa      	movs	r3, #250	; 0xfa
 8000dac:	009b      	lsls	r3, r3, #2
 8000dae:	4914      	ldr	r1, [pc, #80]	; (8000e00 <main+0x1d0>)
 8000db0:	4809      	ldr	r0, [pc, #36]	; (8000dd8 <main+0x1a8>)
 8000db2:	2218      	movs	r2, #24
 8000db4:	f002 fd8a 	bl	80038cc <HAL_UART_Transmit>

	//Delay of DELAY2 = 60 s
	pause_sec(DELAY2);
 8000db8:	23fe      	movs	r3, #254	; 0xfe
 8000dba:	059b      	lsls	r3, r3, #22
 8000dbc:	1c18      	adds	r0, r3, #0
 8000dbe:	f000 f989 	bl	80010d4 <pause_sec>

	//Toggle the LED
	HAL_GPIO_TogglePin(GPIOC, GPIO_PIN_8);
 8000dc2:	2380      	movs	r3, #128	; 0x80
 8000dc4:	005b      	lsls	r3, r3, #1
 8000dc6:	4a07      	ldr	r2, [pc, #28]	; (8000de4 <main+0x1b4>)
 8000dc8:	0019      	movs	r1, r3
 8000dca:	0010      	movs	r0, r2
 8000dcc:	f001 f9e3 	bl	8002196 <HAL_GPIO_TogglePin>
	HAL_GPIO_TogglePin(GPIOC, GPIO_PIN_8); // Toggle blue LED
 8000dd0:	e7b6      	b.n	8000d40 <main+0x110>
 8000dd2:	46c0      	nop			; (mov r8, r8)
 8000dd4:	20000000 	.word	0x20000000
 8000dd8:	200000ec 	.word	0x200000ec
 8000ddc:	080050b0 	.word	0x080050b0
 8000de0:	080050bc 	.word	0x080050bc
 8000de4:	48000800 	.word	0x48000800
 8000de8:	200001b4 	.word	0x200001b4
 8000dec:	20000200 	.word	0x20000200
 8000df0:	080050cc 	.word	0x080050cc
 8000df4:	200001dc 	.word	0x200001dc
 8000df8:	200001f8 	.word	0x200001f8
 8000dfc:	080050d8 	.word	0x080050d8
 8000e00:	200001c4 	.word	0x200001c4

08000e04 <SystemClock_Config>:
/**
  * @brief System Clock Configuration
  * @retval None
  */
void SystemClock_Config(void)
{
 8000e04:	b590      	push	{r4, r7, lr}
 8000e06:	b097      	sub	sp, #92	; 0x5c
 8000e08:	af00      	add	r7, sp, #0
  RCC_OscInitTypeDef RCC_OscInitStruct = {0};
 8000e0a:	2428      	movs	r4, #40	; 0x28
 8000e0c:	193b      	adds	r3, r7, r4
 8000e0e:	0018      	movs	r0, r3
 8000e10:	2330      	movs	r3, #48	; 0x30
 8000e12:	001a      	movs	r2, r3
 8000e14:	2100      	movs	r1, #0
 8000e16:	f003 fccd 	bl	80047b4 <memset>
  RCC_ClkInitTypeDef RCC_ClkInitStruct = {0};
 8000e1a:	2318      	movs	r3, #24
 8000e1c:	18fb      	adds	r3, r7, r3
 8000e1e:	0018      	movs	r0, r3
 8000e20:	2310      	movs	r3, #16
 8000e22:	001a      	movs	r2, r3
 8000e24:	2100      	movs	r1, #0
 8000e26:	f003 fcc5 	bl	80047b4 <memset>
  RCC_PeriphCLKInitTypeDef PeriphClkInit = {0};
 8000e2a:	1d3b      	adds	r3, r7, #4
 8000e2c:	0018      	movs	r0, r3
 8000e2e:	2314      	movs	r3, #20
 8000e30:	001a      	movs	r2, r3
 8000e32:	2100      	movs	r1, #0
 8000e34:	f003 fcbe 	bl	80047b4 <memset>

  /** Initializes the RCC Oscillators according to the specified parameters
  * in the RCC_OscInitTypeDef structure.
  */
  RCC_OscInitStruct.OscillatorType = RCC_OSCILLATORTYPE_HSI;
 8000e38:	0021      	movs	r1, r4
 8000e3a:	187b      	adds	r3, r7, r1
 8000e3c:	2202      	movs	r2, #2
 8000e3e:	601a      	str	r2, [r3, #0]
  RCC_OscInitStruct.HSIState = RCC_HSI_ON;
 8000e40:	187b      	adds	r3, r7, r1
 8000e42:	2201      	movs	r2, #1
 8000e44:	60da      	str	r2, [r3, #12]
  RCC_OscInitStruct.HSICalibrationValue = RCC_HSICALIBRATION_DEFAULT;
 8000e46:	187b      	adds	r3, r7, r1
 8000e48:	2210      	movs	r2, #16
 8000e4a:	611a      	str	r2, [r3, #16]
  RCC_OscInitStruct.PLL.PLLState = RCC_PLL_ON;
 8000e4c:	187b      	adds	r3, r7, r1
 8000e4e:	2202      	movs	r2, #2
 8000e50:	621a      	str	r2, [r3, #32]
  RCC_OscInitStruct.PLL.PLLSource = RCC_PLLSOURCE_HSI;
 8000e52:	187b      	adds	r3, r7, r1
 8000e54:	2200      	movs	r2, #0
 8000e56:	625a      	str	r2, [r3, #36]	; 0x24
  RCC_OscInitStruct.PLL.PLLMUL = RCC_PLL_MUL12;
 8000e58:	187b      	adds	r3, r7, r1
 8000e5a:	22a0      	movs	r2, #160	; 0xa0
 8000e5c:	0392      	lsls	r2, r2, #14
 8000e5e:	629a      	str	r2, [r3, #40]	; 0x28
  RCC_OscInitStruct.PLL.PREDIV = RCC_PREDIV_DIV1;
 8000e60:	187b      	adds	r3, r7, r1
 8000e62:	2200      	movs	r2, #0
 8000e64:	62da      	str	r2, [r3, #44]	; 0x2c
  if (HAL_RCC_OscConfig(&RCC_OscInitStruct) != HAL_OK)
 8000e66:	187b      	adds	r3, r7, r1
 8000e68:	0018      	movs	r0, r3
 8000e6a:	f001 ff91 	bl	8002d90 <HAL_RCC_OscConfig>
 8000e6e:	1e03      	subs	r3, r0, #0
 8000e70:	d001      	beq.n	8000e76 <SystemClock_Config+0x72>
  {
    Error_Handler();
 8000e72:	f000 fb8d 	bl	8001590 <Error_Handler>
  }

  /** Initializes the CPU, AHB and APB buses clocks
  */
  RCC_ClkInitStruct.ClockType = RCC_CLOCKTYPE_HCLK|RCC_CLOCKTYPE_SYSCLK
 8000e76:	2118      	movs	r1, #24
 8000e78:	187b      	adds	r3, r7, r1
 8000e7a:	2207      	movs	r2, #7
 8000e7c:	601a      	str	r2, [r3, #0]
                              |RCC_CLOCKTYPE_PCLK1;
  RCC_ClkInitStruct.SYSCLKSource = RCC_SYSCLKSOURCE_PLLCLK;
 8000e7e:	187b      	adds	r3, r7, r1
 8000e80:	2202      	movs	r2, #2
 8000e82:	605a      	str	r2, [r3, #4]
  RCC_ClkInitStruct.AHBCLKDivider = RCC_SYSCLK_DIV1;
 8000e84:	187b      	adds	r3, r7, r1
 8000e86:	2200      	movs	r2, #0
 8000e88:	609a      	str	r2, [r3, #8]
  RCC_ClkInitStruct.APB1CLKDivider = RCC_HCLK_DIV1;
 8000e8a:	187b      	adds	r3, r7, r1
 8000e8c:	2200      	movs	r2, #0
 8000e8e:	60da      	str	r2, [r3, #12]

  if (HAL_RCC_ClockConfig(&RCC_ClkInitStruct, FLASH_LATENCY_1) != HAL_OK)
 8000e90:	187b      	adds	r3, r7, r1
 8000e92:	2101      	movs	r1, #1
 8000e94:	0018      	movs	r0, r3
 8000e96:	f002 fa95 	bl	80033c4 <HAL_RCC_ClockConfig>
 8000e9a:	1e03      	subs	r3, r0, #0
 8000e9c:	d001      	beq.n	8000ea2 <SystemClock_Config+0x9e>
  {
    Error_Handler();
 8000e9e:	f000 fb77 	bl	8001590 <Error_Handler>
  }
  PeriphClkInit.PeriphClockSelection = RCC_PERIPHCLK_I2C1;
 8000ea2:	1d3b      	adds	r3, r7, #4
 8000ea4:	2220      	movs	r2, #32
 8000ea6:	601a      	str	r2, [r3, #0]
  PeriphClkInit.I2c1ClockSelection = RCC_I2C1CLKSOURCE_HSI;
 8000ea8:	1d3b      	adds	r3, r7, #4
 8000eaa:	2200      	movs	r2, #0
 8000eac:	60da      	str	r2, [r3, #12]
  if (HAL_RCCEx_PeriphCLKConfig(&PeriphClkInit) != HAL_OK)
 8000eae:	1d3b      	adds	r3, r7, #4
 8000eb0:	0018      	movs	r0, r3
 8000eb2:	f002 fbd9 	bl	8003668 <HAL_RCCEx_PeriphCLKConfig>
 8000eb6:	1e03      	subs	r3, r0, #0
 8000eb8:	d001      	beq.n	8000ebe <SystemClock_Config+0xba>
  {
    Error_Handler();
 8000eba:	f000 fb69 	bl	8001590 <Error_Handler>
  }
}
 8000ebe:	46c0      	nop			; (mov r8, r8)
 8000ec0:	46bd      	mov	sp, r7
 8000ec2:	b017      	add	sp, #92	; 0x5c
 8000ec4:	bd90      	pop	{r4, r7, pc}
	...

08000ec8 <MX_I2C1_Init>:
  * @brief I2C1 Initialization Function
  * @param None
  * @retval None
  */
static void MX_I2C1_Init(void)
{
 8000ec8:	b580      	push	{r7, lr}
 8000eca:	af00      	add	r7, sp, #0
  /* USER CODE END I2C1_Init 0 */

  /* USER CODE BEGIN I2C1_Init 1 */

  /* USER CODE END I2C1_Init 1 */
  hi2c1.Instance = I2C1;
 8000ecc:	4b1b      	ldr	r3, [pc, #108]	; (8000f3c <MX_I2C1_Init+0x74>)
 8000ece:	4a1c      	ldr	r2, [pc, #112]	; (8000f40 <MX_I2C1_Init+0x78>)
 8000ed0:	601a      	str	r2, [r3, #0]
  hi2c1.Init.Timing = 0x2000090E;
 8000ed2:	4b1a      	ldr	r3, [pc, #104]	; (8000f3c <MX_I2C1_Init+0x74>)
 8000ed4:	4a1b      	ldr	r2, [pc, #108]	; (8000f44 <MX_I2C1_Init+0x7c>)
 8000ed6:	605a      	str	r2, [r3, #4]
  hi2c1.Init.OwnAddress1 = 0;
 8000ed8:	4b18      	ldr	r3, [pc, #96]	; (8000f3c <MX_I2C1_Init+0x74>)
 8000eda:	2200      	movs	r2, #0
 8000edc:	609a      	str	r2, [r3, #8]
  hi2c1.Init.AddressingMode = I2C_ADDRESSINGMODE_7BIT;
 8000ede:	4b17      	ldr	r3, [pc, #92]	; (8000f3c <MX_I2C1_Init+0x74>)
 8000ee0:	2201      	movs	r2, #1
 8000ee2:	60da      	str	r2, [r3, #12]
  hi2c1.Init.DualAddressMode = I2C_DUALADDRESS_DISABLE;
 8000ee4:	4b15      	ldr	r3, [pc, #84]	; (8000f3c <MX_I2C1_Init+0x74>)
 8000ee6:	2200      	movs	r2, #0
 8000ee8:	611a      	str	r2, [r3, #16]
  hi2c1.Init.OwnAddress2 = 0;
 8000eea:	4b14      	ldr	r3, [pc, #80]	; (8000f3c <MX_I2C1_Init+0x74>)
 8000eec:	2200      	movs	r2, #0
 8000eee:	615a      	str	r2, [r3, #20]
  hi2c1.Init.OwnAddress2Masks = I2C_OA2_NOMASK;
 8000ef0:	4b12      	ldr	r3, [pc, #72]	; (8000f3c <MX_I2C1_Init+0x74>)
 8000ef2:	2200      	movs	r2, #0
 8000ef4:	619a      	str	r2, [r3, #24]
  hi2c1.Init.GeneralCallMode = I2C_GENERALCALL_DISABLE;
 8000ef6:	4b11      	ldr	r3, [pc, #68]	; (8000f3c <MX_I2C1_Init+0x74>)
 8000ef8:	2200      	movs	r2, #0
 8000efa:	61da      	str	r2, [r3, #28]
  hi2c1.Init.NoStretchMode = I2C_NOSTRETCH_DISABLE;
 8000efc:	4b0f      	ldr	r3, [pc, #60]	; (8000f3c <MX_I2C1_Init+0x74>)
 8000efe:	2200      	movs	r2, #0
 8000f00:	621a      	str	r2, [r3, #32]
  if (HAL_I2C_Init(&hi2c1) != HAL_OK)
 8000f02:	4b0e      	ldr	r3, [pc, #56]	; (8000f3c <MX_I2C1_Init+0x74>)
 8000f04:	0018      	movs	r0, r3
 8000f06:	f001 f961 	bl	80021cc <HAL_I2C_Init>
 8000f0a:	1e03      	subs	r3, r0, #0
 8000f0c:	d001      	beq.n	8000f12 <MX_I2C1_Init+0x4a>
  {
    Error_Handler();
 8000f0e:	f000 fb3f 	bl	8001590 <Error_Handler>
  }

  /** Configure Analogue filter
  */
  if (HAL_I2CEx_ConfigAnalogFilter(&hi2c1, I2C_ANALOGFILTER_ENABLE) != HAL_OK)
 8000f12:	4b0a      	ldr	r3, [pc, #40]	; (8000f3c <MX_I2C1_Init+0x74>)
 8000f14:	2100      	movs	r1, #0
 8000f16:	0018      	movs	r0, r3
 8000f18:	f001 fea2 	bl	8002c60 <HAL_I2CEx_ConfigAnalogFilter>
 8000f1c:	1e03      	subs	r3, r0, #0
 8000f1e:	d001      	beq.n	8000f24 <MX_I2C1_Init+0x5c>
  {
    Error_Handler();
 8000f20:	f000 fb36 	bl	8001590 <Error_Handler>
  }

  /** Configure Digital filter
  */
  if (HAL_I2CEx_ConfigDigitalFilter(&hi2c1, 0) != HAL_OK)
 8000f24:	4b05      	ldr	r3, [pc, #20]	; (8000f3c <MX_I2C1_Init+0x74>)
 8000f26:	2100      	movs	r1, #0
 8000f28:	0018      	movs	r0, r3
 8000f2a:	f001 fee5 	bl	8002cf8 <HAL_I2CEx_ConfigDigitalFilter>
 8000f2e:	1e03      	subs	r3, r0, #0
 8000f30:	d001      	beq.n	8000f36 <MX_I2C1_Init+0x6e>
  {
    Error_Handler();
 8000f32:	f000 fb2d 	bl	8001590 <Error_Handler>
  }
  /* USER CODE BEGIN I2C1_Init 2 */

  /* USER CODE END I2C1_Init 2 */

}
 8000f36:	46c0      	nop			; (mov r8, r8)
 8000f38:	46bd      	mov	sp, r7
 8000f3a:	bd80      	pop	{r7, pc}
 8000f3c:	200000a0 	.word	0x200000a0
 8000f40:	40005400 	.word	0x40005400
 8000f44:	2000090e 	.word	0x2000090e

08000f48 <MX_USART2_UART_Init>:
  * @brief USART2 Initialization Function
  * @param None
  * @retval None
  */
static void MX_USART2_UART_Init(void)
{
 8000f48:	b580      	push	{r7, lr}
 8000f4a:	af00      	add	r7, sp, #0
  /* USER CODE END USART2_Init 0 */

  /* USER CODE BEGIN USART2_Init 1 */

  /* USER CODE END USART2_Init 1 */
  huart2.Instance = USART2;
 8000f4c:	4b14      	ldr	r3, [pc, #80]	; (8000fa0 <MX_USART2_UART_Init+0x58>)
 8000f4e:	4a15      	ldr	r2, [pc, #84]	; (8000fa4 <MX_USART2_UART_Init+0x5c>)
 8000f50:	601a      	str	r2, [r3, #0]
  huart2.Init.BaudRate = 9600;
 8000f52:	4b13      	ldr	r3, [pc, #76]	; (8000fa0 <MX_USART2_UART_Init+0x58>)
 8000f54:	2296      	movs	r2, #150	; 0x96
 8000f56:	0192      	lsls	r2, r2, #6
 8000f58:	605a      	str	r2, [r3, #4]
  huart2.Init.WordLength = UART_WORDLENGTH_8B;
 8000f5a:	4b11      	ldr	r3, [pc, #68]	; (8000fa0 <MX_USART2_UART_Init+0x58>)
 8000f5c:	2200      	movs	r2, #0
 8000f5e:	609a      	str	r2, [r3, #8]
  huart2.Init.StopBits = UART_STOPBITS_1;
 8000f60:	4b0f      	ldr	r3, [pc, #60]	; (8000fa0 <MX_USART2_UART_Init+0x58>)
 8000f62:	2200      	movs	r2, #0
 8000f64:	60da      	str	r2, [r3, #12]
  huart2.Init.Parity = UART_PARITY_NONE;
 8000f66:	4b0e      	ldr	r3, [pc, #56]	; (8000fa0 <MX_USART2_UART_Init+0x58>)
 8000f68:	2200      	movs	r2, #0
 8000f6a:	611a      	str	r2, [r3, #16]
  huart2.Init.Mode = UART_MODE_TX_RX;
 8000f6c:	4b0c      	ldr	r3, [pc, #48]	; (8000fa0 <MX_USART2_UART_Init+0x58>)
 8000f6e:	220c      	movs	r2, #12
 8000f70:	615a      	str	r2, [r3, #20]
  huart2.Init.HwFlowCtl = UART_HWCONTROL_NONE;
 8000f72:	4b0b      	ldr	r3, [pc, #44]	; (8000fa0 <MX_USART2_UART_Init+0x58>)
 8000f74:	2200      	movs	r2, #0
 8000f76:	619a      	str	r2, [r3, #24]
  huart2.Init.OverSampling = UART_OVERSAMPLING_16;
 8000f78:	4b09      	ldr	r3, [pc, #36]	; (8000fa0 <MX_USART2_UART_Init+0x58>)
 8000f7a:	2200      	movs	r2, #0
 8000f7c:	61da      	str	r2, [r3, #28]
  huart2.Init.OneBitSampling = UART_ONE_BIT_SAMPLE_DISABLE;
 8000f7e:	4b08      	ldr	r3, [pc, #32]	; (8000fa0 <MX_USART2_UART_Init+0x58>)
 8000f80:	2200      	movs	r2, #0
 8000f82:	621a      	str	r2, [r3, #32]
  huart2.AdvancedInit.AdvFeatureInit = UART_ADVFEATURE_NO_INIT;
 8000f84:	4b06      	ldr	r3, [pc, #24]	; (8000fa0 <MX_USART2_UART_Init+0x58>)
 8000f86:	2200      	movs	r2, #0
 8000f88:	625a      	str	r2, [r3, #36]	; 0x24
  if (HAL_UART_Init(&huart2) != HAL_OK)
 8000f8a:	4b05      	ldr	r3, [pc, #20]	; (8000fa0 <MX_USART2_UART_Init+0x58>)
 8000f8c:	0018      	movs	r0, r3
 8000f8e:	f002 fc49 	bl	8003824 <HAL_UART_Init>
 8000f92:	1e03      	subs	r3, r0, #0
 8000f94:	d001      	beq.n	8000f9a <MX_USART2_UART_Init+0x52>
  {
    Error_Handler();
 8000f96:	f000 fafb 	bl	8001590 <Error_Handler>
  }
  /* USER CODE BEGIN USART2_Init 2 */

  /* USER CODE END USART2_Init 2 */

}
 8000f9a:	46c0      	nop			; (mov r8, r8)
 8000f9c:	46bd      	mov	sp, r7
 8000f9e:	bd80      	pop	{r7, pc}
 8000fa0:	200000ec 	.word	0x200000ec
 8000fa4:	40004400 	.word	0x40004400

08000fa8 <MX_DMA_Init>:

/**
  * Enable DMA controller clock
  */
static void MX_DMA_Init(void)
{
 8000fa8:	b580      	push	{r7, lr}
 8000faa:	b082      	sub	sp, #8
 8000fac:	af00      	add	r7, sp, #0

  /* DMA controller clock enable */
  __HAL_RCC_DMA1_CLK_ENABLE();
 8000fae:	4b0c      	ldr	r3, [pc, #48]	; (8000fe0 <MX_DMA_Init+0x38>)
 8000fb0:	695a      	ldr	r2, [r3, #20]
 8000fb2:	4b0b      	ldr	r3, [pc, #44]	; (8000fe0 <MX_DMA_Init+0x38>)
 8000fb4:	2101      	movs	r1, #1
 8000fb6:	430a      	orrs	r2, r1
 8000fb8:	615a      	str	r2, [r3, #20]
 8000fba:	4b09      	ldr	r3, [pc, #36]	; (8000fe0 <MX_DMA_Init+0x38>)
 8000fbc:	695b      	ldr	r3, [r3, #20]
 8000fbe:	2201      	movs	r2, #1
 8000fc0:	4013      	ands	r3, r2
 8000fc2:	607b      	str	r3, [r7, #4]
 8000fc4:	687b      	ldr	r3, [r7, #4]

  /* DMA interrupt init */
  /* DMA1_Channel4_5_IRQn interrupt configuration */
  HAL_NVIC_SetPriority(DMA1_Channel4_5_IRQn, 0, 0);
 8000fc6:	2200      	movs	r2, #0
 8000fc8:	2100      	movs	r1, #0
 8000fca:	200b      	movs	r0, #11
 8000fcc:	f000 fda0 	bl	8001b10 <HAL_NVIC_SetPriority>
  HAL_NVIC_EnableIRQ(DMA1_Channel4_5_IRQn);
 8000fd0:	200b      	movs	r0, #11
 8000fd2:	f000 fdb2 	bl	8001b3a <HAL_NVIC_EnableIRQ>

}
 8000fd6:	46c0      	nop			; (mov r8, r8)
 8000fd8:	46bd      	mov	sp, r7
 8000fda:	b002      	add	sp, #8
 8000fdc:	bd80      	pop	{r7, pc}
 8000fde:	46c0      	nop			; (mov r8, r8)
 8000fe0:	40021000 	.word	0x40021000

08000fe4 <MX_GPIO_Init>:
  * @brief GPIO Initialization Function
  * @param None
  * @retval None
  */
static void MX_GPIO_Init(void)
{
 8000fe4:	b590      	push	{r4, r7, lr}
 8000fe6:	b08b      	sub	sp, #44	; 0x2c
 8000fe8:	af00      	add	r7, sp, #0
  GPIO_InitTypeDef GPIO_InitStruct = {0};
 8000fea:	2414      	movs	r4, #20
 8000fec:	193b      	adds	r3, r7, r4
 8000fee:	0018      	movs	r0, r3
 8000ff0:	2314      	movs	r3, #20
 8000ff2:	001a      	movs	r2, r3
 8000ff4:	2100      	movs	r1, #0
 8000ff6:	f003 fbdd 	bl	80047b4 <memset>

  /* GPIO Ports Clock Enable */
  __HAL_RCC_GPIOF_CLK_ENABLE();
 8000ffa:	4b34      	ldr	r3, [pc, #208]	; (80010cc <MX_GPIO_Init+0xe8>)
 8000ffc:	695a      	ldr	r2, [r3, #20]
 8000ffe:	4b33      	ldr	r3, [pc, #204]	; (80010cc <MX_GPIO_Init+0xe8>)
 8001000:	2180      	movs	r1, #128	; 0x80
 8001002:	03c9      	lsls	r1, r1, #15
 8001004:	430a      	orrs	r2, r1
 8001006:	615a      	str	r2, [r3, #20]
 8001008:	4b30      	ldr	r3, [pc, #192]	; (80010cc <MX_GPIO_Init+0xe8>)
 800100a:	695a      	ldr	r2, [r3, #20]
 800100c:	2380      	movs	r3, #128	; 0x80
 800100e:	03db      	lsls	r3, r3, #15
 8001010:	4013      	ands	r3, r2
 8001012:	613b      	str	r3, [r7, #16]
 8001014:	693b      	ldr	r3, [r7, #16]
  __HAL_RCC_GPIOA_CLK_ENABLE();
 8001016:	4b2d      	ldr	r3, [pc, #180]	; (80010cc <MX_GPIO_Init+0xe8>)
 8001018:	695a      	ldr	r2, [r3, #20]
 800101a:	4b2c      	ldr	r3, [pc, #176]	; (80010cc <MX_GPIO_Init+0xe8>)
 800101c:	2180      	movs	r1, #128	; 0x80
 800101e:	0289      	lsls	r1, r1, #10
 8001020:	430a      	orrs	r2, r1
 8001022:	615a      	str	r2, [r3, #20]
 8001024:	4b29      	ldr	r3, [pc, #164]	; (80010cc <MX_GPIO_Init+0xe8>)
 8001026:	695a      	ldr	r2, [r3, #20]
 8001028:	2380      	movs	r3, #128	; 0x80
 800102a:	029b      	lsls	r3, r3, #10
 800102c:	4013      	ands	r3, r2
 800102e:	60fb      	str	r3, [r7, #12]
 8001030:	68fb      	ldr	r3, [r7, #12]
  __HAL_RCC_GPIOC_CLK_ENABLE();
 8001032:	4b26      	ldr	r3, [pc, #152]	; (80010cc <MX_GPIO_Init+0xe8>)
 8001034:	695a      	ldr	r2, [r3, #20]
 8001036:	4b25      	ldr	r3, [pc, #148]	; (80010cc <MX_GPIO_Init+0xe8>)
 8001038:	2180      	movs	r1, #128	; 0x80
 800103a:	0309      	lsls	r1, r1, #12
 800103c:	430a      	orrs	r2, r1
 800103e:	615a      	str	r2, [r3, #20]
 8001040:	4b22      	ldr	r3, [pc, #136]	; (80010cc <MX_GPIO_Init+0xe8>)
 8001042:	695a      	ldr	r2, [r3, #20]
 8001044:	2380      	movs	r3, #128	; 0x80
 8001046:	031b      	lsls	r3, r3, #12
 8001048:	4013      	ands	r3, r2
 800104a:	60bb      	str	r3, [r7, #8]
 800104c:	68bb      	ldr	r3, [r7, #8]
  __HAL_RCC_GPIOB_CLK_ENABLE();
 800104e:	4b1f      	ldr	r3, [pc, #124]	; (80010cc <MX_GPIO_Init+0xe8>)
 8001050:	695a      	ldr	r2, [r3, #20]
 8001052:	4b1e      	ldr	r3, [pc, #120]	; (80010cc <MX_GPIO_Init+0xe8>)
 8001054:	2180      	movs	r1, #128	; 0x80
 8001056:	02c9      	lsls	r1, r1, #11
 8001058:	430a      	orrs	r2, r1
 800105a:	615a      	str	r2, [r3, #20]
 800105c:	4b1b      	ldr	r3, [pc, #108]	; (80010cc <MX_GPIO_Init+0xe8>)
 800105e:	695a      	ldr	r2, [r3, #20]
 8001060:	2380      	movs	r3, #128	; 0x80
 8001062:	02db      	lsls	r3, r3, #11
 8001064:	4013      	ands	r3, r2
 8001066:	607b      	str	r3, [r7, #4]
 8001068:	687b      	ldr	r3, [r7, #4]

  /*Configure GPIO pin Output Level */
  HAL_GPIO_WritePin(GPIOC, LD4_Pin|LD3_Pin, GPIO_PIN_RESET);
 800106a:	23c0      	movs	r3, #192	; 0xc0
 800106c:	009b      	lsls	r3, r3, #2
 800106e:	4818      	ldr	r0, [pc, #96]	; (80010d0 <MX_GPIO_Init+0xec>)
 8001070:	2200      	movs	r2, #0
 8001072:	0019      	movs	r1, r3
 8001074:	f001 f872 	bl	800215c <HAL_GPIO_WritePin>

  /*Configure GPIO pin : B1_Pin */
  GPIO_InitStruct.Pin = B1_Pin;
 8001078:	193b      	adds	r3, r7, r4
 800107a:	2201      	movs	r2, #1
 800107c:	601a      	str	r2, [r3, #0]
  GPIO_InitStruct.Mode = GPIO_MODE_EVT_RISING;
 800107e:	193b      	adds	r3, r7, r4
 8001080:	2290      	movs	r2, #144	; 0x90
 8001082:	0352      	lsls	r2, r2, #13
 8001084:	605a      	str	r2, [r3, #4]
  GPIO_InitStruct.Pull = GPIO_NOPULL;
 8001086:	193b      	adds	r3, r7, r4
 8001088:	2200      	movs	r2, #0
 800108a:	609a      	str	r2, [r3, #8]
  HAL_GPIO_Init(B1_GPIO_Port, &GPIO_InitStruct);
 800108c:	193a      	adds	r2, r7, r4
 800108e:	2390      	movs	r3, #144	; 0x90
 8001090:	05db      	lsls	r3, r3, #23
 8001092:	0011      	movs	r1, r2
 8001094:	0018      	movs	r0, r3
 8001096:	f000 fef1 	bl	8001e7c <HAL_GPIO_Init>

  /*Configure GPIO pins : LD4_Pin LD3_Pin */
  GPIO_InitStruct.Pin = LD4_Pin|LD3_Pin;
 800109a:	0021      	movs	r1, r4
 800109c:	187b      	adds	r3, r7, r1
 800109e:	22c0      	movs	r2, #192	; 0xc0
 80010a0:	0092      	lsls	r2, r2, #2
 80010a2:	601a      	str	r2, [r3, #0]
  GPIO_InitStruct.Mode = GPIO_MODE_OUTPUT_PP;
 80010a4:	187b      	adds	r3, r7, r1
 80010a6:	2201      	movs	r2, #1
 80010a8:	605a      	str	r2, [r3, #4]
  GPIO_InitStruct.Pull = GPIO_NOPULL;
 80010aa:	187b      	adds	r3, r7, r1
 80010ac:	2200      	movs	r2, #0
 80010ae:	609a      	str	r2, [r3, #8]
  GPIO_InitStruct.Speed = GPIO_SPEED_FREQ_LOW;
 80010b0:	187b      	adds	r3, r7, r1
 80010b2:	2200      	movs	r2, #0
 80010b4:	60da      	str	r2, [r3, #12]
  HAL_GPIO_Init(GPIOC, &GPIO_InitStruct);
 80010b6:	187b      	adds	r3, r7, r1
 80010b8:	4a05      	ldr	r2, [pc, #20]	; (80010d0 <MX_GPIO_Init+0xec>)
 80010ba:	0019      	movs	r1, r3
 80010bc:	0010      	movs	r0, r2
 80010be:	f000 fedd 	bl	8001e7c <HAL_GPIO_Init>

}
 80010c2:	46c0      	nop			; (mov r8, r8)
 80010c4:	46bd      	mov	sp, r7
 80010c6:	b00b      	add	sp, #44	; 0x2c
 80010c8:	bd90      	pop	{r4, r7, pc}
 80010ca:	46c0      	nop			; (mov r8, r8)
 80010cc:	40021000 	.word	0x40021000
 80010d0:	48000800 	.word	0x48000800

080010d4 <pause_sec>:

/* USER CODE BEGIN 4 */
void pause_sec(float x)
{
 80010d4:	b580      	push	{r7, lr}
 80010d6:	b082      	sub	sp, #8
 80010d8:	af00      	add	r7, sp, #0
 80010da:	6078      	str	r0, [r7, #4]

	//TASK 2
	//DELAY1 and DELAY2 have been defined

	//YOUR CODE HERE
	HAL_Delay(x*1000);
 80010dc:	4907      	ldr	r1, [pc, #28]	; (80010fc <pause_sec+0x28>)
 80010de:	6878      	ldr	r0, [r7, #4]
 80010e0:	f7ff f9aa 	bl	8000438 <__aeabi_fmul>
 80010e4:	1c03      	adds	r3, r0, #0
 80010e6:	1c18      	adds	r0, r3, #0
 80010e8:	f7ff f98e 	bl	8000408 <__aeabi_f2uiz>
 80010ec:	0003      	movs	r3, r0
 80010ee:	0018      	movs	r0, r3
 80010f0:	f000 fc3e 	bl	8001970 <HAL_Delay>
}
 80010f4:	46c0      	nop			; (mov r8, r8)
 80010f6:	46bd      	mov	sp, r7
 80010f8:	b002      	add	sp, #8
 80010fa:	bd80      	pop	{r7, pc}
 80010fc:	447a0000 	.word	0x447a0000

08001100 <decToBcd>:

uint8_t decToBcd(int val)
{
 8001100:	b590      	push	{r4, r7, lr}
 8001102:	b085      	sub	sp, #20
 8001104:	af00      	add	r7, sp, #0
 8001106:	6078      	str	r0, [r7, #4]
    /* Convert normal decimal numbers to binary coded decimal*/

	//TASK 3
	uint8_t x1 = (val/10)<<4;	//get the 10s part of the val, shift to the left by 4 to get in form 0bxxxx0000
 8001108:	687b      	ldr	r3, [r7, #4]
 800110a:	210a      	movs	r1, #10
 800110c:	0018      	movs	r0, r3
 800110e:	f7ff f88f 	bl	8000230 <__divsi3>
 8001112:	0003      	movs	r3, r0
 8001114:	b2da      	uxtb	r2, r3
 8001116:	240f      	movs	r4, #15
 8001118:	193b      	adds	r3, r7, r4
 800111a:	0112      	lsls	r2, r2, #4
 800111c:	701a      	strb	r2, [r3, #0]
	uint8_t x2 = (val%10);		//get last digit of val
 800111e:	687b      	ldr	r3, [r7, #4]
 8001120:	210a      	movs	r1, #10
 8001122:	0018      	movs	r0, r3
 8001124:	f7ff f96a 	bl	80003fc <__aeabi_idivmod>
 8001128:	000b      	movs	r3, r1
 800112a:	001a      	movs	r2, r3
 800112c:	210e      	movs	r1, #14
 800112e:	187b      	adds	r3, r7, r1
 8001130:	701a      	strb	r2, [r3, #0]
	return x1 + x2;				//return addition of x1 and x2
 8001132:	193a      	adds	r2, r7, r4
 8001134:	187b      	adds	r3, r7, r1
 8001136:	7812      	ldrb	r2, [r2, #0]
 8001138:	781b      	ldrb	r3, [r3, #0]
 800113a:	18d3      	adds	r3, r2, r3
 800113c:	b2db      	uxtb	r3, r3
}
 800113e:	0018      	movs	r0, r3
 8001140:	46bd      	mov	sp, r7
 8001142:	b005      	add	sp, #20
 8001144:	bd90      	pop	{r4, r7, pc}

08001146 <bcdToDec>:

int bcdToDec(uint8_t val)
{
 8001146:	b580      	push	{r7, lr}
 8001148:	b084      	sub	sp, #16
 800114a:	af00      	add	r7, sp, #0
 800114c:	0002      	movs	r2, r0
 800114e:	1dfb      	adds	r3, r7, #7
 8001150:	701a      	strb	r2, [r3, #0]
    /* Convert binary coded decimal to normal decimal numbers */

	//TASK 3
	int x1 = (val>>4)*10;	//shift val to right by 4 to get in form 0b0000xxxx, multiply by 10 to get 10s part of dec
 8001152:	1dfb      	adds	r3, r7, #7
 8001154:	781b      	ldrb	r3, [r3, #0]
 8001156:	091b      	lsrs	r3, r3, #4
 8001158:	b2db      	uxtb	r3, r3
 800115a:	001a      	movs	r2, r3
 800115c:	0013      	movs	r3, r2
 800115e:	009b      	lsls	r3, r3, #2
 8001160:	189b      	adds	r3, r3, r2
 8001162:	005b      	lsls	r3, r3, #1
 8001164:	60fb      	str	r3, [r7, #12]
	int x2 = (val&0x0F);	//logic & operator to remove first part of val
 8001166:	1dfb      	adds	r3, r7, #7
 8001168:	781b      	ldrb	r3, [r3, #0]
 800116a:	220f      	movs	r2, #15
 800116c:	4013      	ands	r3, r2
 800116e:	60bb      	str	r3, [r7, #8]
	return x1 + x2;			//return addition of x1 and x2
 8001170:	68fa      	ldr	r2, [r7, #12]
 8001172:	68bb      	ldr	r3, [r7, #8]
 8001174:	18d3      	adds	r3, r2, r3
}
 8001176:	0018      	movs	r0, r3
 8001178:	46bd      	mov	sp, r7
 800117a:	b004      	add	sp, #16
 800117c:	bd80      	pop	{r7, pc}
	...

08001180 <setTime>:

void setTime (uint8_t sec, uint8_t min, uint8_t hour, uint8_t dow, uint8_t dom, uint8_t month, uint8_t year)
{
 8001180:	b5b0      	push	{r4, r5, r7, lr}
 8001182:	b088      	sub	sp, #32
 8001184:	af04      	add	r7, sp, #16
 8001186:	0005      	movs	r5, r0
 8001188:	000c      	movs	r4, r1
 800118a:	0010      	movs	r0, r2
 800118c:	0019      	movs	r1, r3
 800118e:	1dfb      	adds	r3, r7, #7
 8001190:	1c2a      	adds	r2, r5, #0
 8001192:	701a      	strb	r2, [r3, #0]
 8001194:	1dbb      	adds	r3, r7, #6
 8001196:	1c22      	adds	r2, r4, #0
 8001198:	701a      	strb	r2, [r3, #0]
 800119a:	1d7b      	adds	r3, r7, #5
 800119c:	1c02      	adds	r2, r0, #0
 800119e:	701a      	strb	r2, [r3, #0]
 80011a0:	1d3b      	adds	r3, r7, #4
 80011a2:	1c0a      	adds	r2, r1, #0
 80011a4:	701a      	strb	r2, [r3, #0]

	uint8_t set_time[7];


	//Store each input into the set_time array
	set_time[0] = sec;
 80011a6:	2108      	movs	r1, #8
 80011a8:	187b      	adds	r3, r7, r1
 80011aa:	1dfa      	adds	r2, r7, #7
 80011ac:	7812      	ldrb	r2, [r2, #0]
 80011ae:	701a      	strb	r2, [r3, #0]
	set_time[1] = min;
 80011b0:	187b      	adds	r3, r7, r1
 80011b2:	1dba      	adds	r2, r7, #6
 80011b4:	7812      	ldrb	r2, [r2, #0]
 80011b6:	705a      	strb	r2, [r3, #1]
	set_time[2] = hour;
 80011b8:	187b      	adds	r3, r7, r1
 80011ba:	1d7a      	adds	r2, r7, #5
 80011bc:	7812      	ldrb	r2, [r2, #0]
 80011be:	709a      	strb	r2, [r3, #2]
	set_time[3] = dow;
 80011c0:	187b      	adds	r3, r7, r1
 80011c2:	1d3a      	adds	r2, r7, #4
 80011c4:	7812      	ldrb	r2, [r2, #0]
 80011c6:	70da      	strb	r2, [r3, #3]
	set_time[4] = dom;
 80011c8:	187a      	adds	r2, r7, r1
 80011ca:	2320      	movs	r3, #32
 80011cc:	18fb      	adds	r3, r7, r3
 80011ce:	781b      	ldrb	r3, [r3, #0]
 80011d0:	7113      	strb	r3, [r2, #4]
	set_time[5] = month;
 80011d2:	187b      	adds	r3, r7, r1
 80011d4:	2224      	movs	r2, #36	; 0x24
 80011d6:	18ba      	adds	r2, r7, r2
 80011d8:	7812      	ldrb	r2, [r2, #0]
 80011da:	715a      	strb	r2, [r3, #5]
	set_time[6] = year;
 80011dc:	187b      	adds	r3, r7, r1
 80011de:	2228      	movs	r2, #40	; 0x28
 80011e0:	18ba      	adds	r2, r7, r2
 80011e2:	7812      	ldrb	r2, [r2, #0]
 80011e4:	719a      	strb	r2, [r3, #6]

	//DS3231_ADDRESS, FIRST_REG, REG_SIZE have been defined
	HAL_I2C_Mem_Write(&hi2c1, DS3231_ADDRESS, FIRST_REG, REG_SIZE, set_time, 7, 1000);
 80011e6:	4808      	ldr	r0, [pc, #32]	; (8001208 <setTime+0x88>)
 80011e8:	23fa      	movs	r3, #250	; 0xfa
 80011ea:	009b      	lsls	r3, r3, #2
 80011ec:	9302      	str	r3, [sp, #8]
 80011ee:	2307      	movs	r3, #7
 80011f0:	9301      	str	r3, [sp, #4]
 80011f2:	187b      	adds	r3, r7, r1
 80011f4:	9300      	str	r3, [sp, #0]
 80011f6:	2301      	movs	r3, #1
 80011f8:	2200      	movs	r2, #0
 80011fa:	21d0      	movs	r1, #208	; 0xd0
 80011fc:	f001 f87c 	bl	80022f8 <HAL_I2C_Mem_Write>
}
 8001200:	46c0      	nop			; (mov r8, r8)
 8001202:	46bd      	mov	sp, r7
 8001204:	b004      	add	sp, #16
 8001206:	bdb0      	pop	{r4, r5, r7, pc}
 8001208:	200000a0 	.word	0x200000a0

0800120c <getTime>:

void getTime (void)
{
 800120c:	b580      	push	{r7, lr}
 800120e:	b086      	sub	sp, #24
 8001210:	af04      	add	r7, sp, #16

	uint8_t get_time[7];

	//DS3231_ADDRESS, FIRST_REG, REG_SIZE have been defined
	//Store time from RTC in get_time array
	HAL_I2C_Mem_Read(&hi2c1, DS3231_ADDRESS, FIRST_REG, REG_SIZE, get_time, 7, 1000);
 8001212:	4828      	ldr	r0, [pc, #160]	; (80012b4 <getTime+0xa8>)
 8001214:	23fa      	movs	r3, #250	; 0xfa
 8001216:	009b      	lsls	r3, r3, #2
 8001218:	9302      	str	r3, [sp, #8]
 800121a:	2307      	movs	r3, #7
 800121c:	9301      	str	r3, [sp, #4]
 800121e:	003b      	movs	r3, r7
 8001220:	9300      	str	r3, [sp, #0]
 8001222:	2301      	movs	r3, #1
 8001224:	2200      	movs	r2, #0
 8001226:	21d0      	movs	r1, #208	; 0xd0
 8001228:	f001 f994 	bl	8002554 <HAL_I2C_Mem_Read>


	//Update global TIME time structure with each value stored in the get_time array, converting each value from BCD into decimal
	time.seconds = bcdToDec(get_time[0]);
 800122c:	003b      	movs	r3, r7
 800122e:	781b      	ldrb	r3, [r3, #0]
 8001230:	0018      	movs	r0, r3
 8001232:	f7ff ff88 	bl	8001146 <bcdToDec>
 8001236:	0003      	movs	r3, r0
 8001238:	b2da      	uxtb	r2, r3
 800123a:	4b1f      	ldr	r3, [pc, #124]	; (80012b8 <getTime+0xac>)
 800123c:	701a      	strb	r2, [r3, #0]
	time.minutes = bcdToDec(get_time[1]);
 800123e:	003b      	movs	r3, r7
 8001240:	785b      	ldrb	r3, [r3, #1]
 8001242:	0018      	movs	r0, r3
 8001244:	f7ff ff7f 	bl	8001146 <bcdToDec>
 8001248:	0003      	movs	r3, r0
 800124a:	b2da      	uxtb	r2, r3
 800124c:	4b1a      	ldr	r3, [pc, #104]	; (80012b8 <getTime+0xac>)
 800124e:	705a      	strb	r2, [r3, #1]
	time.hour = bcdToDec(get_time[2]);
 8001250:	003b      	movs	r3, r7
 8001252:	789b      	ldrb	r3, [r3, #2]
 8001254:	0018      	movs	r0, r3
 8001256:	f7ff ff76 	bl	8001146 <bcdToDec>
 800125a:	0003      	movs	r3, r0
 800125c:	b2da      	uxtb	r2, r3
 800125e:	4b16      	ldr	r3, [pc, #88]	; (80012b8 <getTime+0xac>)
 8001260:	709a      	strb	r2, [r3, #2]
	time.dayofweek = bcdToDec(get_time[3]);
 8001262:	003b      	movs	r3, r7
 8001264:	78db      	ldrb	r3, [r3, #3]
 8001266:	0018      	movs	r0, r3
 8001268:	f7ff ff6d 	bl	8001146 <bcdToDec>
 800126c:	0003      	movs	r3, r0
 800126e:	b2da      	uxtb	r2, r3
 8001270:	4b11      	ldr	r3, [pc, #68]	; (80012b8 <getTime+0xac>)
 8001272:	70da      	strb	r2, [r3, #3]
	time.dayofmonth = bcdToDec(get_time[4]);
 8001274:	003b      	movs	r3, r7
 8001276:	791b      	ldrb	r3, [r3, #4]
 8001278:	0018      	movs	r0, r3
 800127a:	f7ff ff64 	bl	8001146 <bcdToDec>
 800127e:	0003      	movs	r3, r0
 8001280:	b2da      	uxtb	r2, r3
 8001282:	4b0d      	ldr	r3, [pc, #52]	; (80012b8 <getTime+0xac>)
 8001284:	711a      	strb	r2, [r3, #4]
	time.month = bcdToDec(get_time[5]);
 8001286:	003b      	movs	r3, r7
 8001288:	795b      	ldrb	r3, [r3, #5]
 800128a:	0018      	movs	r0, r3
 800128c:	f7ff ff5b 	bl	8001146 <bcdToDec>
 8001290:	0003      	movs	r3, r0
 8001292:	b2da      	uxtb	r2, r3
 8001294:	4b08      	ldr	r3, [pc, #32]	; (80012b8 <getTime+0xac>)
 8001296:	715a      	strb	r2, [r3, #5]
	time.year = bcdToDec(get_time[6]);
 8001298:	003b      	movs	r3, r7
 800129a:	799b      	ldrb	r3, [r3, #6]
 800129c:	0018      	movs	r0, r3
 800129e:	f7ff ff52 	bl	8001146 <bcdToDec>
 80012a2:	0003      	movs	r3, r0
 80012a4:	b2da      	uxtb	r2, r3
 80012a6:	4b04      	ldr	r3, [pc, #16]	; (80012b8 <getTime+0xac>)
 80012a8:	719a      	strb	r2, [r3, #6]
}
 80012aa:	46c0      	nop			; (mov r8, r8)
 80012ac:	46bd      	mov	sp, r7
 80012ae:	b002      	add	sp, #8
 80012b0:	bd80      	pop	{r7, pc}
 80012b2:	46c0      	nop			; (mov r8, r8)
 80012b4:	200000a0 	.word	0x200000a0
 80012b8:	200001f8 	.word	0x200001f8

080012bc <epochFromTime>:

int epochFromTime(TIME time){
 80012bc:	b580      	push	{r7, lr}
 80012be:	b084      	sub	sp, #16
 80012c0:	af00      	add	r7, sp, #0
 80012c2:	003b      	movs	r3, r7
 80012c4:	6018      	str	r0, [r3, #0]
 80012c6:	6059      	str	r1, [r3, #4]
    /* Convert time to UNIX epoch time */

	//define output seconds integer
	int seconds = 0;
 80012c8:	2300      	movs	r3, #0
 80012ca:	60fb      	str	r3, [r7, #12]

	//add the number of seconds of the year since 2022
	seconds += (time.year-22)*31536000;//seconds in years since 2022 (60sec*60min*24hr*365day)
 80012cc:	003b      	movs	r3, r7
 80012ce:	799b      	ldrb	r3, [r3, #6]
 80012d0:	3b16      	subs	r3, #22
 80012d2:	001a      	movs	r2, r3
 80012d4:	0013      	movs	r3, r2
 80012d6:	025b      	lsls	r3, r3, #9
 80012d8:	189b      	adds	r3, r3, r2
 80012da:	009b      	lsls	r3, r3, #2
 80012dc:	189b      	adds	r3, r3, r2
 80012de:	00db      	lsls	r3, r3, #3
 80012e0:	189b      	adds	r3, r3, r2
 80012e2:	011a      	lsls	r2, r3, #4
 80012e4:	1ad2      	subs	r2, r2, r3
 80012e6:	01d3      	lsls	r3, r2, #7
 80012e8:	001a      	movs	r2, r3
 80012ea:	68fb      	ldr	r3, [r7, #12]
 80012ec:	189b      	adds	r3, r3, r2
 80012ee:	60fb      	str	r3, [r7, #12]

	//add the number of seconds that have passed for the month
	switch(time.month){
 80012f0:	003b      	movs	r3, r7
 80012f2:	795b      	ldrb	r3, [r3, #5]
 80012f4:	2b0c      	cmp	r3, #12
 80012f6:	d846      	bhi.n	8001386 <epochFromTime+0xca>
 80012f8:	009a      	lsls	r2, r3, #2
 80012fa:	4b3d      	ldr	r3, [pc, #244]	; (80013f0 <epochFromTime+0x134>)
 80012fc:	18d3      	adds	r3, r2, r3
 80012fe:	681b      	ldr	r3, [r3, #0]
 8001300:	469f      	mov	pc, r3
	case 2:
		seconds += 2678400; //seconds passed through to get to feb (60sec*60min*24hr*31day)
 8001302:	68fb      	ldr	r3, [r7, #12]
 8001304:	4a3b      	ldr	r2, [pc, #236]	; (80013f4 <epochFromTime+0x138>)
 8001306:	4694      	mov	ip, r2
 8001308:	4463      	add	r3, ip
 800130a:	60fb      	str	r3, [r7, #12]
	break;
 800130c:	e03b      	b.n	8001386 <epochFromTime+0xca>
	case 3:
		seconds += 5097600; //seconds passed through to get to march (prev_sec+60sec*60min*24hr*28day)
 800130e:	68fb      	ldr	r3, [r7, #12]
 8001310:	4a39      	ldr	r2, [pc, #228]	; (80013f8 <epochFromTime+0x13c>)
 8001312:	4694      	mov	ip, r2
 8001314:	4463      	add	r3, ip
 8001316:	60fb      	str	r3, [r7, #12]
	break;
 8001318:	e035      	b.n	8001386 <epochFromTime+0xca>
	case 4:
		seconds += 7776000; //seconds passed through to get to april (prev_sec+60sec*60min*24hr*31day)
 800131a:	68fb      	ldr	r3, [r7, #12]
 800131c:	4a37      	ldr	r2, [pc, #220]	; (80013fc <epochFromTime+0x140>)
 800131e:	4694      	mov	ip, r2
 8001320:	4463      	add	r3, ip
 8001322:	60fb      	str	r3, [r7, #12]
	break;
 8001324:	e02f      	b.n	8001386 <epochFromTime+0xca>
	case 5:
		seconds += 10368000; //seconds passed through to get to may (prev_sec+60sec*60min*24hr*30day)
 8001326:	68fb      	ldr	r3, [r7, #12]
 8001328:	4a35      	ldr	r2, [pc, #212]	; (8001400 <epochFromTime+0x144>)
 800132a:	4694      	mov	ip, r2
 800132c:	4463      	add	r3, ip
 800132e:	60fb      	str	r3, [r7, #12]
	break;
 8001330:	e029      	b.n	8001386 <epochFromTime+0xca>
	case 6:
		seconds += 13046400; //seconds passed through to get to june (prev_sec+60sec*60min*24hr*31day)
 8001332:	68fb      	ldr	r3, [r7, #12]
 8001334:	4a33      	ldr	r2, [pc, #204]	; (8001404 <epochFromTime+0x148>)
 8001336:	4694      	mov	ip, r2
 8001338:	4463      	add	r3, ip
 800133a:	60fb      	str	r3, [r7, #12]
	break;
 800133c:	e023      	b.n	8001386 <epochFromTime+0xca>
	case 7:
		seconds += 15638400; //seconds passed through to get to july (prev_sec+60sec*60min*24hr*30day)
 800133e:	68fb      	ldr	r3, [r7, #12]
 8001340:	4a31      	ldr	r2, [pc, #196]	; (8001408 <epochFromTime+0x14c>)
 8001342:	4694      	mov	ip, r2
 8001344:	4463      	add	r3, ip
 8001346:	60fb      	str	r3, [r7, #12]
	break;
 8001348:	e01d      	b.n	8001386 <epochFromTime+0xca>
	case 8:
		seconds += 18316800; //seconds passed through to get to august (prev_sec+60sec*60min*24hr*31day)
 800134a:	68fb      	ldr	r3, [r7, #12]
 800134c:	4a2f      	ldr	r2, [pc, #188]	; (800140c <epochFromTime+0x150>)
 800134e:	4694      	mov	ip, r2
 8001350:	4463      	add	r3, ip
 8001352:	60fb      	str	r3, [r7, #12]
	break;
 8001354:	e017      	b.n	8001386 <epochFromTime+0xca>
	case 9:
		seconds += 20995200; //seconds passed through to get to september (prev_sec+60sec*60min*24hr*31day)
 8001356:	68fb      	ldr	r3, [r7, #12]
 8001358:	4a2d      	ldr	r2, [pc, #180]	; (8001410 <epochFromTime+0x154>)
 800135a:	4694      	mov	ip, r2
 800135c:	4463      	add	r3, ip
 800135e:	60fb      	str	r3, [r7, #12]
	break;
 8001360:	e011      	b.n	8001386 <epochFromTime+0xca>
	case 10:
		seconds += 23587200; //seconds passed through to get to october (prev_sec+60sec*60min*24hr*30day)
 8001362:	68fb      	ldr	r3, [r7, #12]
 8001364:	4a2b      	ldr	r2, [pc, #172]	; (8001414 <epochFromTime+0x158>)
 8001366:	4694      	mov	ip, r2
 8001368:	4463      	add	r3, ip
 800136a:	60fb      	str	r3, [r7, #12]
	break;
 800136c:	e00b      	b.n	8001386 <epochFromTime+0xca>
	case 11:
		seconds += 26265600; //seconds passed through to get to november (prev_sec+60sec*60min*24hr*31day)
 800136e:	68fb      	ldr	r3, [r7, #12]
 8001370:	4a29      	ldr	r2, [pc, #164]	; (8001418 <epochFromTime+0x15c>)
 8001372:	4694      	mov	ip, r2
 8001374:	4463      	add	r3, ip
 8001376:	60fb      	str	r3, [r7, #12]
	break;
 8001378:	e005      	b.n	8001386 <epochFromTime+0xca>
	case 12:
		seconds += 28857600; //seconds passed through to get to december (prev_sec+60sec*60min*24hr*30day)
 800137a:	68fb      	ldr	r3, [r7, #12]
 800137c:	4a27      	ldr	r2, [pc, #156]	; (800141c <epochFromTime+0x160>)
 800137e:	4694      	mov	ip, r2
 8001380:	4463      	add	r3, ip
 8001382:	60fb      	str	r3, [r7, #12]
	break;
 8001384:	46c0      	nop			; (mov r8, r8)
	default:
		seconds = seconds; //seconds in january is calculated from days
	}

	//add the number of seconds that have passed for the day in the month
	seconds += (time.dayofmonth-1)*86400; //seconds in one day (60sec*60min*24hr)
 8001386:	003b      	movs	r3, r7
 8001388:	791b      	ldrb	r3, [r3, #4]
 800138a:	1e5a      	subs	r2, r3, #1
 800138c:	0013      	movs	r3, r2
 800138e:	005b      	lsls	r3, r3, #1
 8001390:	189b      	adds	r3, r3, r2
 8001392:	011a      	lsls	r2, r3, #4
 8001394:	1ad2      	subs	r2, r2, r3
 8001396:	0113      	lsls	r3, r2, #4
 8001398:	1a9b      	subs	r3, r3, r2
 800139a:	01db      	lsls	r3, r3, #7
 800139c:	001a      	movs	r2, r3
 800139e:	68fb      	ldr	r3, [r7, #12]
 80013a0:	189b      	adds	r3, r3, r2
 80013a2:	60fb      	str	r3, [r7, #12]

	//add the number of seconds that have passed for hours
	seconds += time.hour*3600; //seconds in one hour (60sec*60min)
 80013a4:	003b      	movs	r3, r7
 80013a6:	789b      	ldrb	r3, [r3, #2]
 80013a8:	001a      	movs	r2, r3
 80013aa:	0013      	movs	r3, r2
 80013ac:	011b      	lsls	r3, r3, #4
 80013ae:	1a9b      	subs	r3, r3, r2
 80013b0:	011a      	lsls	r2, r3, #4
 80013b2:	1ad2      	subs	r2, r2, r3
 80013b4:	0113      	lsls	r3, r2, #4
 80013b6:	001a      	movs	r2, r3
 80013b8:	68fb      	ldr	r3, [r7, #12]
 80013ba:	189b      	adds	r3, r3, r2
 80013bc:	60fb      	str	r3, [r7, #12]

	//add the number of seconds that have passed from the minutes
	seconds += time.minutes*60; //seconds in one minute (60sec)
 80013be:	003b      	movs	r3, r7
 80013c0:	785b      	ldrb	r3, [r3, #1]
 80013c2:	001a      	movs	r2, r3
 80013c4:	0013      	movs	r3, r2
 80013c6:	011b      	lsls	r3, r3, #4
 80013c8:	1a9b      	subs	r3, r3, r2
 80013ca:	009b      	lsls	r3, r3, #2
 80013cc:	001a      	movs	r2, r3
 80013ce:	68fb      	ldr	r3, [r7, #12]
 80013d0:	189b      	adds	r3, r3, r2
 80013d2:	60fb      	str	r3, [r7, #12]

	//add the final number of seconds
	seconds += time.seconds;
 80013d4:	003b      	movs	r3, r7
 80013d6:	781b      	ldrb	r3, [r3, #0]
 80013d8:	001a      	movs	r2, r3
 80013da:	68fb      	ldr	r3, [r7, #12]
 80013dc:	189b      	adds	r3, r3, r2
 80013de:	60fb      	str	r3, [r7, #12]

	return EPOCH_2022 + seconds;
 80013e0:	68fb      	ldr	r3, [r7, #12]
 80013e2:	4a0f      	ldr	r2, [pc, #60]	; (8001420 <epochFromTime+0x164>)
 80013e4:	4694      	mov	ip, r2
 80013e6:	4463      	add	r3, ip
}
 80013e8:	0018      	movs	r0, r3
 80013ea:	46bd      	mov	sp, r7
 80013ec:	b004      	add	sp, #16
 80013ee:	bd80      	pop	{r7, pc}
 80013f0:	08005148 	.word	0x08005148
 80013f4:	0028de80 	.word	0x0028de80
 80013f8:	004dc880 	.word	0x004dc880
 80013fc:	0076a700 	.word	0x0076a700
 8001400:	009e3400 	.word	0x009e3400
 8001404:	00c71280 	.word	0x00c71280
 8001408:	00ee9f80 	.word	0x00ee9f80
 800140c:	01177e00 	.word	0x01177e00
 8001410:	01405c80 	.word	0x01405c80
 8001414:	0167e980 	.word	0x0167e980
 8001418:	0190c800 	.word	0x0190c800
 800141c:	01b85500 	.word	0x01b85500
 8001420:	61cf7d60 	.word	0x61cf7d60

08001424 <timeToString>:

void timeToString(void)
{
 8001424:	b580      	push	{r7, lr}
 8001426:	af00      	add	r7, sp, #0
	/* Store the current time in a time_string array to be printed */
	time_string[0]=time.hour/10+'0';
 8001428:	4b55      	ldr	r3, [pc, #340]	; (8001580 <timeToString+0x15c>)
 800142a:	789b      	ldrb	r3, [r3, #2]
 800142c:	210a      	movs	r1, #10
 800142e:	0018      	movs	r0, r3
 8001430:	f7fe fe74 	bl	800011c <__udivsi3>
 8001434:	0003      	movs	r3, r0
 8001436:	b2db      	uxtb	r3, r3
 8001438:	3330      	adds	r3, #48	; 0x30
 800143a:	b2da      	uxtb	r2, r3
 800143c:	4b51      	ldr	r3, [pc, #324]	; (8001584 <timeToString+0x160>)
 800143e:	701a      	strb	r2, [r3, #0]
	time_string[1]=time.hour%10+'0';
 8001440:	4b4f      	ldr	r3, [pc, #316]	; (8001580 <timeToString+0x15c>)
 8001442:	789b      	ldrb	r3, [r3, #2]
 8001444:	210a      	movs	r1, #10
 8001446:	0018      	movs	r0, r3
 8001448:	f7fe feee 	bl	8000228 <__aeabi_uidivmod>
 800144c:	000b      	movs	r3, r1
 800144e:	b2db      	uxtb	r3, r3
 8001450:	3330      	adds	r3, #48	; 0x30
 8001452:	b2da      	uxtb	r2, r3
 8001454:	4b4b      	ldr	r3, [pc, #300]	; (8001584 <timeToString+0x160>)
 8001456:	705a      	strb	r2, [r3, #1]
	time_string[2]=':';
 8001458:	4b4a      	ldr	r3, [pc, #296]	; (8001584 <timeToString+0x160>)
 800145a:	223a      	movs	r2, #58	; 0x3a
 800145c:	709a      	strb	r2, [r3, #2]
	time_string[3]=time.minutes/10+'0';
 800145e:	4b48      	ldr	r3, [pc, #288]	; (8001580 <timeToString+0x15c>)
 8001460:	785b      	ldrb	r3, [r3, #1]
 8001462:	210a      	movs	r1, #10
 8001464:	0018      	movs	r0, r3
 8001466:	f7fe fe59 	bl	800011c <__udivsi3>
 800146a:	0003      	movs	r3, r0
 800146c:	b2db      	uxtb	r3, r3
 800146e:	3330      	adds	r3, #48	; 0x30
 8001470:	b2da      	uxtb	r2, r3
 8001472:	4b44      	ldr	r3, [pc, #272]	; (8001584 <timeToString+0x160>)
 8001474:	70da      	strb	r2, [r3, #3]
	time_string[4]=time.minutes%10+'0';
 8001476:	4b42      	ldr	r3, [pc, #264]	; (8001580 <timeToString+0x15c>)
 8001478:	785b      	ldrb	r3, [r3, #1]
 800147a:	210a      	movs	r1, #10
 800147c:	0018      	movs	r0, r3
 800147e:	f7fe fed3 	bl	8000228 <__aeabi_uidivmod>
 8001482:	000b      	movs	r3, r1
 8001484:	b2db      	uxtb	r3, r3
 8001486:	3330      	adds	r3, #48	; 0x30
 8001488:	b2da      	uxtb	r2, r3
 800148a:	4b3e      	ldr	r3, [pc, #248]	; (8001584 <timeToString+0x160>)
 800148c:	711a      	strb	r2, [r3, #4]
	time_string[5]=':';
 800148e:	4b3d      	ldr	r3, [pc, #244]	; (8001584 <timeToString+0x160>)
 8001490:	223a      	movs	r2, #58	; 0x3a
 8001492:	715a      	strb	r2, [r3, #5]
	time_string[6]=time.seconds/10+'0';
 8001494:	4b3a      	ldr	r3, [pc, #232]	; (8001580 <timeToString+0x15c>)
 8001496:	781b      	ldrb	r3, [r3, #0]
 8001498:	210a      	movs	r1, #10
 800149a:	0018      	movs	r0, r3
 800149c:	f7fe fe3e 	bl	800011c <__udivsi3>
 80014a0:	0003      	movs	r3, r0
 80014a2:	b2db      	uxtb	r3, r3
 80014a4:	3330      	adds	r3, #48	; 0x30
 80014a6:	b2da      	uxtb	r2, r3
 80014a8:	4b36      	ldr	r3, [pc, #216]	; (8001584 <timeToString+0x160>)
 80014aa:	719a      	strb	r2, [r3, #6]
	time_string[7]=time.seconds%10+'0';
 80014ac:	4b34      	ldr	r3, [pc, #208]	; (8001580 <timeToString+0x15c>)
 80014ae:	781b      	ldrb	r3, [r3, #0]
 80014b0:	210a      	movs	r1, #10
 80014b2:	0018      	movs	r0, r3
 80014b4:	f7fe feb8 	bl	8000228 <__aeabi_uidivmod>
 80014b8:	000b      	movs	r3, r1
 80014ba:	b2db      	uxtb	r3, r3
 80014bc:	3330      	adds	r3, #48	; 0x30
 80014be:	b2da      	uxtb	r2, r3
 80014c0:	4b30      	ldr	r3, [pc, #192]	; (8001584 <timeToString+0x160>)
 80014c2:	71da      	strb	r2, [r3, #7]
	time_string[8]=' ';
 80014c4:	4b2f      	ldr	r3, [pc, #188]	; (8001584 <timeToString+0x160>)
 80014c6:	2220      	movs	r2, #32
 80014c8:	721a      	strb	r2, [r3, #8]
	time_string[9]=time.dayofmonth/10+'0';
 80014ca:	4b2d      	ldr	r3, [pc, #180]	; (8001580 <timeToString+0x15c>)
 80014cc:	791b      	ldrb	r3, [r3, #4]
 80014ce:	210a      	movs	r1, #10
 80014d0:	0018      	movs	r0, r3
 80014d2:	f7fe fe23 	bl	800011c <__udivsi3>
 80014d6:	0003      	movs	r3, r0
 80014d8:	b2db      	uxtb	r3, r3
 80014da:	3330      	adds	r3, #48	; 0x30
 80014dc:	b2da      	uxtb	r2, r3
 80014de:	4b29      	ldr	r3, [pc, #164]	; (8001584 <timeToString+0x160>)
 80014e0:	725a      	strb	r2, [r3, #9]
	time_string[10]=time.dayofmonth%10+'0';
 80014e2:	4b27      	ldr	r3, [pc, #156]	; (8001580 <timeToString+0x15c>)
 80014e4:	791b      	ldrb	r3, [r3, #4]
 80014e6:	210a      	movs	r1, #10
 80014e8:	0018      	movs	r0, r3
 80014ea:	f7fe fe9d 	bl	8000228 <__aeabi_uidivmod>
 80014ee:	000b      	movs	r3, r1
 80014f0:	b2db      	uxtb	r3, r3
 80014f2:	3330      	adds	r3, #48	; 0x30
 80014f4:	b2da      	uxtb	r2, r3
 80014f6:	4b23      	ldr	r3, [pc, #140]	; (8001584 <timeToString+0x160>)
 80014f8:	729a      	strb	r2, [r3, #10]
	time_string[11]='/';
 80014fa:	4b22      	ldr	r3, [pc, #136]	; (8001584 <timeToString+0x160>)
 80014fc:	222f      	movs	r2, #47	; 0x2f
 80014fe:	72da      	strb	r2, [r3, #11]
	time_string[12]=time.month/10+'0';
 8001500:	4b1f      	ldr	r3, [pc, #124]	; (8001580 <timeToString+0x15c>)
 8001502:	795b      	ldrb	r3, [r3, #5]
 8001504:	210a      	movs	r1, #10
 8001506:	0018      	movs	r0, r3
 8001508:	f7fe fe08 	bl	800011c <__udivsi3>
 800150c:	0003      	movs	r3, r0
 800150e:	b2db      	uxtb	r3, r3
 8001510:	3330      	adds	r3, #48	; 0x30
 8001512:	b2da      	uxtb	r2, r3
 8001514:	4b1b      	ldr	r3, [pc, #108]	; (8001584 <timeToString+0x160>)
 8001516:	731a      	strb	r2, [r3, #12]
	time_string[13]=time.month%10+'0';
 8001518:	4b19      	ldr	r3, [pc, #100]	; (8001580 <timeToString+0x15c>)
 800151a:	795b      	ldrb	r3, [r3, #5]
 800151c:	210a      	movs	r1, #10
 800151e:	0018      	movs	r0, r3
 8001520:	f7fe fe82 	bl	8000228 <__aeabi_uidivmod>
 8001524:	000b      	movs	r3, r1
 8001526:	b2db      	uxtb	r3, r3
 8001528:	3330      	adds	r3, #48	; 0x30
 800152a:	b2da      	uxtb	r2, r3
 800152c:	4b15      	ldr	r3, [pc, #84]	; (8001584 <timeToString+0x160>)
 800152e:	735a      	strb	r2, [r3, #13]
	time_string[14]='/';
 8001530:	4b14      	ldr	r3, [pc, #80]	; (8001584 <timeToString+0x160>)
 8001532:	222f      	movs	r2, #47	; 0x2f
 8001534:	739a      	strb	r2, [r3, #14]
	time_string[15]=time.year/10+'0';
 8001536:	4b12      	ldr	r3, [pc, #72]	; (8001580 <timeToString+0x15c>)
 8001538:	799b      	ldrb	r3, [r3, #6]
 800153a:	210a      	movs	r1, #10
 800153c:	0018      	movs	r0, r3
 800153e:	f7fe fded 	bl	800011c <__udivsi3>
 8001542:	0003      	movs	r3, r0
 8001544:	b2db      	uxtb	r3, r3
 8001546:	3330      	adds	r3, #48	; 0x30
 8001548:	b2da      	uxtb	r2, r3
 800154a:	4b0e      	ldr	r3, [pc, #56]	; (8001584 <timeToString+0x160>)
 800154c:	73da      	strb	r2, [r3, #15]
	time_string[16]=time.year%10+'0';
 800154e:	4b0c      	ldr	r3, [pc, #48]	; (8001580 <timeToString+0x15c>)
 8001550:	799b      	ldrb	r3, [r3, #6]
 8001552:	210a      	movs	r1, #10
 8001554:	0018      	movs	r0, r3
 8001556:	f7fe fe67 	bl	8000228 <__aeabi_uidivmod>
 800155a:	000b      	movs	r3, r1
 800155c:	b2db      	uxtb	r3, r3
 800155e:	3330      	adds	r3, #48	; 0x30
 8001560:	b2da      	uxtb	r2, r3
 8001562:	4b08      	ldr	r3, [pc, #32]	; (8001584 <timeToString+0x160>)
 8001564:	741a      	strb	r2, [r3, #16]
	time_string[17]='\n';
 8001566:	4b07      	ldr	r3, [pc, #28]	; (8001584 <timeToString+0x160>)
 8001568:	220a      	movs	r2, #10
 800156a:	745a      	strb	r2, [r3, #17]
	sprintf(time_print, "Time: %s\r",time_string);
 800156c:	4a05      	ldr	r2, [pc, #20]	; (8001584 <timeToString+0x160>)
 800156e:	4906      	ldr	r1, [pc, #24]	; (8001588 <timeToString+0x164>)
 8001570:	4b06      	ldr	r3, [pc, #24]	; (800158c <timeToString+0x168>)
 8001572:	0018      	movs	r0, r3
 8001574:	f003 f926 	bl	80047c4 <siprintf>
}
 8001578:	46c0      	nop			; (mov r8, r8)
 800157a:	46bd      	mov	sp, r7
 800157c:	bd80      	pop	{r7, pc}
 800157e:	46c0      	nop			; (mov r8, r8)
 8001580:	200001f8 	.word	0x200001f8
 8001584:	20000200 	.word	0x20000200
 8001588:	080050cc 	.word	0x080050cc
 800158c:	200001dc 	.word	0x200001dc

08001590 <Error_Handler>:
/**
  * @brief  This function is executed in case of error occurrence.
  * @retval None
  */
void Error_Handler(void)
{
 8001590:	b580      	push	{r7, lr}
 8001592:	af00      	add	r7, sp, #0
  \details Disables IRQ interrupts by setting the I-bit in the CPSR.
           Can only be executed in Privileged modes.
 */
__STATIC_FORCEINLINE void __disable_irq(void)
{
  __ASM volatile ("cpsid i" : : : "memory");
 8001594:	b672      	cpsid	i
}
 8001596:	46c0      	nop			; (mov r8, r8)
  /* USER CODE BEGIN Error_Handler_Debug */
  /* User can add his own implementation to report the HAL error return state */
  __disable_irq();
  while (1)
 8001598:	e7fe      	b.n	8001598 <Error_Handler+0x8>
	...

0800159c <HAL_MspInit>:
 800159c:	b580      	push	{r7, lr}
 800159e:	b082      	sub	sp, #8
 80015a0:	af00      	add	r7, sp, #0
 80015a2:	4b0f      	ldr	r3, [pc, #60]	; (80015e0 <HAL_MspInit+0x44>)
 80015a4:	699a      	ldr	r2, [r3, #24]
 80015a6:	4b0e      	ldr	r3, [pc, #56]	; (80015e0 <HAL_MspInit+0x44>)
 80015a8:	2101      	movs	r1, #1
 80015aa:	430a      	orrs	r2, r1
 80015ac:	619a      	str	r2, [r3, #24]
 80015ae:	4b0c      	ldr	r3, [pc, #48]	; (80015e0 <HAL_MspInit+0x44>)
 80015b0:	699b      	ldr	r3, [r3, #24]
 80015b2:	2201      	movs	r2, #1
 80015b4:	4013      	ands	r3, r2
 80015b6:	607b      	str	r3, [r7, #4]
 80015b8:	687b      	ldr	r3, [r7, #4]
 80015ba:	4b09      	ldr	r3, [pc, #36]	; (80015e0 <HAL_MspInit+0x44>)
 80015bc:	69da      	ldr	r2, [r3, #28]
 80015be:	4b08      	ldr	r3, [pc, #32]	; (80015e0 <HAL_MspInit+0x44>)
 80015c0:	2180      	movs	r1, #128	; 0x80
 80015c2:	0549      	lsls	r1, r1, #21
 80015c4:	430a      	orrs	r2, r1
 80015c6:	61da      	str	r2, [r3, #28]
 80015c8:	4b05      	ldr	r3, [pc, #20]	; (80015e0 <HAL_MspInit+0x44>)
 80015ca:	69da      	ldr	r2, [r3, #28]
 80015cc:	2380      	movs	r3, #128	; 0x80
 80015ce:	055b      	lsls	r3, r3, #21
 80015d0:	4013      	ands	r3, r2
 80015d2:	603b      	str	r3, [r7, #0]
 80015d4:	683b      	ldr	r3, [r7, #0]
 80015d6:	46c0      	nop			; (mov r8, r8)
 80015d8:	46bd      	mov	sp, r7
 80015da:	b002      	add	sp, #8
 80015dc:	bd80      	pop	{r7, pc}
 80015de:	46c0      	nop			; (mov r8, r8)
 80015e0:	40021000 	.word	0x40021000

080015e4 <HAL_I2C_MspInit>:
 80015e4:	b590      	push	{r4, r7, lr}
 80015e6:	b08b      	sub	sp, #44	; 0x2c
 80015e8:	af00      	add	r7, sp, #0
 80015ea:	6078      	str	r0, [r7, #4]
 80015ec:	2414      	movs	r4, #20
 80015ee:	193b      	adds	r3, r7, r4
 80015f0:	0018      	movs	r0, r3
 80015f2:	2314      	movs	r3, #20
 80015f4:	001a      	movs	r2, r3
 80015f6:	2100      	movs	r1, #0
 80015f8:	f003 f8dc 	bl	80047b4 <memset>
 80015fc:	687b      	ldr	r3, [r7, #4]
 80015fe:	681b      	ldr	r3, [r3, #0]
 8001600:	4a1c      	ldr	r2, [pc, #112]	; (8001674 <HAL_I2C_MspInit+0x90>)
 8001602:	4293      	cmp	r3, r2
 8001604:	d131      	bne.n	800166a <HAL_I2C_MspInit+0x86>
 8001606:	4b1c      	ldr	r3, [pc, #112]	; (8001678 <HAL_I2C_MspInit+0x94>)
 8001608:	695a      	ldr	r2, [r3, #20]
 800160a:	4b1b      	ldr	r3, [pc, #108]	; (8001678 <HAL_I2C_MspInit+0x94>)
 800160c:	2180      	movs	r1, #128	; 0x80
 800160e:	02c9      	lsls	r1, r1, #11
 8001610:	430a      	orrs	r2, r1
 8001612:	615a      	str	r2, [r3, #20]
 8001614:	4b18      	ldr	r3, [pc, #96]	; (8001678 <HAL_I2C_MspInit+0x94>)
 8001616:	695a      	ldr	r2, [r3, #20]
 8001618:	2380      	movs	r3, #128	; 0x80
 800161a:	02db      	lsls	r3, r3, #11
 800161c:	4013      	ands	r3, r2
 800161e:	613b      	str	r3, [r7, #16]
 8001620:	693b      	ldr	r3, [r7, #16]
 8001622:	0021      	movs	r1, r4
 8001624:	187b      	adds	r3, r7, r1
 8001626:	22c0      	movs	r2, #192	; 0xc0
 8001628:	601a      	str	r2, [r3, #0]
 800162a:	187b      	adds	r3, r7, r1
 800162c:	2212      	movs	r2, #18
 800162e:	605a      	str	r2, [r3, #4]
 8001630:	187b      	adds	r3, r7, r1
 8001632:	2200      	movs	r2, #0
 8001634:	609a      	str	r2, [r3, #8]
 8001636:	187b      	adds	r3, r7, r1
 8001638:	2203      	movs	r2, #3
 800163a:	60da      	str	r2, [r3, #12]
 800163c:	187b      	adds	r3, r7, r1
 800163e:	2201      	movs	r2, #1
 8001640:	611a      	str	r2, [r3, #16]
 8001642:	187b      	adds	r3, r7, r1
 8001644:	4a0d      	ldr	r2, [pc, #52]	; (800167c <HAL_I2C_MspInit+0x98>)
 8001646:	0019      	movs	r1, r3
 8001648:	0010      	movs	r0, r2
 800164a:	f000 fc17 	bl	8001e7c <HAL_GPIO_Init>
 800164e:	4b0a      	ldr	r3, [pc, #40]	; (8001678 <HAL_I2C_MspInit+0x94>)
 8001650:	69da      	ldr	r2, [r3, #28]
 8001652:	4b09      	ldr	r3, [pc, #36]	; (8001678 <HAL_I2C_MspInit+0x94>)
 8001654:	2180      	movs	r1, #128	; 0x80
 8001656:	0389      	lsls	r1, r1, #14
 8001658:	430a      	orrs	r2, r1
 800165a:	61da      	str	r2, [r3, #28]
 800165c:	4b06      	ldr	r3, [pc, #24]	; (8001678 <HAL_I2C_MspInit+0x94>)
 800165e:	69da      	ldr	r2, [r3, #28]
 8001660:	2380      	movs	r3, #128	; 0x80
 8001662:	039b      	lsls	r3, r3, #14
 8001664:	4013      	ands	r3, r2
 8001666:	60fb      	str	r3, [r7, #12]
 8001668:	68fb      	ldr	r3, [r7, #12]
 800166a:	46c0      	nop			; (mov r8, r8)
 800166c:	46bd      	mov	sp, r7
 800166e:	b00b      	add	sp, #44	; 0x2c
 8001670:	bd90      	pop	{r4, r7, pc}
 8001672:	46c0      	nop			; (mov r8, r8)
 8001674:	40005400 	.word	0x40005400
 8001678:	40021000 	.word	0x40021000
 800167c:	48000400 	.word	0x48000400

08001680 <HAL_UART_MspInit>:
 8001680:	b590      	push	{r4, r7, lr}
 8001682:	b08b      	sub	sp, #44	; 0x2c
 8001684:	af00      	add	r7, sp, #0
 8001686:	6078      	str	r0, [r7, #4]
 8001688:	2414      	movs	r4, #20
 800168a:	193b      	adds	r3, r7, r4
 800168c:	0018      	movs	r0, r3
 800168e:	2314      	movs	r3, #20
 8001690:	001a      	movs	r2, r3
 8001692:	2100      	movs	r1, #0
 8001694:	f003 f88e 	bl	80047b4 <memset>
 8001698:	687b      	ldr	r3, [r7, #4]
 800169a:	681b      	ldr	r3, [r3, #0]
 800169c:	4a33      	ldr	r2, [pc, #204]	; (800176c <HAL_UART_MspInit+0xec>)
 800169e:	4293      	cmp	r3, r2
 80016a0:	d160      	bne.n	8001764 <HAL_UART_MspInit+0xe4>
 80016a2:	4b33      	ldr	r3, [pc, #204]	; (8001770 <HAL_UART_MspInit+0xf0>)
 80016a4:	69da      	ldr	r2, [r3, #28]
 80016a6:	4b32      	ldr	r3, [pc, #200]	; (8001770 <HAL_UART_MspInit+0xf0>)
 80016a8:	2180      	movs	r1, #128	; 0x80
 80016aa:	0289      	lsls	r1, r1, #10
 80016ac:	430a      	orrs	r2, r1
 80016ae:	61da      	str	r2, [r3, #28]
 80016b0:	4b2f      	ldr	r3, [pc, #188]	; (8001770 <HAL_UART_MspInit+0xf0>)
 80016b2:	69da      	ldr	r2, [r3, #28]
 80016b4:	2380      	movs	r3, #128	; 0x80
 80016b6:	029b      	lsls	r3, r3, #10
 80016b8:	4013      	ands	r3, r2
 80016ba:	613b      	str	r3, [r7, #16]
 80016bc:	693b      	ldr	r3, [r7, #16]
 80016be:	4b2c      	ldr	r3, [pc, #176]	; (8001770 <HAL_UART_MspInit+0xf0>)
 80016c0:	695a      	ldr	r2, [r3, #20]
 80016c2:	4b2b      	ldr	r3, [pc, #172]	; (8001770 <HAL_UART_MspInit+0xf0>)
 80016c4:	2180      	movs	r1, #128	; 0x80
 80016c6:	0289      	lsls	r1, r1, #10
 80016c8:	430a      	orrs	r2, r1
 80016ca:	615a      	str	r2, [r3, #20]
 80016cc:	4b28      	ldr	r3, [pc, #160]	; (8001770 <HAL_UART_MspInit+0xf0>)
 80016ce:	695a      	ldr	r2, [r3, #20]
 80016d0:	2380      	movs	r3, #128	; 0x80
 80016d2:	029b      	lsls	r3, r3, #10
 80016d4:	4013      	ands	r3, r2
 80016d6:	60fb      	str	r3, [r7, #12]
 80016d8:	68fb      	ldr	r3, [r7, #12]
 80016da:	0021      	movs	r1, r4
 80016dc:	187b      	adds	r3, r7, r1
 80016de:	220c      	movs	r2, #12
 80016e0:	601a      	str	r2, [r3, #0]
 80016e2:	187b      	adds	r3, r7, r1
 80016e4:	2202      	movs	r2, #2
 80016e6:	605a      	str	r2, [r3, #4]
 80016e8:	187b      	adds	r3, r7, r1
 80016ea:	2200      	movs	r2, #0
 80016ec:	609a      	str	r2, [r3, #8]
 80016ee:	187b      	adds	r3, r7, r1
 80016f0:	2203      	movs	r2, #3
 80016f2:	60da      	str	r2, [r3, #12]
 80016f4:	187b      	adds	r3, r7, r1
 80016f6:	2201      	movs	r2, #1
 80016f8:	611a      	str	r2, [r3, #16]
 80016fa:	187a      	adds	r2, r7, r1
 80016fc:	2390      	movs	r3, #144	; 0x90
 80016fe:	05db      	lsls	r3, r3, #23
 8001700:	0011      	movs	r1, r2
 8001702:	0018      	movs	r0, r3
 8001704:	f000 fbba 	bl	8001e7c <HAL_GPIO_Init>
 8001708:	4b1a      	ldr	r3, [pc, #104]	; (8001774 <HAL_UART_MspInit+0xf4>)
 800170a:	4a1b      	ldr	r2, [pc, #108]	; (8001778 <HAL_UART_MspInit+0xf8>)
 800170c:	601a      	str	r2, [r3, #0]
 800170e:	4b19      	ldr	r3, [pc, #100]	; (8001774 <HAL_UART_MspInit+0xf4>)
 8001710:	2210      	movs	r2, #16
 8001712:	605a      	str	r2, [r3, #4]
 8001714:	4b17      	ldr	r3, [pc, #92]	; (8001774 <HAL_UART_MspInit+0xf4>)
 8001716:	2200      	movs	r2, #0
 8001718:	609a      	str	r2, [r3, #8]
 800171a:	4b16      	ldr	r3, [pc, #88]	; (8001774 <HAL_UART_MspInit+0xf4>)
 800171c:	2280      	movs	r2, #128	; 0x80
 800171e:	60da      	str	r2, [r3, #12]
 8001720:	4b14      	ldr	r3, [pc, #80]	; (8001774 <HAL_UART_MspInit+0xf4>)
 8001722:	2200      	movs	r2, #0
 8001724:	611a      	str	r2, [r3, #16]
 8001726:	4b13      	ldr	r3, [pc, #76]	; (8001774 <HAL_UART_MspInit+0xf4>)
 8001728:	2200      	movs	r2, #0
 800172a:	615a      	str	r2, [r3, #20]
 800172c:	4b11      	ldr	r3, [pc, #68]	; (8001774 <HAL_UART_MspInit+0xf4>)
 800172e:	2200      	movs	r2, #0
 8001730:	619a      	str	r2, [r3, #24]
 8001732:	4b10      	ldr	r3, [pc, #64]	; (8001774 <HAL_UART_MspInit+0xf4>)
 8001734:	2200      	movs	r2, #0
 8001736:	61da      	str	r2, [r3, #28]
 8001738:	4b0e      	ldr	r3, [pc, #56]	; (8001774 <HAL_UART_MspInit+0xf4>)
 800173a:	0018      	movs	r0, r3
 800173c:	f000 fa1a 	bl	8001b74 <HAL_DMA_Init>
 8001740:	1e03      	subs	r3, r0, #0
 8001742:	d001      	beq.n	8001748 <HAL_UART_MspInit+0xc8>
 8001744:	f7ff ff24 	bl	8001590 <Error_Handler>
 8001748:	687b      	ldr	r3, [r7, #4]
 800174a:	4a0a      	ldr	r2, [pc, #40]	; (8001774 <HAL_UART_MspInit+0xf4>)
 800174c:	66da      	str	r2, [r3, #108]	; 0x6c
 800174e:	4b09      	ldr	r3, [pc, #36]	; (8001774 <HAL_UART_MspInit+0xf4>)
 8001750:	687a      	ldr	r2, [r7, #4]
 8001752:	625a      	str	r2, [r3, #36]	; 0x24
 8001754:	2200      	movs	r2, #0
 8001756:	2100      	movs	r1, #0
 8001758:	201c      	movs	r0, #28
 800175a:	f000 f9d9 	bl	8001b10 <HAL_NVIC_SetPriority>
 800175e:	201c      	movs	r0, #28
 8001760:	f000 f9eb 	bl	8001b3a <HAL_NVIC_EnableIRQ>
 8001764:	46c0      	nop			; (mov r8, r8)
 8001766:	46bd      	mov	sp, r7
 8001768:	b00b      	add	sp, #44	; 0x2c
 800176a:	bd90      	pop	{r4, r7, pc}
 800176c:	40004400 	.word	0x40004400
 8001770:	40021000 	.word	0x40021000
 8001774:	20000170 	.word	0x20000170
 8001778:	40020044 	.word	0x40020044

0800177c <NMI_Handler>:
 800177c:	b580      	push	{r7, lr}
 800177e:	af00      	add	r7, sp, #0
 8001780:	e7fe      	b.n	8001780 <NMI_Handler+0x4>

08001782 <HardFault_Handler>:
 8001782:	b580      	push	{r7, lr}
 8001784:	af00      	add	r7, sp, #0
 8001786:	e7fe      	b.n	8001786 <HardFault_Handler+0x4>

08001788 <SVC_Handler>:
 8001788:	b580      	push	{r7, lr}
 800178a:	af00      	add	r7, sp, #0
 800178c:	46c0      	nop			; (mov r8, r8)
 800178e:	46bd      	mov	sp, r7
 8001790:	bd80      	pop	{r7, pc}

08001792 <PendSV_Handler>:
 8001792:	b580      	push	{r7, lr}
 8001794:	af00      	add	r7, sp, #0
 8001796:	46c0      	nop			; (mov r8, r8)
 8001798:	46bd      	mov	sp, r7
 800179a:	bd80      	pop	{r7, pc}

0800179c <SysTick_Handler>:
 800179c:	b580      	push	{r7, lr}
 800179e:	af00      	add	r7, sp, #0
 80017a0:	f000 f8ca 	bl	8001938 <HAL_IncTick>
 80017a4:	46c0      	nop			; (mov r8, r8)
 80017a6:	46bd      	mov	sp, r7
 80017a8:	bd80      	pop	{r7, pc}
	...

080017ac <DMA1_Channel4_5_IRQHandler>:
 80017ac:	b580      	push	{r7, lr}
 80017ae:	af00      	add	r7, sp, #0
 80017b0:	4b03      	ldr	r3, [pc, #12]	; (80017c0 <DMA1_Channel4_5_IRQHandler+0x14>)
 80017b2:	0018      	movs	r0, r3
 80017b4:	f000 faa3 	bl	8001cfe <HAL_DMA_IRQHandler>
 80017b8:	46c0      	nop			; (mov r8, r8)
 80017ba:	46bd      	mov	sp, r7
 80017bc:	bd80      	pop	{r7, pc}
 80017be:	46c0      	nop			; (mov r8, r8)
 80017c0:	20000170 	.word	0x20000170

080017c4 <USART2_IRQHandler>:
 80017c4:	b580      	push	{r7, lr}
 80017c6:	af00      	add	r7, sp, #0
 80017c8:	4b03      	ldr	r3, [pc, #12]	; (80017d8 <USART2_IRQHandler+0x14>)
 80017ca:	0018      	movs	r0, r3
 80017cc:	f002 f928 	bl	8003a20 <HAL_UART_IRQHandler>
 80017d0:	46c0      	nop			; (mov r8, r8)
 80017d2:	46bd      	mov	sp, r7
 80017d4:	bd80      	pop	{r7, pc}
 80017d6:	46c0      	nop			; (mov r8, r8)
 80017d8:	200000ec 	.word	0x200000ec

080017dc <_sbrk>:
 80017dc:	b580      	push	{r7, lr}
 80017de:	b086      	sub	sp, #24
 80017e0:	af00      	add	r7, sp, #0
 80017e2:	6078      	str	r0, [r7, #4]
 80017e4:	4a14      	ldr	r2, [pc, #80]	; (8001838 <_sbrk+0x5c>)
 80017e6:	4b15      	ldr	r3, [pc, #84]	; (800183c <_sbrk+0x60>)
 80017e8:	1ad3      	subs	r3, r2, r3
 80017ea:	617b      	str	r3, [r7, #20]
 80017ec:	697b      	ldr	r3, [r7, #20]
 80017ee:	613b      	str	r3, [r7, #16]
 80017f0:	4b13      	ldr	r3, [pc, #76]	; (8001840 <_sbrk+0x64>)
 80017f2:	681b      	ldr	r3, [r3, #0]
 80017f4:	2b00      	cmp	r3, #0
 80017f6:	d102      	bne.n	80017fe <_sbrk+0x22>
 80017f8:	4b11      	ldr	r3, [pc, #68]	; (8001840 <_sbrk+0x64>)
 80017fa:	4a12      	ldr	r2, [pc, #72]	; (8001844 <_sbrk+0x68>)
 80017fc:	601a      	str	r2, [r3, #0]
 80017fe:	4b10      	ldr	r3, [pc, #64]	; (8001840 <_sbrk+0x64>)
 8001800:	681a      	ldr	r2, [r3, #0]
 8001802:	687b      	ldr	r3, [r7, #4]
 8001804:	18d3      	adds	r3, r2, r3
 8001806:	693a      	ldr	r2, [r7, #16]
 8001808:	429a      	cmp	r2, r3
 800180a:	d207      	bcs.n	800181c <_sbrk+0x40>
 800180c:	f002 ffa8 	bl	8004760 <__errno>
 8001810:	0003      	movs	r3, r0
 8001812:	220c      	movs	r2, #12
 8001814:	601a      	str	r2, [r3, #0]
 8001816:	2301      	movs	r3, #1
 8001818:	425b      	negs	r3, r3
 800181a:	e009      	b.n	8001830 <_sbrk+0x54>
 800181c:	4b08      	ldr	r3, [pc, #32]	; (8001840 <_sbrk+0x64>)
 800181e:	681b      	ldr	r3, [r3, #0]
 8001820:	60fb      	str	r3, [r7, #12]
 8001822:	4b07      	ldr	r3, [pc, #28]	; (8001840 <_sbrk+0x64>)
 8001824:	681a      	ldr	r2, [r3, #0]
 8001826:	687b      	ldr	r3, [r7, #4]
 8001828:	18d2      	adds	r2, r2, r3
 800182a:	4b05      	ldr	r3, [pc, #20]	; (8001840 <_sbrk+0x64>)
 800182c:	601a      	str	r2, [r3, #0]
 800182e:	68fb      	ldr	r3, [r7, #12]
 8001830:	0018      	movs	r0, r3
 8001832:	46bd      	mov	sp, r7
 8001834:	b006      	add	sp, #24
 8001836:	bd80      	pop	{r7, pc}
 8001838:	20002000 	.word	0x20002000
 800183c:	00000400 	.word	0x00000400
 8001840:	20000214 	.word	0x20000214
 8001844:	20000230 	.word	0x20000230

08001848 <SystemInit>:
 8001848:	b580      	push	{r7, lr}
 800184a:	af00      	add	r7, sp, #0
 800184c:	46c0      	nop			; (mov r8, r8)
 800184e:	46bd      	mov	sp, r7
 8001850:	bd80      	pop	{r7, pc}
	...

08001854 <Reset_Handler>:
 8001854:	480d      	ldr	r0, [pc, #52]	; (800188c <LoopForever+0x2>)
 8001856:	4685      	mov	sp, r0
 8001858:	480d      	ldr	r0, [pc, #52]	; (8001890 <LoopForever+0x6>)
 800185a:	490e      	ldr	r1, [pc, #56]	; (8001894 <LoopForever+0xa>)
 800185c:	4a0e      	ldr	r2, [pc, #56]	; (8001898 <LoopForever+0xe>)
 800185e:	2300      	movs	r3, #0
 8001860:	e002      	b.n	8001868 <LoopCopyDataInit>

08001862 <CopyDataInit>:
 8001862:	58d4      	ldr	r4, [r2, r3]
 8001864:	50c4      	str	r4, [r0, r3]
 8001866:	3304      	adds	r3, #4

08001868 <LoopCopyDataInit>:
 8001868:	18c4      	adds	r4, r0, r3
 800186a:	428c      	cmp	r4, r1
 800186c:	d3f9      	bcc.n	8001862 <CopyDataInit>
 800186e:	4a0b      	ldr	r2, [pc, #44]	; (800189c <LoopForever+0x12>)
 8001870:	4c0b      	ldr	r4, [pc, #44]	; (80018a0 <LoopForever+0x16>)
 8001872:	2300      	movs	r3, #0
 8001874:	e001      	b.n	800187a <LoopFillZerobss>

08001876 <FillZerobss>:
 8001876:	6013      	str	r3, [r2, #0]
 8001878:	3204      	adds	r2, #4

0800187a <LoopFillZerobss>:
 800187a:	42a2      	cmp	r2, r4
 800187c:	d3fb      	bcc.n	8001876 <FillZerobss>
 800187e:	f7ff ffe3 	bl	8001848 <SystemInit>
 8001882:	f002 ff73 	bl	800476c <__libc_init_array>
 8001886:	f7ff f9d3 	bl	8000c30 <main>

0800188a <LoopForever>:
 800188a:	e7fe      	b.n	800188a <LoopForever>
 800188c:	20002000 	.word	0x20002000
 8001890:	20000000 	.word	0x20000000
 8001894:	20000084 	.word	0x20000084
 8001898:	080051d0 	.word	0x080051d0
 800189c:	20000084 	.word	0x20000084
 80018a0:	2000022c 	.word	0x2000022c

080018a4 <ADC1_COMP_IRQHandler>:
 80018a4:	e7fe      	b.n	80018a4 <ADC1_COMP_IRQHandler>
	...

080018a8 <HAL_Init>:
 80018a8:	b580      	push	{r7, lr}
 80018aa:	af00      	add	r7, sp, #0
 80018ac:	4b07      	ldr	r3, [pc, #28]	; (80018cc <HAL_Init+0x24>)
 80018ae:	681a      	ldr	r2, [r3, #0]
 80018b0:	4b06      	ldr	r3, [pc, #24]	; (80018cc <HAL_Init+0x24>)
 80018b2:	2110      	movs	r1, #16
 80018b4:	430a      	orrs	r2, r1
 80018b6:	601a      	str	r2, [r3, #0]
 80018b8:	2000      	movs	r0, #0
 80018ba:	f000 f809 	bl	80018d0 <HAL_InitTick>
 80018be:	f7ff fe6d 	bl	800159c <HAL_MspInit>
 80018c2:	2300      	movs	r3, #0
 80018c4:	0018      	movs	r0, r3
 80018c6:	46bd      	mov	sp, r7
 80018c8:	bd80      	pop	{r7, pc}
 80018ca:	46c0      	nop			; (mov r8, r8)
 80018cc:	40022000 	.word	0x40022000

080018d0 <HAL_InitTick>:
 80018d0:	b590      	push	{r4, r7, lr}
 80018d2:	b083      	sub	sp, #12
 80018d4:	af00      	add	r7, sp, #0
 80018d6:	6078      	str	r0, [r7, #4]
 80018d8:	4b14      	ldr	r3, [pc, #80]	; (800192c <HAL_InitTick+0x5c>)
 80018da:	681c      	ldr	r4, [r3, #0]
 80018dc:	4b14      	ldr	r3, [pc, #80]	; (8001930 <HAL_InitTick+0x60>)
 80018de:	781b      	ldrb	r3, [r3, #0]
 80018e0:	0019      	movs	r1, r3
 80018e2:	23fa      	movs	r3, #250	; 0xfa
 80018e4:	0098      	lsls	r0, r3, #2
 80018e6:	f7fe fc19 	bl	800011c <__udivsi3>
 80018ea:	0003      	movs	r3, r0
 80018ec:	0019      	movs	r1, r3
 80018ee:	0020      	movs	r0, r4
 80018f0:	f7fe fc14 	bl	800011c <__udivsi3>
 80018f4:	0003      	movs	r3, r0
 80018f6:	0018      	movs	r0, r3
 80018f8:	f000 f92f 	bl	8001b5a <HAL_SYSTICK_Config>
 80018fc:	1e03      	subs	r3, r0, #0
 80018fe:	d001      	beq.n	8001904 <HAL_InitTick+0x34>
 8001900:	2301      	movs	r3, #1
 8001902:	e00f      	b.n	8001924 <HAL_InitTick+0x54>
 8001904:	687b      	ldr	r3, [r7, #4]
 8001906:	2b03      	cmp	r3, #3
 8001908:	d80b      	bhi.n	8001922 <HAL_InitTick+0x52>
 800190a:	6879      	ldr	r1, [r7, #4]
 800190c:	2301      	movs	r3, #1
 800190e:	425b      	negs	r3, r3
 8001910:	2200      	movs	r2, #0
 8001912:	0018      	movs	r0, r3
 8001914:	f000 f8fc 	bl	8001b10 <HAL_NVIC_SetPriority>
 8001918:	4b06      	ldr	r3, [pc, #24]	; (8001934 <HAL_InitTick+0x64>)
 800191a:	687a      	ldr	r2, [r7, #4]
 800191c:	601a      	str	r2, [r3, #0]
 800191e:	2300      	movs	r3, #0
 8001920:	e000      	b.n	8001924 <HAL_InitTick+0x54>
 8001922:	2301      	movs	r3, #1
 8001924:	0018      	movs	r0, r3
 8001926:	46bd      	mov	sp, r7
 8001928:	b003      	add	sp, #12
 800192a:	bd90      	pop	{r4, r7, pc}
 800192c:	20000014 	.word	0x20000014
 8001930:	2000001c 	.word	0x2000001c
 8001934:	20000018 	.word	0x20000018

08001938 <HAL_IncTick>:
 8001938:	b580      	push	{r7, lr}
 800193a:	af00      	add	r7, sp, #0
 800193c:	4b05      	ldr	r3, [pc, #20]	; (8001954 <HAL_IncTick+0x1c>)
 800193e:	781b      	ldrb	r3, [r3, #0]
 8001940:	001a      	movs	r2, r3
 8001942:	4b05      	ldr	r3, [pc, #20]	; (8001958 <HAL_IncTick+0x20>)
 8001944:	681b      	ldr	r3, [r3, #0]
 8001946:	18d2      	adds	r2, r2, r3
 8001948:	4b03      	ldr	r3, [pc, #12]	; (8001958 <HAL_IncTick+0x20>)
 800194a:	601a      	str	r2, [r3, #0]
 800194c:	46c0      	nop			; (mov r8, r8)
 800194e:	46bd      	mov	sp, r7
 8001950:	bd80      	pop	{r7, pc}
 8001952:	46c0      	nop			; (mov r8, r8)
 8001954:	2000001c 	.word	0x2000001c
 8001958:	20000218 	.word	0x20000218

0800195c <HAL_GetTick>:
 800195c:	b580      	push	{r7, lr}
 800195e:	af00      	add	r7, sp, #0
 8001960:	4b02      	ldr	r3, [pc, #8]	; (800196c <HAL_GetTick+0x10>)
 8001962:	681b      	ldr	r3, [r3, #0]
 8001964:	0018      	movs	r0, r3
 8001966:	46bd      	mov	sp, r7
 8001968:	bd80      	pop	{r7, pc}
 800196a:	46c0      	nop			; (mov r8, r8)
 800196c:	20000218 	.word	0x20000218

08001970 <HAL_Delay>:
 8001970:	b580      	push	{r7, lr}
 8001972:	b084      	sub	sp, #16
 8001974:	af00      	add	r7, sp, #0
 8001976:	6078      	str	r0, [r7, #4]
 8001978:	f7ff fff0 	bl	800195c <HAL_GetTick>
 800197c:	0003      	movs	r3, r0
 800197e:	60bb      	str	r3, [r7, #8]
 8001980:	687b      	ldr	r3, [r7, #4]
 8001982:	60fb      	str	r3, [r7, #12]
 8001984:	68fb      	ldr	r3, [r7, #12]
 8001986:	3301      	adds	r3, #1
 8001988:	d005      	beq.n	8001996 <HAL_Delay+0x26>
 800198a:	4b0a      	ldr	r3, [pc, #40]	; (80019b4 <HAL_Delay+0x44>)
 800198c:	781b      	ldrb	r3, [r3, #0]
 800198e:	001a      	movs	r2, r3
 8001990:	68fb      	ldr	r3, [r7, #12]
 8001992:	189b      	adds	r3, r3, r2
 8001994:	60fb      	str	r3, [r7, #12]
 8001996:	46c0      	nop			; (mov r8, r8)
 8001998:	f7ff ffe0 	bl	800195c <HAL_GetTick>
 800199c:	0002      	movs	r2, r0
 800199e:	68bb      	ldr	r3, [r7, #8]
 80019a0:	1ad3      	subs	r3, r2, r3
 80019a2:	68fa      	ldr	r2, [r7, #12]
 80019a4:	429a      	cmp	r2, r3
 80019a6:	d8f7      	bhi.n	8001998 <HAL_Delay+0x28>
 80019a8:	46c0      	nop			; (mov r8, r8)
 80019aa:	46c0      	nop			; (mov r8, r8)
 80019ac:	46bd      	mov	sp, r7
 80019ae:	b004      	add	sp, #16
 80019b0:	bd80      	pop	{r7, pc}
 80019b2:	46c0      	nop			; (mov r8, r8)
 80019b4:	2000001c 	.word	0x2000001c

080019b8 <__NVIC_EnableIRQ>:
 80019b8:	b580      	push	{r7, lr}
 80019ba:	b082      	sub	sp, #8
 80019bc:	af00      	add	r7, sp, #0
 80019be:	0002      	movs	r2, r0
 80019c0:	1dfb      	adds	r3, r7, #7
 80019c2:	701a      	strb	r2, [r3, #0]
 80019c4:	1dfb      	adds	r3, r7, #7
 80019c6:	781b      	ldrb	r3, [r3, #0]
 80019c8:	2b7f      	cmp	r3, #127	; 0x7f
 80019ca:	d809      	bhi.n	80019e0 <__NVIC_EnableIRQ+0x28>
 80019cc:	1dfb      	adds	r3, r7, #7
 80019ce:	781b      	ldrb	r3, [r3, #0]
 80019d0:	001a      	movs	r2, r3
 80019d2:	231f      	movs	r3, #31
 80019d4:	401a      	ands	r2, r3
 80019d6:	4b04      	ldr	r3, [pc, #16]	; (80019e8 <__NVIC_EnableIRQ+0x30>)
 80019d8:	2101      	movs	r1, #1
 80019da:	4091      	lsls	r1, r2
 80019dc:	000a      	movs	r2, r1
 80019de:	601a      	str	r2, [r3, #0]
 80019e0:	46c0      	nop			; (mov r8, r8)
 80019e2:	46bd      	mov	sp, r7
 80019e4:	b002      	add	sp, #8
 80019e6:	bd80      	pop	{r7, pc}
 80019e8:	e000e100 	.word	0xe000e100

080019ec <__NVIC_SetPriority>:
 80019ec:	b590      	push	{r4, r7, lr}
 80019ee:	b083      	sub	sp, #12
 80019f0:	af00      	add	r7, sp, #0
 80019f2:	0002      	movs	r2, r0
 80019f4:	6039      	str	r1, [r7, #0]
 80019f6:	1dfb      	adds	r3, r7, #7
 80019f8:	701a      	strb	r2, [r3, #0]
 80019fa:	1dfb      	adds	r3, r7, #7
 80019fc:	781b      	ldrb	r3, [r3, #0]
 80019fe:	2b7f      	cmp	r3, #127	; 0x7f
 8001a00:	d828      	bhi.n	8001a54 <__NVIC_SetPriority+0x68>
 8001a02:	4a2f      	ldr	r2, [pc, #188]	; (8001ac0 <__NVIC_SetPriority+0xd4>)
 8001a04:	1dfb      	adds	r3, r7, #7
 8001a06:	781b      	ldrb	r3, [r3, #0]
 8001a08:	b25b      	sxtb	r3, r3
 8001a0a:	089b      	lsrs	r3, r3, #2
 8001a0c:	33c0      	adds	r3, #192	; 0xc0
 8001a0e:	009b      	lsls	r3, r3, #2
 8001a10:	589b      	ldr	r3, [r3, r2]
 8001a12:	1dfa      	adds	r2, r7, #7
 8001a14:	7812      	ldrb	r2, [r2, #0]
 8001a16:	0011      	movs	r1, r2
 8001a18:	2203      	movs	r2, #3
 8001a1a:	400a      	ands	r2, r1
 8001a1c:	00d2      	lsls	r2, r2, #3
 8001a1e:	21ff      	movs	r1, #255	; 0xff
 8001a20:	4091      	lsls	r1, r2
 8001a22:	000a      	movs	r2, r1
 8001a24:	43d2      	mvns	r2, r2
 8001a26:	401a      	ands	r2, r3
 8001a28:	0011      	movs	r1, r2
 8001a2a:	683b      	ldr	r3, [r7, #0]
 8001a2c:	019b      	lsls	r3, r3, #6
 8001a2e:	22ff      	movs	r2, #255	; 0xff
 8001a30:	401a      	ands	r2, r3
 8001a32:	1dfb      	adds	r3, r7, #7
 8001a34:	781b      	ldrb	r3, [r3, #0]
 8001a36:	0018      	movs	r0, r3
 8001a38:	2303      	movs	r3, #3
 8001a3a:	4003      	ands	r3, r0
 8001a3c:	00db      	lsls	r3, r3, #3
 8001a3e:	409a      	lsls	r2, r3
 8001a40:	481f      	ldr	r0, [pc, #124]	; (8001ac0 <__NVIC_SetPriority+0xd4>)
 8001a42:	1dfb      	adds	r3, r7, #7
 8001a44:	781b      	ldrb	r3, [r3, #0]
 8001a46:	b25b      	sxtb	r3, r3
 8001a48:	089b      	lsrs	r3, r3, #2
 8001a4a:	430a      	orrs	r2, r1
 8001a4c:	33c0      	adds	r3, #192	; 0xc0
 8001a4e:	009b      	lsls	r3, r3, #2
 8001a50:	501a      	str	r2, [r3, r0]
 8001a52:	e031      	b.n	8001ab8 <__NVIC_SetPriority+0xcc>
 8001a54:	4a1b      	ldr	r2, [pc, #108]	; (8001ac4 <__NVIC_SetPriority+0xd8>)
 8001a56:	1dfb      	adds	r3, r7, #7
 8001a58:	781b      	ldrb	r3, [r3, #0]
 8001a5a:	0019      	movs	r1, r3
 8001a5c:	230f      	movs	r3, #15
 8001a5e:	400b      	ands	r3, r1
 8001a60:	3b08      	subs	r3, #8
 8001a62:	089b      	lsrs	r3, r3, #2
 8001a64:	3306      	adds	r3, #6
 8001a66:	009b      	lsls	r3, r3, #2
 8001a68:	18d3      	adds	r3, r2, r3
 8001a6a:	3304      	adds	r3, #4
 8001a6c:	681b      	ldr	r3, [r3, #0]
 8001a6e:	1dfa      	adds	r2, r7, #7
 8001a70:	7812      	ldrb	r2, [r2, #0]
 8001a72:	0011      	movs	r1, r2
 8001a74:	2203      	movs	r2, #3
 8001a76:	400a      	ands	r2, r1
 8001a78:	00d2      	lsls	r2, r2, #3
 8001a7a:	21ff      	movs	r1, #255	; 0xff
 8001a7c:	4091      	lsls	r1, r2
 8001a7e:	000a      	movs	r2, r1
 8001a80:	43d2      	mvns	r2, r2
 8001a82:	401a      	ands	r2, r3
 8001a84:	0011      	movs	r1, r2
 8001a86:	683b      	ldr	r3, [r7, #0]
 8001a88:	019b      	lsls	r3, r3, #6
 8001a8a:	22ff      	movs	r2, #255	; 0xff
 8001a8c:	401a      	ands	r2, r3
 8001a8e:	1dfb      	adds	r3, r7, #7
 8001a90:	781b      	ldrb	r3, [r3, #0]
 8001a92:	0018      	movs	r0, r3
 8001a94:	2303      	movs	r3, #3
 8001a96:	4003      	ands	r3, r0
 8001a98:	00db      	lsls	r3, r3, #3
 8001a9a:	409a      	lsls	r2, r3
 8001a9c:	4809      	ldr	r0, [pc, #36]	; (8001ac4 <__NVIC_SetPriority+0xd8>)
 8001a9e:	1dfb      	adds	r3, r7, #7
 8001aa0:	781b      	ldrb	r3, [r3, #0]
 8001aa2:	001c      	movs	r4, r3
 8001aa4:	230f      	movs	r3, #15
 8001aa6:	4023      	ands	r3, r4
 8001aa8:	3b08      	subs	r3, #8
 8001aaa:	089b      	lsrs	r3, r3, #2
 8001aac:	430a      	orrs	r2, r1
 8001aae:	3306      	adds	r3, #6
 8001ab0:	009b      	lsls	r3, r3, #2
 8001ab2:	18c3      	adds	r3, r0, r3
 8001ab4:	3304      	adds	r3, #4
 8001ab6:	601a      	str	r2, [r3, #0]
 8001ab8:	46c0      	nop			; (mov r8, r8)
 8001aba:	46bd      	mov	sp, r7
 8001abc:	b003      	add	sp, #12
 8001abe:	bd90      	pop	{r4, r7, pc}
 8001ac0:	e000e100 	.word	0xe000e100
 8001ac4:	e000ed00 	.word	0xe000ed00

08001ac8 <SysTick_Config>:
 8001ac8:	b580      	push	{r7, lr}
 8001aca:	b082      	sub	sp, #8
 8001acc:	af00      	add	r7, sp, #0
 8001ace:	6078      	str	r0, [r7, #4]
 8001ad0:	687b      	ldr	r3, [r7, #4]
 8001ad2:	1e5a      	subs	r2, r3, #1
 8001ad4:	2380      	movs	r3, #128	; 0x80
 8001ad6:	045b      	lsls	r3, r3, #17
 8001ad8:	429a      	cmp	r2, r3
 8001ada:	d301      	bcc.n	8001ae0 <SysTick_Config+0x18>
 8001adc:	2301      	movs	r3, #1
 8001ade:	e010      	b.n	8001b02 <SysTick_Config+0x3a>
 8001ae0:	4b0a      	ldr	r3, [pc, #40]	; (8001b0c <SysTick_Config+0x44>)
 8001ae2:	687a      	ldr	r2, [r7, #4]
 8001ae4:	3a01      	subs	r2, #1
 8001ae6:	605a      	str	r2, [r3, #4]
 8001ae8:	2301      	movs	r3, #1
 8001aea:	425b      	negs	r3, r3
 8001aec:	2103      	movs	r1, #3
 8001aee:	0018      	movs	r0, r3
 8001af0:	f7ff ff7c 	bl	80019ec <__NVIC_SetPriority>
 8001af4:	4b05      	ldr	r3, [pc, #20]	; (8001b0c <SysTick_Config+0x44>)
 8001af6:	2200      	movs	r2, #0
 8001af8:	609a      	str	r2, [r3, #8]
 8001afa:	4b04      	ldr	r3, [pc, #16]	; (8001b0c <SysTick_Config+0x44>)
 8001afc:	2207      	movs	r2, #7
 8001afe:	601a      	str	r2, [r3, #0]
 8001b00:	2300      	movs	r3, #0
 8001b02:	0018      	movs	r0, r3
 8001b04:	46bd      	mov	sp, r7
 8001b06:	b002      	add	sp, #8
 8001b08:	bd80      	pop	{r7, pc}
 8001b0a:	46c0      	nop			; (mov r8, r8)
 8001b0c:	e000e010 	.word	0xe000e010

08001b10 <HAL_NVIC_SetPriority>:
 8001b10:	b580      	push	{r7, lr}
 8001b12:	b084      	sub	sp, #16
 8001b14:	af00      	add	r7, sp, #0
 8001b16:	60b9      	str	r1, [r7, #8]
 8001b18:	607a      	str	r2, [r7, #4]
 8001b1a:	210f      	movs	r1, #15
 8001b1c:	187b      	adds	r3, r7, r1
 8001b1e:	1c02      	adds	r2, r0, #0
 8001b20:	701a      	strb	r2, [r3, #0]
 8001b22:	68ba      	ldr	r2, [r7, #8]
 8001b24:	187b      	adds	r3, r7, r1
 8001b26:	781b      	ldrb	r3, [r3, #0]
 8001b28:	b25b      	sxtb	r3, r3
 8001b2a:	0011      	movs	r1, r2
 8001b2c:	0018      	movs	r0, r3
 8001b2e:	f7ff ff5d 	bl	80019ec <__NVIC_SetPriority>
 8001b32:	46c0      	nop			; (mov r8, r8)
 8001b34:	46bd      	mov	sp, r7
 8001b36:	b004      	add	sp, #16
 8001b38:	bd80      	pop	{r7, pc}

08001b3a <HAL_NVIC_EnableIRQ>:
 8001b3a:	b580      	push	{r7, lr}
 8001b3c:	b082      	sub	sp, #8
 8001b3e:	af00      	add	r7, sp, #0
 8001b40:	0002      	movs	r2, r0
 8001b42:	1dfb      	adds	r3, r7, #7
 8001b44:	701a      	strb	r2, [r3, #0]
 8001b46:	1dfb      	adds	r3, r7, #7
 8001b48:	781b      	ldrb	r3, [r3, #0]
 8001b4a:	b25b      	sxtb	r3, r3
 8001b4c:	0018      	movs	r0, r3
 8001b4e:	f7ff ff33 	bl	80019b8 <__NVIC_EnableIRQ>
 8001b52:	46c0      	nop			; (mov r8, r8)
 8001b54:	46bd      	mov	sp, r7
 8001b56:	b002      	add	sp, #8
 8001b58:	bd80      	pop	{r7, pc}

08001b5a <HAL_SYSTICK_Config>:
 8001b5a:	b580      	push	{r7, lr}
 8001b5c:	b082      	sub	sp, #8
 8001b5e:	af00      	add	r7, sp, #0
 8001b60:	6078      	str	r0, [r7, #4]
 8001b62:	687b      	ldr	r3, [r7, #4]
 8001b64:	0018      	movs	r0, r3
 8001b66:	f7ff ffaf 	bl	8001ac8 <SysTick_Config>
 8001b6a:	0003      	movs	r3, r0
 8001b6c:	0018      	movs	r0, r3
 8001b6e:	46bd      	mov	sp, r7
 8001b70:	b002      	add	sp, #8
 8001b72:	bd80      	pop	{r7, pc}

08001b74 <HAL_DMA_Init>:
 8001b74:	b580      	push	{r7, lr}
 8001b76:	b084      	sub	sp, #16
 8001b78:	af00      	add	r7, sp, #0
 8001b7a:	6078      	str	r0, [r7, #4]
 8001b7c:	2300      	movs	r3, #0
 8001b7e:	60fb      	str	r3, [r7, #12]
 8001b80:	687b      	ldr	r3, [r7, #4]
 8001b82:	2b00      	cmp	r3, #0
 8001b84:	d101      	bne.n	8001b8a <HAL_DMA_Init+0x16>
 8001b86:	2301      	movs	r3, #1
 8001b88:	e036      	b.n	8001bf8 <HAL_DMA_Init+0x84>
 8001b8a:	687b      	ldr	r3, [r7, #4]
 8001b8c:	2221      	movs	r2, #33	; 0x21
 8001b8e:	2102      	movs	r1, #2
 8001b90:	5499      	strb	r1, [r3, r2]
 8001b92:	687b      	ldr	r3, [r7, #4]
 8001b94:	681b      	ldr	r3, [r3, #0]
 8001b96:	681b      	ldr	r3, [r3, #0]
 8001b98:	60fb      	str	r3, [r7, #12]
 8001b9a:	68fb      	ldr	r3, [r7, #12]
 8001b9c:	4a18      	ldr	r2, [pc, #96]	; (8001c00 <HAL_DMA_Init+0x8c>)
 8001b9e:	4013      	ands	r3, r2
 8001ba0:	60fb      	str	r3, [r7, #12]
 8001ba2:	687b      	ldr	r3, [r7, #4]
 8001ba4:	685a      	ldr	r2, [r3, #4]
 8001ba6:	687b      	ldr	r3, [r7, #4]
 8001ba8:	689b      	ldr	r3, [r3, #8]
 8001baa:	431a      	orrs	r2, r3
 8001bac:	687b      	ldr	r3, [r7, #4]
 8001bae:	68db      	ldr	r3, [r3, #12]
 8001bb0:	431a      	orrs	r2, r3
 8001bb2:	687b      	ldr	r3, [r7, #4]
 8001bb4:	691b      	ldr	r3, [r3, #16]
 8001bb6:	431a      	orrs	r2, r3
 8001bb8:	687b      	ldr	r3, [r7, #4]
 8001bba:	695b      	ldr	r3, [r3, #20]
 8001bbc:	431a      	orrs	r2, r3
 8001bbe:	687b      	ldr	r3, [r7, #4]
 8001bc0:	699b      	ldr	r3, [r3, #24]
 8001bc2:	431a      	orrs	r2, r3
 8001bc4:	687b      	ldr	r3, [r7, #4]
 8001bc6:	69db      	ldr	r3, [r3, #28]
 8001bc8:	4313      	orrs	r3, r2
 8001bca:	68fa      	ldr	r2, [r7, #12]
 8001bcc:	4313      	orrs	r3, r2
 8001bce:	60fb      	str	r3, [r7, #12]
 8001bd0:	687b      	ldr	r3, [r7, #4]
 8001bd2:	681b      	ldr	r3, [r3, #0]
 8001bd4:	68fa      	ldr	r2, [r7, #12]
 8001bd6:	601a      	str	r2, [r3, #0]
 8001bd8:	687b      	ldr	r3, [r7, #4]
 8001bda:	0018      	movs	r0, r3
 8001bdc:	f000 f932 	bl	8001e44 <DMA_CalcBaseAndBitshift>
 8001be0:	687b      	ldr	r3, [r7, #4]
 8001be2:	2200      	movs	r2, #0
 8001be4:	639a      	str	r2, [r3, #56]	; 0x38
 8001be6:	687b      	ldr	r3, [r7, #4]
 8001be8:	2221      	movs	r2, #33	; 0x21
 8001bea:	2101      	movs	r1, #1
 8001bec:	5499      	strb	r1, [r3, r2]
 8001bee:	687b      	ldr	r3, [r7, #4]
 8001bf0:	2220      	movs	r2, #32
 8001bf2:	2100      	movs	r1, #0
 8001bf4:	5499      	strb	r1, [r3, r2]
 8001bf6:	2300      	movs	r3, #0
 8001bf8:	0018      	movs	r0, r3
 8001bfa:	46bd      	mov	sp, r7
 8001bfc:	b004      	add	sp, #16
 8001bfe:	bd80      	pop	{r7, pc}
 8001c00:	ffffc00f 	.word	0xffffc00f

08001c04 <HAL_DMA_Abort>:
 8001c04:	b580      	push	{r7, lr}
 8001c06:	b082      	sub	sp, #8
 8001c08:	af00      	add	r7, sp, #0
 8001c0a:	6078      	str	r0, [r7, #4]
 8001c0c:	687b      	ldr	r3, [r7, #4]
 8001c0e:	2221      	movs	r2, #33	; 0x21
 8001c10:	5c9b      	ldrb	r3, [r3, r2]
 8001c12:	b2db      	uxtb	r3, r3
 8001c14:	2b02      	cmp	r3, #2
 8001c16:	d008      	beq.n	8001c2a <HAL_DMA_Abort+0x26>
 8001c18:	687b      	ldr	r3, [r7, #4]
 8001c1a:	2204      	movs	r2, #4
 8001c1c:	639a      	str	r2, [r3, #56]	; 0x38
 8001c1e:	687b      	ldr	r3, [r7, #4]
 8001c20:	2220      	movs	r2, #32
 8001c22:	2100      	movs	r1, #0
 8001c24:	5499      	strb	r1, [r3, r2]
 8001c26:	2301      	movs	r3, #1
 8001c28:	e020      	b.n	8001c6c <HAL_DMA_Abort+0x68>
 8001c2a:	687b      	ldr	r3, [r7, #4]
 8001c2c:	681b      	ldr	r3, [r3, #0]
 8001c2e:	681a      	ldr	r2, [r3, #0]
 8001c30:	687b      	ldr	r3, [r7, #4]
 8001c32:	681b      	ldr	r3, [r3, #0]
 8001c34:	210e      	movs	r1, #14
 8001c36:	438a      	bics	r2, r1
 8001c38:	601a      	str	r2, [r3, #0]
 8001c3a:	687b      	ldr	r3, [r7, #4]
 8001c3c:	681b      	ldr	r3, [r3, #0]
 8001c3e:	681a      	ldr	r2, [r3, #0]
 8001c40:	687b      	ldr	r3, [r7, #4]
 8001c42:	681b      	ldr	r3, [r3, #0]
 8001c44:	2101      	movs	r1, #1
 8001c46:	438a      	bics	r2, r1
 8001c48:	601a      	str	r2, [r3, #0]
 8001c4a:	687b      	ldr	r3, [r7, #4]
 8001c4c:	6c1a      	ldr	r2, [r3, #64]	; 0x40
 8001c4e:	687b      	ldr	r3, [r7, #4]
 8001c50:	6bdb      	ldr	r3, [r3, #60]	; 0x3c
 8001c52:	2101      	movs	r1, #1
 8001c54:	4091      	lsls	r1, r2
 8001c56:	000a      	movs	r2, r1
 8001c58:	605a      	str	r2, [r3, #4]
 8001c5a:	687b      	ldr	r3, [r7, #4]
 8001c5c:	2221      	movs	r2, #33	; 0x21
 8001c5e:	2101      	movs	r1, #1
 8001c60:	5499      	strb	r1, [r3, r2]
 8001c62:	687b      	ldr	r3, [r7, #4]
 8001c64:	2220      	movs	r2, #32
 8001c66:	2100      	movs	r1, #0
 8001c68:	5499      	strb	r1, [r3, r2]
 8001c6a:	2300      	movs	r3, #0
 8001c6c:	0018      	movs	r0, r3
 8001c6e:	46bd      	mov	sp, r7
 8001c70:	b002      	add	sp, #8
 8001c72:	bd80      	pop	{r7, pc}

08001c74 <HAL_DMA_Abort_IT>:
 8001c74:	b580      	push	{r7, lr}
 8001c76:	b084      	sub	sp, #16
 8001c78:	af00      	add	r7, sp, #0
 8001c7a:	6078      	str	r0, [r7, #4]
 8001c7c:	210f      	movs	r1, #15
 8001c7e:	187b      	adds	r3, r7, r1
 8001c80:	2200      	movs	r2, #0
 8001c82:	701a      	strb	r2, [r3, #0]
 8001c84:	687b      	ldr	r3, [r7, #4]
 8001c86:	2221      	movs	r2, #33	; 0x21
 8001c88:	5c9b      	ldrb	r3, [r3, r2]
 8001c8a:	b2db      	uxtb	r3, r3
 8001c8c:	2b02      	cmp	r3, #2
 8001c8e:	d006      	beq.n	8001c9e <HAL_DMA_Abort_IT+0x2a>
 8001c90:	687b      	ldr	r3, [r7, #4]
 8001c92:	2204      	movs	r2, #4
 8001c94:	639a      	str	r2, [r3, #56]	; 0x38
 8001c96:	187b      	adds	r3, r7, r1
 8001c98:	2201      	movs	r2, #1
 8001c9a:	701a      	strb	r2, [r3, #0]
 8001c9c:	e028      	b.n	8001cf0 <HAL_DMA_Abort_IT+0x7c>
 8001c9e:	687b      	ldr	r3, [r7, #4]
 8001ca0:	681b      	ldr	r3, [r3, #0]
 8001ca2:	681a      	ldr	r2, [r3, #0]
 8001ca4:	687b      	ldr	r3, [r7, #4]
 8001ca6:	681b      	ldr	r3, [r3, #0]
 8001ca8:	210e      	movs	r1, #14
 8001caa:	438a      	bics	r2, r1
 8001cac:	601a      	str	r2, [r3, #0]
 8001cae:	687b      	ldr	r3, [r7, #4]
 8001cb0:	681b      	ldr	r3, [r3, #0]
 8001cb2:	681a      	ldr	r2, [r3, #0]
 8001cb4:	687b      	ldr	r3, [r7, #4]
 8001cb6:	681b      	ldr	r3, [r3, #0]
 8001cb8:	2101      	movs	r1, #1
 8001cba:	438a      	bics	r2, r1
 8001cbc:	601a      	str	r2, [r3, #0]
 8001cbe:	687b      	ldr	r3, [r7, #4]
 8001cc0:	6c1a      	ldr	r2, [r3, #64]	; 0x40
 8001cc2:	687b      	ldr	r3, [r7, #4]
 8001cc4:	6bdb      	ldr	r3, [r3, #60]	; 0x3c
 8001cc6:	2101      	movs	r1, #1
 8001cc8:	4091      	lsls	r1, r2
 8001cca:	000a      	movs	r2, r1
 8001ccc:	605a      	str	r2, [r3, #4]
 8001cce:	687b      	ldr	r3, [r7, #4]
 8001cd0:	2221      	movs	r2, #33	; 0x21
 8001cd2:	2101      	movs	r1, #1
 8001cd4:	5499      	strb	r1, [r3, r2]
 8001cd6:	687b      	ldr	r3, [r7, #4]
 8001cd8:	2220      	movs	r2, #32
 8001cda:	2100      	movs	r1, #0
 8001cdc:	5499      	strb	r1, [r3, r2]
 8001cde:	687b      	ldr	r3, [r7, #4]
 8001ce0:	6b5b      	ldr	r3, [r3, #52]	; 0x34
 8001ce2:	2b00      	cmp	r3, #0
 8001ce4:	d004      	beq.n	8001cf0 <HAL_DMA_Abort_IT+0x7c>
 8001ce6:	687b      	ldr	r3, [r7, #4]
 8001ce8:	6b5b      	ldr	r3, [r3, #52]	; 0x34
 8001cea:	687a      	ldr	r2, [r7, #4]
 8001cec:	0010      	movs	r0, r2
 8001cee:	4798      	blx	r3
 8001cf0:	230f      	movs	r3, #15
 8001cf2:	18fb      	adds	r3, r7, r3
 8001cf4:	781b      	ldrb	r3, [r3, #0]
 8001cf6:	0018      	movs	r0, r3
 8001cf8:	46bd      	mov	sp, r7
 8001cfa:	b004      	add	sp, #16
 8001cfc:	bd80      	pop	{r7, pc}

08001cfe <HAL_DMA_IRQHandler>:
 8001cfe:	b580      	push	{r7, lr}
 8001d00:	b084      	sub	sp, #16
 8001d02:	af00      	add	r7, sp, #0
 8001d04:	6078      	str	r0, [r7, #4]
 8001d06:	687b      	ldr	r3, [r7, #4]
 8001d08:	6bdb      	ldr	r3, [r3, #60]	; 0x3c
 8001d0a:	681b      	ldr	r3, [r3, #0]
 8001d0c:	60fb      	str	r3, [r7, #12]
 8001d0e:	687b      	ldr	r3, [r7, #4]
 8001d10:	681b      	ldr	r3, [r3, #0]
 8001d12:	681b      	ldr	r3, [r3, #0]
 8001d14:	60bb      	str	r3, [r7, #8]
 8001d16:	687b      	ldr	r3, [r7, #4]
 8001d18:	6c1b      	ldr	r3, [r3, #64]	; 0x40
 8001d1a:	2204      	movs	r2, #4
 8001d1c:	409a      	lsls	r2, r3
 8001d1e:	0013      	movs	r3, r2
 8001d20:	68fa      	ldr	r2, [r7, #12]
 8001d22:	4013      	ands	r3, r2
 8001d24:	d024      	beq.n	8001d70 <HAL_DMA_IRQHandler+0x72>
 8001d26:	68bb      	ldr	r3, [r7, #8]
 8001d28:	2204      	movs	r2, #4
 8001d2a:	4013      	ands	r3, r2
 8001d2c:	d020      	beq.n	8001d70 <HAL_DMA_IRQHandler+0x72>
 8001d2e:	687b      	ldr	r3, [r7, #4]
 8001d30:	681b      	ldr	r3, [r3, #0]
 8001d32:	681b      	ldr	r3, [r3, #0]
 8001d34:	2220      	movs	r2, #32
 8001d36:	4013      	ands	r3, r2
 8001d38:	d107      	bne.n	8001d4a <HAL_DMA_IRQHandler+0x4c>
 8001d3a:	687b      	ldr	r3, [r7, #4]
 8001d3c:	681b      	ldr	r3, [r3, #0]
 8001d3e:	681a      	ldr	r2, [r3, #0]
 8001d40:	687b      	ldr	r3, [r7, #4]
 8001d42:	681b      	ldr	r3, [r3, #0]
 8001d44:	2104      	movs	r1, #4
 8001d46:	438a      	bics	r2, r1
 8001d48:	601a      	str	r2, [r3, #0]
 8001d4a:	687b      	ldr	r3, [r7, #4]
 8001d4c:	6c1a      	ldr	r2, [r3, #64]	; 0x40
 8001d4e:	687b      	ldr	r3, [r7, #4]
 8001d50:	6bdb      	ldr	r3, [r3, #60]	; 0x3c
 8001d52:	2104      	movs	r1, #4
 8001d54:	4091      	lsls	r1, r2
 8001d56:	000a      	movs	r2, r1
 8001d58:	605a      	str	r2, [r3, #4]
 8001d5a:	687b      	ldr	r3, [r7, #4]
 8001d5c:	6adb      	ldr	r3, [r3, #44]	; 0x2c
 8001d5e:	2b00      	cmp	r3, #0
 8001d60:	d100      	bne.n	8001d64 <HAL_DMA_IRQHandler+0x66>
 8001d62:	e06a      	b.n	8001e3a <HAL_DMA_IRQHandler+0x13c>
 8001d64:	687b      	ldr	r3, [r7, #4]
 8001d66:	6adb      	ldr	r3, [r3, #44]	; 0x2c
 8001d68:	687a      	ldr	r2, [r7, #4]
 8001d6a:	0010      	movs	r0, r2
 8001d6c:	4798      	blx	r3
 8001d6e:	e064      	b.n	8001e3a <HAL_DMA_IRQHandler+0x13c>
 8001d70:	687b      	ldr	r3, [r7, #4]
 8001d72:	6c1b      	ldr	r3, [r3, #64]	; 0x40
 8001d74:	2202      	movs	r2, #2
 8001d76:	409a      	lsls	r2, r3
 8001d78:	0013      	movs	r3, r2
 8001d7a:	68fa      	ldr	r2, [r7, #12]
 8001d7c:	4013      	ands	r3, r2
 8001d7e:	d02b      	beq.n	8001dd8 <HAL_DMA_IRQHandler+0xda>
 8001d80:	68bb      	ldr	r3, [r7, #8]
 8001d82:	2202      	movs	r2, #2
 8001d84:	4013      	ands	r3, r2
 8001d86:	d027      	beq.n	8001dd8 <HAL_DMA_IRQHandler+0xda>
 8001d88:	687b      	ldr	r3, [r7, #4]
 8001d8a:	681b      	ldr	r3, [r3, #0]
 8001d8c:	681b      	ldr	r3, [r3, #0]
 8001d8e:	2220      	movs	r2, #32
 8001d90:	4013      	ands	r3, r2
 8001d92:	d10b      	bne.n	8001dac <HAL_DMA_IRQHandler+0xae>
 8001d94:	687b      	ldr	r3, [r7, #4]
 8001d96:	681b      	ldr	r3, [r3, #0]
 8001d98:	681a      	ldr	r2, [r3, #0]
 8001d9a:	687b      	ldr	r3, [r7, #4]
 8001d9c:	681b      	ldr	r3, [r3, #0]
 8001d9e:	210a      	movs	r1, #10
 8001da0:	438a      	bics	r2, r1
 8001da2:	601a      	str	r2, [r3, #0]
 8001da4:	687b      	ldr	r3, [r7, #4]
 8001da6:	2221      	movs	r2, #33	; 0x21
 8001da8:	2101      	movs	r1, #1
 8001daa:	5499      	strb	r1, [r3, r2]
 8001dac:	687b      	ldr	r3, [r7, #4]
 8001dae:	6c1a      	ldr	r2, [r3, #64]	; 0x40
 8001db0:	687b      	ldr	r3, [r7, #4]
 8001db2:	6bdb      	ldr	r3, [r3, #60]	; 0x3c
 8001db4:	2102      	movs	r1, #2
 8001db6:	4091      	lsls	r1, r2
 8001db8:	000a      	movs	r2, r1
 8001dba:	605a      	str	r2, [r3, #4]
 8001dbc:	687b      	ldr	r3, [r7, #4]
 8001dbe:	2220      	movs	r2, #32
 8001dc0:	2100      	movs	r1, #0
 8001dc2:	5499      	strb	r1, [r3, r2]
 8001dc4:	687b      	ldr	r3, [r7, #4]
 8001dc6:	6a9b      	ldr	r3, [r3, #40]	; 0x28
 8001dc8:	2b00      	cmp	r3, #0
 8001dca:	d036      	beq.n	8001e3a <HAL_DMA_IRQHandler+0x13c>
 8001dcc:	687b      	ldr	r3, [r7, #4]
 8001dce:	6a9b      	ldr	r3, [r3, #40]	; 0x28
 8001dd0:	687a      	ldr	r2, [r7, #4]
 8001dd2:	0010      	movs	r0, r2
 8001dd4:	4798      	blx	r3
 8001dd6:	e030      	b.n	8001e3a <HAL_DMA_IRQHandler+0x13c>
 8001dd8:	687b      	ldr	r3, [r7, #4]
 8001dda:	6c1b      	ldr	r3, [r3, #64]	; 0x40
 8001ddc:	2208      	movs	r2, #8
 8001dde:	409a      	lsls	r2, r3
 8001de0:	0013      	movs	r3, r2
 8001de2:	68fa      	ldr	r2, [r7, #12]
 8001de4:	4013      	ands	r3, r2
 8001de6:	d028      	beq.n	8001e3a <HAL_DMA_IRQHandler+0x13c>
 8001de8:	68bb      	ldr	r3, [r7, #8]
 8001dea:	2208      	movs	r2, #8
 8001dec:	4013      	ands	r3, r2
 8001dee:	d024      	beq.n	8001e3a <HAL_DMA_IRQHandler+0x13c>
 8001df0:	687b      	ldr	r3, [r7, #4]
 8001df2:	681b      	ldr	r3, [r3, #0]
 8001df4:	681a      	ldr	r2, [r3, #0]
 8001df6:	687b      	ldr	r3, [r7, #4]
 8001df8:	681b      	ldr	r3, [r3, #0]
 8001dfa:	210e      	movs	r1, #14
 8001dfc:	438a      	bics	r2, r1
 8001dfe:	601a      	str	r2, [r3, #0]
 8001e00:	687b      	ldr	r3, [r7, #4]
 8001e02:	6c1a      	ldr	r2, [r3, #64]	; 0x40
 8001e04:	687b      	ldr	r3, [r7, #4]
 8001e06:	6bdb      	ldr	r3, [r3, #60]	; 0x3c
 8001e08:	2101      	movs	r1, #1
 8001e0a:	4091      	lsls	r1, r2
 8001e0c:	000a      	movs	r2, r1
 8001e0e:	605a      	str	r2, [r3, #4]
 8001e10:	687b      	ldr	r3, [r7, #4]
 8001e12:	2201      	movs	r2, #1
 8001e14:	639a      	str	r2, [r3, #56]	; 0x38
 8001e16:	687b      	ldr	r3, [r7, #4]
 8001e18:	2221      	movs	r2, #33	; 0x21
 8001e1a:	2101      	movs	r1, #1
 8001e1c:	5499      	strb	r1, [r3, r2]
 8001e1e:	687b      	ldr	r3, [r7, #4]
 8001e20:	2220      	movs	r2, #32
 8001e22:	2100      	movs	r1, #0
 8001e24:	5499      	strb	r1, [r3, r2]
 8001e26:	687b      	ldr	r3, [r7, #4]
 8001e28:	6b1b      	ldr	r3, [r3, #48]	; 0x30
 8001e2a:	2b00      	cmp	r3, #0
 8001e2c:	d005      	beq.n	8001e3a <HAL_DMA_IRQHandler+0x13c>
 8001e2e:	687b      	ldr	r3, [r7, #4]
 8001e30:	6b1b      	ldr	r3, [r3, #48]	; 0x30
 8001e32:	687a      	ldr	r2, [r7, #4]
 8001e34:	0010      	movs	r0, r2
 8001e36:	4798      	blx	r3
 8001e38:	e7ff      	b.n	8001e3a <HAL_DMA_IRQHandler+0x13c>
 8001e3a:	46c0      	nop			; (mov r8, r8)
 8001e3c:	46bd      	mov	sp, r7
 8001e3e:	b004      	add	sp, #16
 8001e40:	bd80      	pop	{r7, pc}
	...

08001e44 <DMA_CalcBaseAndBitshift>:
 8001e44:	b580      	push	{r7, lr}
 8001e46:	b082      	sub	sp, #8
 8001e48:	af00      	add	r7, sp, #0
 8001e4a:	6078      	str	r0, [r7, #4]
 8001e4c:	687b      	ldr	r3, [r7, #4]
 8001e4e:	681b      	ldr	r3, [r3, #0]
 8001e50:	4a08      	ldr	r2, [pc, #32]	; (8001e74 <DMA_CalcBaseAndBitshift+0x30>)
 8001e52:	4694      	mov	ip, r2
 8001e54:	4463      	add	r3, ip
 8001e56:	2114      	movs	r1, #20
 8001e58:	0018      	movs	r0, r3
 8001e5a:	f7fe f95f 	bl	800011c <__udivsi3>
 8001e5e:	0003      	movs	r3, r0
 8001e60:	009a      	lsls	r2, r3, #2
 8001e62:	687b      	ldr	r3, [r7, #4]
 8001e64:	641a      	str	r2, [r3, #64]	; 0x40
 8001e66:	687b      	ldr	r3, [r7, #4]
 8001e68:	4a03      	ldr	r2, [pc, #12]	; (8001e78 <DMA_CalcBaseAndBitshift+0x34>)
 8001e6a:	63da      	str	r2, [r3, #60]	; 0x3c
 8001e6c:	46c0      	nop			; (mov r8, r8)
 8001e6e:	46bd      	mov	sp, r7
 8001e70:	b002      	add	sp, #8
 8001e72:	bd80      	pop	{r7, pc}
 8001e74:	bffdfff8 	.word	0xbffdfff8
 8001e78:	40020000 	.word	0x40020000

08001e7c <HAL_GPIO_Init>:
 8001e7c:	b580      	push	{r7, lr}
 8001e7e:	b086      	sub	sp, #24
 8001e80:	af00      	add	r7, sp, #0
 8001e82:	6078      	str	r0, [r7, #4]
 8001e84:	6039      	str	r1, [r7, #0]
 8001e86:	2300      	movs	r3, #0
 8001e88:	617b      	str	r3, [r7, #20]
 8001e8a:	e14f      	b.n	800212c <HAL_GPIO_Init+0x2b0>
 8001e8c:	683b      	ldr	r3, [r7, #0]
 8001e8e:	681b      	ldr	r3, [r3, #0]
 8001e90:	2101      	movs	r1, #1
 8001e92:	697a      	ldr	r2, [r7, #20]
 8001e94:	4091      	lsls	r1, r2
 8001e96:	000a      	movs	r2, r1
 8001e98:	4013      	ands	r3, r2
 8001e9a:	60fb      	str	r3, [r7, #12]
 8001e9c:	68fb      	ldr	r3, [r7, #12]
 8001e9e:	2b00      	cmp	r3, #0
 8001ea0:	d100      	bne.n	8001ea4 <HAL_GPIO_Init+0x28>
 8001ea2:	e140      	b.n	8002126 <HAL_GPIO_Init+0x2aa>
 8001ea4:	683b      	ldr	r3, [r7, #0]
 8001ea6:	685b      	ldr	r3, [r3, #4]
 8001ea8:	2203      	movs	r2, #3
 8001eaa:	4013      	ands	r3, r2
 8001eac:	2b01      	cmp	r3, #1
 8001eae:	d005      	beq.n	8001ebc <HAL_GPIO_Init+0x40>
 8001eb0:	683b      	ldr	r3, [r7, #0]
 8001eb2:	685b      	ldr	r3, [r3, #4]
 8001eb4:	2203      	movs	r2, #3
 8001eb6:	4013      	ands	r3, r2
 8001eb8:	2b02      	cmp	r3, #2
 8001eba:	d130      	bne.n	8001f1e <HAL_GPIO_Init+0xa2>
 8001ebc:	687b      	ldr	r3, [r7, #4]
 8001ebe:	689b      	ldr	r3, [r3, #8]
 8001ec0:	613b      	str	r3, [r7, #16]
 8001ec2:	697b      	ldr	r3, [r7, #20]
 8001ec4:	005b      	lsls	r3, r3, #1
 8001ec6:	2203      	movs	r2, #3
 8001ec8:	409a      	lsls	r2, r3
 8001eca:	0013      	movs	r3, r2
 8001ecc:	43da      	mvns	r2, r3
 8001ece:	693b      	ldr	r3, [r7, #16]
 8001ed0:	4013      	ands	r3, r2
 8001ed2:	613b      	str	r3, [r7, #16]
 8001ed4:	683b      	ldr	r3, [r7, #0]
 8001ed6:	68da      	ldr	r2, [r3, #12]
 8001ed8:	697b      	ldr	r3, [r7, #20]
 8001eda:	005b      	lsls	r3, r3, #1
 8001edc:	409a      	lsls	r2, r3
 8001ede:	0013      	movs	r3, r2
 8001ee0:	693a      	ldr	r2, [r7, #16]
 8001ee2:	4313      	orrs	r3, r2
 8001ee4:	613b      	str	r3, [r7, #16]
 8001ee6:	687b      	ldr	r3, [r7, #4]
 8001ee8:	693a      	ldr	r2, [r7, #16]
 8001eea:	609a      	str	r2, [r3, #8]
 8001eec:	687b      	ldr	r3, [r7, #4]
 8001eee:	685b      	ldr	r3, [r3, #4]
 8001ef0:	613b      	str	r3, [r7, #16]
 8001ef2:	2201      	movs	r2, #1
 8001ef4:	697b      	ldr	r3, [r7, #20]
 8001ef6:	409a      	lsls	r2, r3
 8001ef8:	0013      	movs	r3, r2
 8001efa:	43da      	mvns	r2, r3
 8001efc:	693b      	ldr	r3, [r7, #16]
 8001efe:	4013      	ands	r3, r2
 8001f00:	613b      	str	r3, [r7, #16]
 8001f02:	683b      	ldr	r3, [r7, #0]
 8001f04:	685b      	ldr	r3, [r3, #4]
 8001f06:	091b      	lsrs	r3, r3, #4
 8001f08:	2201      	movs	r2, #1
 8001f0a:	401a      	ands	r2, r3
 8001f0c:	697b      	ldr	r3, [r7, #20]
 8001f0e:	409a      	lsls	r2, r3
 8001f10:	0013      	movs	r3, r2
 8001f12:	693a      	ldr	r2, [r7, #16]
 8001f14:	4313      	orrs	r3, r2
 8001f16:	613b      	str	r3, [r7, #16]
 8001f18:	687b      	ldr	r3, [r7, #4]
 8001f1a:	693a      	ldr	r2, [r7, #16]
 8001f1c:	605a      	str	r2, [r3, #4]
 8001f1e:	683b      	ldr	r3, [r7, #0]
 8001f20:	685b      	ldr	r3, [r3, #4]
 8001f22:	2203      	movs	r2, #3
 8001f24:	4013      	ands	r3, r2
 8001f26:	2b03      	cmp	r3, #3
 8001f28:	d017      	beq.n	8001f5a <HAL_GPIO_Init+0xde>
 8001f2a:	687b      	ldr	r3, [r7, #4]
 8001f2c:	68db      	ldr	r3, [r3, #12]
 8001f2e:	613b      	str	r3, [r7, #16]
 8001f30:	697b      	ldr	r3, [r7, #20]
 8001f32:	005b      	lsls	r3, r3, #1
 8001f34:	2203      	movs	r2, #3
 8001f36:	409a      	lsls	r2, r3
 8001f38:	0013      	movs	r3, r2
 8001f3a:	43da      	mvns	r2, r3
 8001f3c:	693b      	ldr	r3, [r7, #16]
 8001f3e:	4013      	ands	r3, r2
 8001f40:	613b      	str	r3, [r7, #16]
 8001f42:	683b      	ldr	r3, [r7, #0]
 8001f44:	689a      	ldr	r2, [r3, #8]
 8001f46:	697b      	ldr	r3, [r7, #20]
 8001f48:	005b      	lsls	r3, r3, #1
 8001f4a:	409a      	lsls	r2, r3
 8001f4c:	0013      	movs	r3, r2
 8001f4e:	693a      	ldr	r2, [r7, #16]
 8001f50:	4313      	orrs	r3, r2
 8001f52:	613b      	str	r3, [r7, #16]
 8001f54:	687b      	ldr	r3, [r7, #4]
 8001f56:	693a      	ldr	r2, [r7, #16]
 8001f58:	60da      	str	r2, [r3, #12]
 8001f5a:	683b      	ldr	r3, [r7, #0]
 8001f5c:	685b      	ldr	r3, [r3, #4]
 8001f5e:	2203      	movs	r2, #3
 8001f60:	4013      	ands	r3, r2
 8001f62:	2b02      	cmp	r3, #2
 8001f64:	d123      	bne.n	8001fae <HAL_GPIO_Init+0x132>
 8001f66:	697b      	ldr	r3, [r7, #20]
 8001f68:	08da      	lsrs	r2, r3, #3
 8001f6a:	687b      	ldr	r3, [r7, #4]
 8001f6c:	3208      	adds	r2, #8
 8001f6e:	0092      	lsls	r2, r2, #2
 8001f70:	58d3      	ldr	r3, [r2, r3]
 8001f72:	613b      	str	r3, [r7, #16]
 8001f74:	697b      	ldr	r3, [r7, #20]
 8001f76:	2207      	movs	r2, #7
 8001f78:	4013      	ands	r3, r2
 8001f7a:	009b      	lsls	r3, r3, #2
 8001f7c:	220f      	movs	r2, #15
 8001f7e:	409a      	lsls	r2, r3
 8001f80:	0013      	movs	r3, r2
 8001f82:	43da      	mvns	r2, r3
 8001f84:	693b      	ldr	r3, [r7, #16]
 8001f86:	4013      	ands	r3, r2
 8001f88:	613b      	str	r3, [r7, #16]
 8001f8a:	683b      	ldr	r3, [r7, #0]
 8001f8c:	691a      	ldr	r2, [r3, #16]
 8001f8e:	697b      	ldr	r3, [r7, #20]
 8001f90:	2107      	movs	r1, #7
 8001f92:	400b      	ands	r3, r1
 8001f94:	009b      	lsls	r3, r3, #2
 8001f96:	409a      	lsls	r2, r3
 8001f98:	0013      	movs	r3, r2
 8001f9a:	693a      	ldr	r2, [r7, #16]
 8001f9c:	4313      	orrs	r3, r2
 8001f9e:	613b      	str	r3, [r7, #16]
 8001fa0:	697b      	ldr	r3, [r7, #20]
 8001fa2:	08da      	lsrs	r2, r3, #3
 8001fa4:	687b      	ldr	r3, [r7, #4]
 8001fa6:	3208      	adds	r2, #8
 8001fa8:	0092      	lsls	r2, r2, #2
 8001faa:	6939      	ldr	r1, [r7, #16]
 8001fac:	50d1      	str	r1, [r2, r3]
 8001fae:	687b      	ldr	r3, [r7, #4]
 8001fb0:	681b      	ldr	r3, [r3, #0]
 8001fb2:	613b      	str	r3, [r7, #16]
 8001fb4:	697b      	ldr	r3, [r7, #20]
 8001fb6:	005b      	lsls	r3, r3, #1
 8001fb8:	2203      	movs	r2, #3
 8001fba:	409a      	lsls	r2, r3
 8001fbc:	0013      	movs	r3, r2
 8001fbe:	43da      	mvns	r2, r3
 8001fc0:	693b      	ldr	r3, [r7, #16]
 8001fc2:	4013      	ands	r3, r2
 8001fc4:	613b      	str	r3, [r7, #16]
 8001fc6:	683b      	ldr	r3, [r7, #0]
 8001fc8:	685b      	ldr	r3, [r3, #4]
 8001fca:	2203      	movs	r2, #3
 8001fcc:	401a      	ands	r2, r3
 8001fce:	697b      	ldr	r3, [r7, #20]
 8001fd0:	005b      	lsls	r3, r3, #1
 8001fd2:	409a      	lsls	r2, r3
 8001fd4:	0013      	movs	r3, r2
 8001fd6:	693a      	ldr	r2, [r7, #16]
 8001fd8:	4313      	orrs	r3, r2
 8001fda:	613b      	str	r3, [r7, #16]
 8001fdc:	687b      	ldr	r3, [r7, #4]
 8001fde:	693a      	ldr	r2, [r7, #16]
 8001fe0:	601a      	str	r2, [r3, #0]
 8001fe2:	683b      	ldr	r3, [r7, #0]
 8001fe4:	685a      	ldr	r2, [r3, #4]
 8001fe6:	23c0      	movs	r3, #192	; 0xc0
 8001fe8:	029b      	lsls	r3, r3, #10
 8001fea:	4013      	ands	r3, r2
 8001fec:	d100      	bne.n	8001ff0 <HAL_GPIO_Init+0x174>
 8001fee:	e09a      	b.n	8002126 <HAL_GPIO_Init+0x2aa>
 8001ff0:	4b54      	ldr	r3, [pc, #336]	; (8002144 <HAL_GPIO_Init+0x2c8>)
 8001ff2:	699a      	ldr	r2, [r3, #24]
 8001ff4:	4b53      	ldr	r3, [pc, #332]	; (8002144 <HAL_GPIO_Init+0x2c8>)
 8001ff6:	2101      	movs	r1, #1
 8001ff8:	430a      	orrs	r2, r1
 8001ffa:	619a      	str	r2, [r3, #24]
 8001ffc:	4b51      	ldr	r3, [pc, #324]	; (8002144 <HAL_GPIO_Init+0x2c8>)
 8001ffe:	699b      	ldr	r3, [r3, #24]
 8002000:	2201      	movs	r2, #1
 8002002:	4013      	ands	r3, r2
 8002004:	60bb      	str	r3, [r7, #8]
 8002006:	68bb      	ldr	r3, [r7, #8]
 8002008:	4a4f      	ldr	r2, [pc, #316]	; (8002148 <HAL_GPIO_Init+0x2cc>)
 800200a:	697b      	ldr	r3, [r7, #20]
 800200c:	089b      	lsrs	r3, r3, #2
 800200e:	3302      	adds	r3, #2
 8002010:	009b      	lsls	r3, r3, #2
 8002012:	589b      	ldr	r3, [r3, r2]
 8002014:	613b      	str	r3, [r7, #16]
 8002016:	697b      	ldr	r3, [r7, #20]
 8002018:	2203      	movs	r2, #3
 800201a:	4013      	ands	r3, r2
 800201c:	009b      	lsls	r3, r3, #2
 800201e:	220f      	movs	r2, #15
 8002020:	409a      	lsls	r2, r3
 8002022:	0013      	movs	r3, r2
 8002024:	43da      	mvns	r2, r3
 8002026:	693b      	ldr	r3, [r7, #16]
 8002028:	4013      	ands	r3, r2
 800202a:	613b      	str	r3, [r7, #16]
 800202c:	687a      	ldr	r2, [r7, #4]
 800202e:	2390      	movs	r3, #144	; 0x90
 8002030:	05db      	lsls	r3, r3, #23
 8002032:	429a      	cmp	r2, r3
 8002034:	d013      	beq.n	800205e <HAL_GPIO_Init+0x1e2>
 8002036:	687b      	ldr	r3, [r7, #4]
 8002038:	4a44      	ldr	r2, [pc, #272]	; (800214c <HAL_GPIO_Init+0x2d0>)
 800203a:	4293      	cmp	r3, r2
 800203c:	d00d      	beq.n	800205a <HAL_GPIO_Init+0x1de>
 800203e:	687b      	ldr	r3, [r7, #4]
 8002040:	4a43      	ldr	r2, [pc, #268]	; (8002150 <HAL_GPIO_Init+0x2d4>)
 8002042:	4293      	cmp	r3, r2
 8002044:	d007      	beq.n	8002056 <HAL_GPIO_Init+0x1da>
 8002046:	687b      	ldr	r3, [r7, #4]
 8002048:	4a42      	ldr	r2, [pc, #264]	; (8002154 <HAL_GPIO_Init+0x2d8>)
 800204a:	4293      	cmp	r3, r2
 800204c:	d101      	bne.n	8002052 <HAL_GPIO_Init+0x1d6>
 800204e:	2303      	movs	r3, #3
 8002050:	e006      	b.n	8002060 <HAL_GPIO_Init+0x1e4>
 8002052:	2305      	movs	r3, #5
 8002054:	e004      	b.n	8002060 <HAL_GPIO_Init+0x1e4>
 8002056:	2302      	movs	r3, #2
 8002058:	e002      	b.n	8002060 <HAL_GPIO_Init+0x1e4>
 800205a:	2301      	movs	r3, #1
 800205c:	e000      	b.n	8002060 <HAL_GPIO_Init+0x1e4>
 800205e:	2300      	movs	r3, #0
 8002060:	697a      	ldr	r2, [r7, #20]
 8002062:	2103      	movs	r1, #3
 8002064:	400a      	ands	r2, r1
 8002066:	0092      	lsls	r2, r2, #2
 8002068:	4093      	lsls	r3, r2
 800206a:	693a      	ldr	r2, [r7, #16]
 800206c:	4313      	orrs	r3, r2
 800206e:	613b      	str	r3, [r7, #16]
 8002070:	4935      	ldr	r1, [pc, #212]	; (8002148 <HAL_GPIO_Init+0x2cc>)
 8002072:	697b      	ldr	r3, [r7, #20]
 8002074:	089b      	lsrs	r3, r3, #2
 8002076:	3302      	adds	r3, #2
 8002078:	009b      	lsls	r3, r3, #2
 800207a:	693a      	ldr	r2, [r7, #16]
 800207c:	505a      	str	r2, [r3, r1]
 800207e:	4b36      	ldr	r3, [pc, #216]	; (8002158 <HAL_GPIO_Init+0x2dc>)
 8002080:	681b      	ldr	r3, [r3, #0]
 8002082:	613b      	str	r3, [r7, #16]
 8002084:	68fb      	ldr	r3, [r7, #12]
 8002086:	43da      	mvns	r2, r3
 8002088:	693b      	ldr	r3, [r7, #16]
 800208a:	4013      	ands	r3, r2
 800208c:	613b      	str	r3, [r7, #16]
 800208e:	683b      	ldr	r3, [r7, #0]
 8002090:	685a      	ldr	r2, [r3, #4]
 8002092:	2380      	movs	r3, #128	; 0x80
 8002094:	025b      	lsls	r3, r3, #9
 8002096:	4013      	ands	r3, r2
 8002098:	d003      	beq.n	80020a2 <HAL_GPIO_Init+0x226>
 800209a:	693a      	ldr	r2, [r7, #16]
 800209c:	68fb      	ldr	r3, [r7, #12]
 800209e:	4313      	orrs	r3, r2
 80020a0:	613b      	str	r3, [r7, #16]
 80020a2:	4b2d      	ldr	r3, [pc, #180]	; (8002158 <HAL_GPIO_Init+0x2dc>)
 80020a4:	693a      	ldr	r2, [r7, #16]
 80020a6:	601a      	str	r2, [r3, #0]
 80020a8:	4b2b      	ldr	r3, [pc, #172]	; (8002158 <HAL_GPIO_Init+0x2dc>)
 80020aa:	685b      	ldr	r3, [r3, #4]
 80020ac:	613b      	str	r3, [r7, #16]
 80020ae:	68fb      	ldr	r3, [r7, #12]
 80020b0:	43da      	mvns	r2, r3
 80020b2:	693b      	ldr	r3, [r7, #16]
 80020b4:	4013      	ands	r3, r2
 80020b6:	613b      	str	r3, [r7, #16]
 80020b8:	683b      	ldr	r3, [r7, #0]
 80020ba:	685a      	ldr	r2, [r3, #4]
 80020bc:	2380      	movs	r3, #128	; 0x80
 80020be:	029b      	lsls	r3, r3, #10
 80020c0:	4013      	ands	r3, r2
 80020c2:	d003      	beq.n	80020cc <HAL_GPIO_Init+0x250>
 80020c4:	693a      	ldr	r2, [r7, #16]
 80020c6:	68fb      	ldr	r3, [r7, #12]
 80020c8:	4313      	orrs	r3, r2
 80020ca:	613b      	str	r3, [r7, #16]
 80020cc:	4b22      	ldr	r3, [pc, #136]	; (8002158 <HAL_GPIO_Init+0x2dc>)
 80020ce:	693a      	ldr	r2, [r7, #16]
 80020d0:	605a      	str	r2, [r3, #4]
 80020d2:	4b21      	ldr	r3, [pc, #132]	; (8002158 <HAL_GPIO_Init+0x2dc>)
 80020d4:	689b      	ldr	r3, [r3, #8]
 80020d6:	613b      	str	r3, [r7, #16]
 80020d8:	68fb      	ldr	r3, [r7, #12]
 80020da:	43da      	mvns	r2, r3
 80020dc:	693b      	ldr	r3, [r7, #16]
 80020de:	4013      	ands	r3, r2
 80020e0:	613b      	str	r3, [r7, #16]
 80020e2:	683b      	ldr	r3, [r7, #0]
 80020e4:	685a      	ldr	r2, [r3, #4]
 80020e6:	2380      	movs	r3, #128	; 0x80
 80020e8:	035b      	lsls	r3, r3, #13
 80020ea:	4013      	ands	r3, r2
 80020ec:	d003      	beq.n	80020f6 <HAL_GPIO_Init+0x27a>
 80020ee:	693a      	ldr	r2, [r7, #16]
 80020f0:	68fb      	ldr	r3, [r7, #12]
 80020f2:	4313      	orrs	r3, r2
 80020f4:	613b      	str	r3, [r7, #16]
 80020f6:	4b18      	ldr	r3, [pc, #96]	; (8002158 <HAL_GPIO_Init+0x2dc>)
 80020f8:	693a      	ldr	r2, [r7, #16]
 80020fa:	609a      	str	r2, [r3, #8]
 80020fc:	4b16      	ldr	r3, [pc, #88]	; (8002158 <HAL_GPIO_Init+0x2dc>)
 80020fe:	68db      	ldr	r3, [r3, #12]
 8002100:	613b      	str	r3, [r7, #16]
 8002102:	68fb      	ldr	r3, [r7, #12]
 8002104:	43da      	mvns	r2, r3
 8002106:	693b      	ldr	r3, [r7, #16]
 8002108:	4013      	ands	r3, r2
 800210a:	613b      	str	r3, [r7, #16]
 800210c:	683b      	ldr	r3, [r7, #0]
 800210e:	685a      	ldr	r2, [r3, #4]
 8002110:	2380      	movs	r3, #128	; 0x80
 8002112:	039b      	lsls	r3, r3, #14
 8002114:	4013      	ands	r3, r2
 8002116:	d003      	beq.n	8002120 <HAL_GPIO_Init+0x2a4>
 8002118:	693a      	ldr	r2, [r7, #16]
 800211a:	68fb      	ldr	r3, [r7, #12]
 800211c:	4313      	orrs	r3, r2
 800211e:	613b      	str	r3, [r7, #16]
 8002120:	4b0d      	ldr	r3, [pc, #52]	; (8002158 <HAL_GPIO_Init+0x2dc>)
 8002122:	693a      	ldr	r2, [r7, #16]
 8002124:	60da      	str	r2, [r3, #12]
 8002126:	697b      	ldr	r3, [r7, #20]
 8002128:	3301      	adds	r3, #1
 800212a:	617b      	str	r3, [r7, #20]
 800212c:	683b      	ldr	r3, [r7, #0]
 800212e:	681a      	ldr	r2, [r3, #0]
 8002130:	697b      	ldr	r3, [r7, #20]
 8002132:	40da      	lsrs	r2, r3
 8002134:	1e13      	subs	r3, r2, #0
 8002136:	d000      	beq.n	800213a <HAL_GPIO_Init+0x2be>
 8002138:	e6a8      	b.n	8001e8c <HAL_GPIO_Init+0x10>
 800213a:	46c0      	nop			; (mov r8, r8)
 800213c:	46c0      	nop			; (mov r8, r8)
 800213e:	46bd      	mov	sp, r7
 8002140:	b006      	add	sp, #24
 8002142:	bd80      	pop	{r7, pc}
 8002144:	40021000 	.word	0x40021000
 8002148:	40010000 	.word	0x40010000
 800214c:	48000400 	.word	0x48000400
 8002150:	48000800 	.word	0x48000800
 8002154:	48000c00 	.word	0x48000c00
 8002158:	40010400 	.word	0x40010400

0800215c <HAL_GPIO_WritePin>:
 800215c:	b580      	push	{r7, lr}
 800215e:	b082      	sub	sp, #8
 8002160:	af00      	add	r7, sp, #0
 8002162:	6078      	str	r0, [r7, #4]
 8002164:	0008      	movs	r0, r1
 8002166:	0011      	movs	r1, r2
 8002168:	1cbb      	adds	r3, r7, #2
 800216a:	1c02      	adds	r2, r0, #0
 800216c:	801a      	strh	r2, [r3, #0]
 800216e:	1c7b      	adds	r3, r7, #1
 8002170:	1c0a      	adds	r2, r1, #0
 8002172:	701a      	strb	r2, [r3, #0]
 8002174:	1c7b      	adds	r3, r7, #1
 8002176:	781b      	ldrb	r3, [r3, #0]
 8002178:	2b00      	cmp	r3, #0
 800217a:	d004      	beq.n	8002186 <HAL_GPIO_WritePin+0x2a>
 800217c:	1cbb      	adds	r3, r7, #2
 800217e:	881a      	ldrh	r2, [r3, #0]
 8002180:	687b      	ldr	r3, [r7, #4]
 8002182:	619a      	str	r2, [r3, #24]
 8002184:	e003      	b.n	800218e <HAL_GPIO_WritePin+0x32>
 8002186:	1cbb      	adds	r3, r7, #2
 8002188:	881a      	ldrh	r2, [r3, #0]
 800218a:	687b      	ldr	r3, [r7, #4]
 800218c:	629a      	str	r2, [r3, #40]	; 0x28
 800218e:	46c0      	nop			; (mov r8, r8)
 8002190:	46bd      	mov	sp, r7
 8002192:	b002      	add	sp, #8
 8002194:	bd80      	pop	{r7, pc}

08002196 <HAL_GPIO_TogglePin>:
 8002196:	b580      	push	{r7, lr}
 8002198:	b084      	sub	sp, #16
 800219a:	af00      	add	r7, sp, #0
 800219c:	6078      	str	r0, [r7, #4]
 800219e:	000a      	movs	r2, r1
 80021a0:	1cbb      	adds	r3, r7, #2
 80021a2:	801a      	strh	r2, [r3, #0]
 80021a4:	687b      	ldr	r3, [r7, #4]
 80021a6:	695b      	ldr	r3, [r3, #20]
 80021a8:	60fb      	str	r3, [r7, #12]
 80021aa:	1cbb      	adds	r3, r7, #2
 80021ac:	881b      	ldrh	r3, [r3, #0]
 80021ae:	68fa      	ldr	r2, [r7, #12]
 80021b0:	4013      	ands	r3, r2
 80021b2:	041a      	lsls	r2, r3, #16
 80021b4:	68fb      	ldr	r3, [r7, #12]
 80021b6:	43db      	mvns	r3, r3
 80021b8:	1cb9      	adds	r1, r7, #2
 80021ba:	8809      	ldrh	r1, [r1, #0]
 80021bc:	400b      	ands	r3, r1
 80021be:	431a      	orrs	r2, r3
 80021c0:	687b      	ldr	r3, [r7, #4]
 80021c2:	619a      	str	r2, [r3, #24]
 80021c4:	46c0      	nop			; (mov r8, r8)
 80021c6:	46bd      	mov	sp, r7
 80021c8:	b004      	add	sp, #16
 80021ca:	bd80      	pop	{r7, pc}

080021cc <HAL_I2C_Init>:
 80021cc:	b580      	push	{r7, lr}
 80021ce:	b082      	sub	sp, #8
 80021d0:	af00      	add	r7, sp, #0
 80021d2:	6078      	str	r0, [r7, #4]
 80021d4:	687b      	ldr	r3, [r7, #4]
 80021d6:	2b00      	cmp	r3, #0
 80021d8:	d101      	bne.n	80021de <HAL_I2C_Init+0x12>
 80021da:	2301      	movs	r3, #1
 80021dc:	e082      	b.n	80022e4 <HAL_I2C_Init+0x118>
 80021de:	687b      	ldr	r3, [r7, #4]
 80021e0:	2241      	movs	r2, #65	; 0x41
 80021e2:	5c9b      	ldrb	r3, [r3, r2]
 80021e4:	b2db      	uxtb	r3, r3
 80021e6:	2b00      	cmp	r3, #0
 80021e8:	d107      	bne.n	80021fa <HAL_I2C_Init+0x2e>
 80021ea:	687b      	ldr	r3, [r7, #4]
 80021ec:	2240      	movs	r2, #64	; 0x40
 80021ee:	2100      	movs	r1, #0
 80021f0:	5499      	strb	r1, [r3, r2]
 80021f2:	687b      	ldr	r3, [r7, #4]
 80021f4:	0018      	movs	r0, r3
 80021f6:	f7ff f9f5 	bl	80015e4 <HAL_I2C_MspInit>
 80021fa:	687b      	ldr	r3, [r7, #4]
 80021fc:	2241      	movs	r2, #65	; 0x41
 80021fe:	2124      	movs	r1, #36	; 0x24
 8002200:	5499      	strb	r1, [r3, r2]
 8002202:	687b      	ldr	r3, [r7, #4]
 8002204:	681b      	ldr	r3, [r3, #0]
 8002206:	681a      	ldr	r2, [r3, #0]
 8002208:	687b      	ldr	r3, [r7, #4]
 800220a:	681b      	ldr	r3, [r3, #0]
 800220c:	2101      	movs	r1, #1
 800220e:	438a      	bics	r2, r1
 8002210:	601a      	str	r2, [r3, #0]
 8002212:	687b      	ldr	r3, [r7, #4]
 8002214:	685a      	ldr	r2, [r3, #4]
 8002216:	687b      	ldr	r3, [r7, #4]
 8002218:	681b      	ldr	r3, [r3, #0]
 800221a:	4934      	ldr	r1, [pc, #208]	; (80022ec <HAL_I2C_Init+0x120>)
 800221c:	400a      	ands	r2, r1
 800221e:	611a      	str	r2, [r3, #16]
 8002220:	687b      	ldr	r3, [r7, #4]
 8002222:	681b      	ldr	r3, [r3, #0]
 8002224:	689a      	ldr	r2, [r3, #8]
 8002226:	687b      	ldr	r3, [r7, #4]
 8002228:	681b      	ldr	r3, [r3, #0]
 800222a:	4931      	ldr	r1, [pc, #196]	; (80022f0 <HAL_I2C_Init+0x124>)
 800222c:	400a      	ands	r2, r1
 800222e:	609a      	str	r2, [r3, #8]
 8002230:	687b      	ldr	r3, [r7, #4]
 8002232:	68db      	ldr	r3, [r3, #12]
 8002234:	2b01      	cmp	r3, #1
 8002236:	d108      	bne.n	800224a <HAL_I2C_Init+0x7e>
 8002238:	687b      	ldr	r3, [r7, #4]
 800223a:	689a      	ldr	r2, [r3, #8]
 800223c:	687b      	ldr	r3, [r7, #4]
 800223e:	681b      	ldr	r3, [r3, #0]
 8002240:	2180      	movs	r1, #128	; 0x80
 8002242:	0209      	lsls	r1, r1, #8
 8002244:	430a      	orrs	r2, r1
 8002246:	609a      	str	r2, [r3, #8]
 8002248:	e007      	b.n	800225a <HAL_I2C_Init+0x8e>
 800224a:	687b      	ldr	r3, [r7, #4]
 800224c:	689a      	ldr	r2, [r3, #8]
 800224e:	687b      	ldr	r3, [r7, #4]
 8002250:	681b      	ldr	r3, [r3, #0]
 8002252:	2184      	movs	r1, #132	; 0x84
 8002254:	0209      	lsls	r1, r1, #8
 8002256:	430a      	orrs	r2, r1
 8002258:	609a      	str	r2, [r3, #8]
 800225a:	687b      	ldr	r3, [r7, #4]
 800225c:	68db      	ldr	r3, [r3, #12]
 800225e:	2b02      	cmp	r3, #2
 8002260:	d104      	bne.n	800226c <HAL_I2C_Init+0xa0>
 8002262:	687b      	ldr	r3, [r7, #4]
 8002264:	681b      	ldr	r3, [r3, #0]
 8002266:	2280      	movs	r2, #128	; 0x80
 8002268:	0112      	lsls	r2, r2, #4
 800226a:	605a      	str	r2, [r3, #4]
 800226c:	687b      	ldr	r3, [r7, #4]
 800226e:	681b      	ldr	r3, [r3, #0]
 8002270:	685a      	ldr	r2, [r3, #4]
 8002272:	687b      	ldr	r3, [r7, #4]
 8002274:	681b      	ldr	r3, [r3, #0]
 8002276:	491f      	ldr	r1, [pc, #124]	; (80022f4 <HAL_I2C_Init+0x128>)
 8002278:	430a      	orrs	r2, r1
 800227a:	605a      	str	r2, [r3, #4]
 800227c:	687b      	ldr	r3, [r7, #4]
 800227e:	681b      	ldr	r3, [r3, #0]
 8002280:	68da      	ldr	r2, [r3, #12]
 8002282:	687b      	ldr	r3, [r7, #4]
 8002284:	681b      	ldr	r3, [r3, #0]
 8002286:	491a      	ldr	r1, [pc, #104]	; (80022f0 <HAL_I2C_Init+0x124>)
 8002288:	400a      	ands	r2, r1
 800228a:	60da      	str	r2, [r3, #12]
 800228c:	687b      	ldr	r3, [r7, #4]
 800228e:	691a      	ldr	r2, [r3, #16]
 8002290:	687b      	ldr	r3, [r7, #4]
 8002292:	695b      	ldr	r3, [r3, #20]
 8002294:	431a      	orrs	r2, r3
 8002296:	0011      	movs	r1, r2
 8002298:	687b      	ldr	r3, [r7, #4]
 800229a:	699b      	ldr	r3, [r3, #24]
 800229c:	021a      	lsls	r2, r3, #8
 800229e:	687b      	ldr	r3, [r7, #4]
 80022a0:	681b      	ldr	r3, [r3, #0]
 80022a2:	430a      	orrs	r2, r1
 80022a4:	60da      	str	r2, [r3, #12]
 80022a6:	687b      	ldr	r3, [r7, #4]
 80022a8:	69d9      	ldr	r1, [r3, #28]
 80022aa:	687b      	ldr	r3, [r7, #4]
 80022ac:	6a1a      	ldr	r2, [r3, #32]
 80022ae:	687b      	ldr	r3, [r7, #4]
 80022b0:	681b      	ldr	r3, [r3, #0]
 80022b2:	430a      	orrs	r2, r1
 80022b4:	601a      	str	r2, [r3, #0]
 80022b6:	687b      	ldr	r3, [r7, #4]
 80022b8:	681b      	ldr	r3, [r3, #0]
 80022ba:	681a      	ldr	r2, [r3, #0]
 80022bc:	687b      	ldr	r3, [r7, #4]
 80022be:	681b      	ldr	r3, [r3, #0]
 80022c0:	2101      	movs	r1, #1
 80022c2:	430a      	orrs	r2, r1
 80022c4:	601a      	str	r2, [r3, #0]
 80022c6:	687b      	ldr	r3, [r7, #4]
 80022c8:	2200      	movs	r2, #0
 80022ca:	645a      	str	r2, [r3, #68]	; 0x44
 80022cc:	687b      	ldr	r3, [r7, #4]
 80022ce:	2241      	movs	r2, #65	; 0x41
 80022d0:	2120      	movs	r1, #32
 80022d2:	5499      	strb	r1, [r3, r2]
 80022d4:	687b      	ldr	r3, [r7, #4]
 80022d6:	2200      	movs	r2, #0
 80022d8:	631a      	str	r2, [r3, #48]	; 0x30
 80022da:	687b      	ldr	r3, [r7, #4]
 80022dc:	2242      	movs	r2, #66	; 0x42
 80022de:	2100      	movs	r1, #0
 80022e0:	5499      	strb	r1, [r3, r2]
 80022e2:	2300      	movs	r3, #0
 80022e4:	0018      	movs	r0, r3
 80022e6:	46bd      	mov	sp, r7
 80022e8:	b002      	add	sp, #8
 80022ea:	bd80      	pop	{r7, pc}
 80022ec:	f0ffffff 	.word	0xf0ffffff
 80022f0:	ffff7fff 	.word	0xffff7fff
 80022f4:	02008000 	.word	0x02008000

080022f8 <HAL_I2C_Mem_Write>:
 80022f8:	b590      	push	{r4, r7, lr}
 80022fa:	b089      	sub	sp, #36	; 0x24
 80022fc:	af02      	add	r7, sp, #8
 80022fe:	60f8      	str	r0, [r7, #12]
 8002300:	000c      	movs	r4, r1
 8002302:	0010      	movs	r0, r2
 8002304:	0019      	movs	r1, r3
 8002306:	230a      	movs	r3, #10
 8002308:	18fb      	adds	r3, r7, r3
 800230a:	1c22      	adds	r2, r4, #0
 800230c:	801a      	strh	r2, [r3, #0]
 800230e:	2308      	movs	r3, #8
 8002310:	18fb      	adds	r3, r7, r3
 8002312:	1c02      	adds	r2, r0, #0
 8002314:	801a      	strh	r2, [r3, #0]
 8002316:	1dbb      	adds	r3, r7, #6
 8002318:	1c0a      	adds	r2, r1, #0
 800231a:	801a      	strh	r2, [r3, #0]
 800231c:	68fb      	ldr	r3, [r7, #12]
 800231e:	2241      	movs	r2, #65	; 0x41
 8002320:	5c9b      	ldrb	r3, [r3, r2]
 8002322:	b2db      	uxtb	r3, r3
 8002324:	2b20      	cmp	r3, #32
 8002326:	d000      	beq.n	800232a <HAL_I2C_Mem_Write+0x32>
 8002328:	e10c      	b.n	8002544 <HAL_I2C_Mem_Write+0x24c>
 800232a:	6abb      	ldr	r3, [r7, #40]	; 0x28
 800232c:	2b00      	cmp	r3, #0
 800232e:	d004      	beq.n	800233a <HAL_I2C_Mem_Write+0x42>
 8002330:	232c      	movs	r3, #44	; 0x2c
 8002332:	18fb      	adds	r3, r7, r3
 8002334:	881b      	ldrh	r3, [r3, #0]
 8002336:	2b00      	cmp	r3, #0
 8002338:	d105      	bne.n	8002346 <HAL_I2C_Mem_Write+0x4e>
 800233a:	68fb      	ldr	r3, [r7, #12]
 800233c:	2280      	movs	r2, #128	; 0x80
 800233e:	0092      	lsls	r2, r2, #2
 8002340:	645a      	str	r2, [r3, #68]	; 0x44
 8002342:	2301      	movs	r3, #1
 8002344:	e0ff      	b.n	8002546 <HAL_I2C_Mem_Write+0x24e>
 8002346:	68fb      	ldr	r3, [r7, #12]
 8002348:	2240      	movs	r2, #64	; 0x40
 800234a:	5c9b      	ldrb	r3, [r3, r2]
 800234c:	2b01      	cmp	r3, #1
 800234e:	d101      	bne.n	8002354 <HAL_I2C_Mem_Write+0x5c>
 8002350:	2302      	movs	r3, #2
 8002352:	e0f8      	b.n	8002546 <HAL_I2C_Mem_Write+0x24e>
 8002354:	68fb      	ldr	r3, [r7, #12]
 8002356:	2240      	movs	r2, #64	; 0x40
 8002358:	2101      	movs	r1, #1
 800235a:	5499      	strb	r1, [r3, r2]
 800235c:	f7ff fafe 	bl	800195c <HAL_GetTick>
 8002360:	0003      	movs	r3, r0
 8002362:	617b      	str	r3, [r7, #20]
 8002364:	2380      	movs	r3, #128	; 0x80
 8002366:	0219      	lsls	r1, r3, #8
 8002368:	68f8      	ldr	r0, [r7, #12]
 800236a:	697b      	ldr	r3, [r7, #20]
 800236c:	9300      	str	r3, [sp, #0]
 800236e:	2319      	movs	r3, #25
 8002370:	2201      	movs	r2, #1
 8002372:	f000 fb0b 	bl	800298c <I2C_WaitOnFlagUntilTimeout>
 8002376:	1e03      	subs	r3, r0, #0
 8002378:	d001      	beq.n	800237e <HAL_I2C_Mem_Write+0x86>
 800237a:	2301      	movs	r3, #1
 800237c:	e0e3      	b.n	8002546 <HAL_I2C_Mem_Write+0x24e>
 800237e:	68fb      	ldr	r3, [r7, #12]
 8002380:	2241      	movs	r2, #65	; 0x41
 8002382:	2121      	movs	r1, #33	; 0x21
 8002384:	5499      	strb	r1, [r3, r2]
 8002386:	68fb      	ldr	r3, [r7, #12]
 8002388:	2242      	movs	r2, #66	; 0x42
 800238a:	2140      	movs	r1, #64	; 0x40
 800238c:	5499      	strb	r1, [r3, r2]
 800238e:	68fb      	ldr	r3, [r7, #12]
 8002390:	2200      	movs	r2, #0
 8002392:	645a      	str	r2, [r3, #68]	; 0x44
 8002394:	68fb      	ldr	r3, [r7, #12]
 8002396:	6aba      	ldr	r2, [r7, #40]	; 0x28
 8002398:	625a      	str	r2, [r3, #36]	; 0x24
 800239a:	68fb      	ldr	r3, [r7, #12]
 800239c:	222c      	movs	r2, #44	; 0x2c
 800239e:	18ba      	adds	r2, r7, r2
 80023a0:	8812      	ldrh	r2, [r2, #0]
 80023a2:	855a      	strh	r2, [r3, #42]	; 0x2a
 80023a4:	68fb      	ldr	r3, [r7, #12]
 80023a6:	2200      	movs	r2, #0
 80023a8:	635a      	str	r2, [r3, #52]	; 0x34
 80023aa:	1dbb      	adds	r3, r7, #6
 80023ac:	881c      	ldrh	r4, [r3, #0]
 80023ae:	2308      	movs	r3, #8
 80023b0:	18fb      	adds	r3, r7, r3
 80023b2:	881a      	ldrh	r2, [r3, #0]
 80023b4:	230a      	movs	r3, #10
 80023b6:	18fb      	adds	r3, r7, r3
 80023b8:	8819      	ldrh	r1, [r3, #0]
 80023ba:	68f8      	ldr	r0, [r7, #12]
 80023bc:	697b      	ldr	r3, [r7, #20]
 80023be:	9301      	str	r3, [sp, #4]
 80023c0:	6b3b      	ldr	r3, [r7, #48]	; 0x30
 80023c2:	9300      	str	r3, [sp, #0]
 80023c4:	0023      	movs	r3, r4
 80023c6:	f000 f9f9 	bl	80027bc <I2C_RequestMemoryWrite>
 80023ca:	1e03      	subs	r3, r0, #0
 80023cc:	d005      	beq.n	80023da <HAL_I2C_Mem_Write+0xe2>
 80023ce:	68fb      	ldr	r3, [r7, #12]
 80023d0:	2240      	movs	r2, #64	; 0x40
 80023d2:	2100      	movs	r1, #0
 80023d4:	5499      	strb	r1, [r3, r2]
 80023d6:	2301      	movs	r3, #1
 80023d8:	e0b5      	b.n	8002546 <HAL_I2C_Mem_Write+0x24e>
 80023da:	68fb      	ldr	r3, [r7, #12]
 80023dc:	8d5b      	ldrh	r3, [r3, #42]	; 0x2a
 80023de:	b29b      	uxth	r3, r3
 80023e0:	2bff      	cmp	r3, #255	; 0xff
 80023e2:	d911      	bls.n	8002408 <HAL_I2C_Mem_Write+0x110>
 80023e4:	68fb      	ldr	r3, [r7, #12]
 80023e6:	22ff      	movs	r2, #255	; 0xff
 80023e8:	851a      	strh	r2, [r3, #40]	; 0x28
 80023ea:	68fb      	ldr	r3, [r7, #12]
 80023ec:	8d1b      	ldrh	r3, [r3, #40]	; 0x28
 80023ee:	b2da      	uxtb	r2, r3
 80023f0:	2380      	movs	r3, #128	; 0x80
 80023f2:	045c      	lsls	r4, r3, #17
 80023f4:	230a      	movs	r3, #10
 80023f6:	18fb      	adds	r3, r7, r3
 80023f8:	8819      	ldrh	r1, [r3, #0]
 80023fa:	68f8      	ldr	r0, [r7, #12]
 80023fc:	2300      	movs	r3, #0
 80023fe:	9300      	str	r3, [sp, #0]
 8002400:	0023      	movs	r3, r4
 8002402:	f000 fbf7 	bl	8002bf4 <I2C_TransferConfig>
 8002406:	e012      	b.n	800242e <HAL_I2C_Mem_Write+0x136>
 8002408:	68fb      	ldr	r3, [r7, #12]
 800240a:	8d5b      	ldrh	r3, [r3, #42]	; 0x2a
 800240c:	b29a      	uxth	r2, r3
 800240e:	68fb      	ldr	r3, [r7, #12]
 8002410:	851a      	strh	r2, [r3, #40]	; 0x28
 8002412:	68fb      	ldr	r3, [r7, #12]
 8002414:	8d1b      	ldrh	r3, [r3, #40]	; 0x28
 8002416:	b2da      	uxtb	r2, r3
 8002418:	2380      	movs	r3, #128	; 0x80
 800241a:	049c      	lsls	r4, r3, #18
 800241c:	230a      	movs	r3, #10
 800241e:	18fb      	adds	r3, r7, r3
 8002420:	8819      	ldrh	r1, [r3, #0]
 8002422:	68f8      	ldr	r0, [r7, #12]
 8002424:	2300      	movs	r3, #0
 8002426:	9300      	str	r3, [sp, #0]
 8002428:	0023      	movs	r3, r4
 800242a:	f000 fbe3 	bl	8002bf4 <I2C_TransferConfig>
 800242e:	697a      	ldr	r2, [r7, #20]
 8002430:	6b39      	ldr	r1, [r7, #48]	; 0x30
 8002432:	68fb      	ldr	r3, [r7, #12]
 8002434:	0018      	movs	r0, r3
 8002436:	f000 fae8 	bl	8002a0a <I2C_WaitOnTXISFlagUntilTimeout>
 800243a:	1e03      	subs	r3, r0, #0
 800243c:	d001      	beq.n	8002442 <HAL_I2C_Mem_Write+0x14a>
 800243e:	2301      	movs	r3, #1
 8002440:	e081      	b.n	8002546 <HAL_I2C_Mem_Write+0x24e>
 8002442:	68fb      	ldr	r3, [r7, #12]
 8002444:	6a5b      	ldr	r3, [r3, #36]	; 0x24
 8002446:	781a      	ldrb	r2, [r3, #0]
 8002448:	68fb      	ldr	r3, [r7, #12]
 800244a:	681b      	ldr	r3, [r3, #0]
 800244c:	629a      	str	r2, [r3, #40]	; 0x28
 800244e:	68fb      	ldr	r3, [r7, #12]
 8002450:	6a5b      	ldr	r3, [r3, #36]	; 0x24
 8002452:	1c5a      	adds	r2, r3, #1
 8002454:	68fb      	ldr	r3, [r7, #12]
 8002456:	625a      	str	r2, [r3, #36]	; 0x24
 8002458:	68fb      	ldr	r3, [r7, #12]
 800245a:	8d5b      	ldrh	r3, [r3, #42]	; 0x2a
 800245c:	b29b      	uxth	r3, r3
 800245e:	3b01      	subs	r3, #1
 8002460:	b29a      	uxth	r2, r3
 8002462:	68fb      	ldr	r3, [r7, #12]
 8002464:	855a      	strh	r2, [r3, #42]	; 0x2a
 8002466:	68fb      	ldr	r3, [r7, #12]
 8002468:	8d1b      	ldrh	r3, [r3, #40]	; 0x28
 800246a:	3b01      	subs	r3, #1
 800246c:	b29a      	uxth	r2, r3
 800246e:	68fb      	ldr	r3, [r7, #12]
 8002470:	851a      	strh	r2, [r3, #40]	; 0x28
 8002472:	68fb      	ldr	r3, [r7, #12]
 8002474:	8d5b      	ldrh	r3, [r3, #42]	; 0x2a
 8002476:	b29b      	uxth	r3, r3
 8002478:	2b00      	cmp	r3, #0
 800247a:	d03a      	beq.n	80024f2 <HAL_I2C_Mem_Write+0x1fa>
 800247c:	68fb      	ldr	r3, [r7, #12]
 800247e:	8d1b      	ldrh	r3, [r3, #40]	; 0x28
 8002480:	2b00      	cmp	r3, #0
 8002482:	d136      	bne.n	80024f2 <HAL_I2C_Mem_Write+0x1fa>
 8002484:	6b3a      	ldr	r2, [r7, #48]	; 0x30
 8002486:	68f8      	ldr	r0, [r7, #12]
 8002488:	697b      	ldr	r3, [r7, #20]
 800248a:	9300      	str	r3, [sp, #0]
 800248c:	0013      	movs	r3, r2
 800248e:	2200      	movs	r2, #0
 8002490:	2180      	movs	r1, #128	; 0x80
 8002492:	f000 fa7b 	bl	800298c <I2C_WaitOnFlagUntilTimeout>
 8002496:	1e03      	subs	r3, r0, #0
 8002498:	d001      	beq.n	800249e <HAL_I2C_Mem_Write+0x1a6>
 800249a:	2301      	movs	r3, #1
 800249c:	e053      	b.n	8002546 <HAL_I2C_Mem_Write+0x24e>
 800249e:	68fb      	ldr	r3, [r7, #12]
 80024a0:	8d5b      	ldrh	r3, [r3, #42]	; 0x2a
 80024a2:	b29b      	uxth	r3, r3
 80024a4:	2bff      	cmp	r3, #255	; 0xff
 80024a6:	d911      	bls.n	80024cc <HAL_I2C_Mem_Write+0x1d4>
 80024a8:	68fb      	ldr	r3, [r7, #12]
 80024aa:	22ff      	movs	r2, #255	; 0xff
 80024ac:	851a      	strh	r2, [r3, #40]	; 0x28
 80024ae:	68fb      	ldr	r3, [r7, #12]
 80024b0:	8d1b      	ldrh	r3, [r3, #40]	; 0x28
 80024b2:	b2da      	uxtb	r2, r3
 80024b4:	2380      	movs	r3, #128	; 0x80
 80024b6:	045c      	lsls	r4, r3, #17
 80024b8:	230a      	movs	r3, #10
 80024ba:	18fb      	adds	r3, r7, r3
 80024bc:	8819      	ldrh	r1, [r3, #0]
 80024be:	68f8      	ldr	r0, [r7, #12]
 80024c0:	2300      	movs	r3, #0
 80024c2:	9300      	str	r3, [sp, #0]
 80024c4:	0023      	movs	r3, r4
 80024c6:	f000 fb95 	bl	8002bf4 <I2C_TransferConfig>
 80024ca:	e012      	b.n	80024f2 <HAL_I2C_Mem_Write+0x1fa>
 80024cc:	68fb      	ldr	r3, [r7, #12]
 80024ce:	8d5b      	ldrh	r3, [r3, #42]	; 0x2a
 80024d0:	b29a      	uxth	r2, r3
 80024d2:	68fb      	ldr	r3, [r7, #12]
 80024d4:	851a      	strh	r2, [r3, #40]	; 0x28
 80024d6:	68fb      	ldr	r3, [r7, #12]
 80024d8:	8d1b      	ldrh	r3, [r3, #40]	; 0x28
 80024da:	b2da      	uxtb	r2, r3
 80024dc:	2380      	movs	r3, #128	; 0x80
 80024de:	049c      	lsls	r4, r3, #18
 80024e0:	230a      	movs	r3, #10
 80024e2:	18fb      	adds	r3, r7, r3
 80024e4:	8819      	ldrh	r1, [r3, #0]
 80024e6:	68f8      	ldr	r0, [r7, #12]
 80024e8:	2300      	movs	r3, #0
 80024ea:	9300      	str	r3, [sp, #0]
 80024ec:	0023      	movs	r3, r4
 80024ee:	f000 fb81 	bl	8002bf4 <I2C_TransferConfig>
 80024f2:	68fb      	ldr	r3, [r7, #12]
 80024f4:	8d5b      	ldrh	r3, [r3, #42]	; 0x2a
 80024f6:	b29b      	uxth	r3, r3
 80024f8:	2b00      	cmp	r3, #0
 80024fa:	d198      	bne.n	800242e <HAL_I2C_Mem_Write+0x136>
 80024fc:	697a      	ldr	r2, [r7, #20]
 80024fe:	6b39      	ldr	r1, [r7, #48]	; 0x30
 8002500:	68fb      	ldr	r3, [r7, #12]
 8002502:	0018      	movs	r0, r3
 8002504:	f000 fac0 	bl	8002a88 <I2C_WaitOnSTOPFlagUntilTimeout>
 8002508:	1e03      	subs	r3, r0, #0
 800250a:	d001      	beq.n	8002510 <HAL_I2C_Mem_Write+0x218>
 800250c:	2301      	movs	r3, #1
 800250e:	e01a      	b.n	8002546 <HAL_I2C_Mem_Write+0x24e>
 8002510:	68fb      	ldr	r3, [r7, #12]
 8002512:	681b      	ldr	r3, [r3, #0]
 8002514:	2220      	movs	r2, #32
 8002516:	61da      	str	r2, [r3, #28]
 8002518:	68fb      	ldr	r3, [r7, #12]
 800251a:	681b      	ldr	r3, [r3, #0]
 800251c:	685a      	ldr	r2, [r3, #4]
 800251e:	68fb      	ldr	r3, [r7, #12]
 8002520:	681b      	ldr	r3, [r3, #0]
 8002522:	490b      	ldr	r1, [pc, #44]	; (8002550 <HAL_I2C_Mem_Write+0x258>)
 8002524:	400a      	ands	r2, r1
 8002526:	605a      	str	r2, [r3, #4]
 8002528:	68fb      	ldr	r3, [r7, #12]
 800252a:	2241      	movs	r2, #65	; 0x41
 800252c:	2120      	movs	r1, #32
 800252e:	5499      	strb	r1, [r3, r2]
 8002530:	68fb      	ldr	r3, [r7, #12]
 8002532:	2242      	movs	r2, #66	; 0x42
 8002534:	2100      	movs	r1, #0
 8002536:	5499      	strb	r1, [r3, r2]
 8002538:	68fb      	ldr	r3, [r7, #12]
 800253a:	2240      	movs	r2, #64	; 0x40
 800253c:	2100      	movs	r1, #0
 800253e:	5499      	strb	r1, [r3, r2]
 8002540:	2300      	movs	r3, #0
 8002542:	e000      	b.n	8002546 <HAL_I2C_Mem_Write+0x24e>
 8002544:	2302      	movs	r3, #2
 8002546:	0018      	movs	r0, r3
 8002548:	46bd      	mov	sp, r7
 800254a:	b007      	add	sp, #28
 800254c:	bd90      	pop	{r4, r7, pc}
 800254e:	46c0      	nop			; (mov r8, r8)
 8002550:	fe00e800 	.word	0xfe00e800

08002554 <HAL_I2C_Mem_Read>:
 8002554:	b590      	push	{r4, r7, lr}
 8002556:	b089      	sub	sp, #36	; 0x24
 8002558:	af02      	add	r7, sp, #8
 800255a:	60f8      	str	r0, [r7, #12]
 800255c:	000c      	movs	r4, r1
 800255e:	0010      	movs	r0, r2
 8002560:	0019      	movs	r1, r3
 8002562:	230a      	movs	r3, #10
 8002564:	18fb      	adds	r3, r7, r3
 8002566:	1c22      	adds	r2, r4, #0
 8002568:	801a      	strh	r2, [r3, #0]
 800256a:	2308      	movs	r3, #8
 800256c:	18fb      	adds	r3, r7, r3
 800256e:	1c02      	adds	r2, r0, #0
 8002570:	801a      	strh	r2, [r3, #0]
 8002572:	1dbb      	adds	r3, r7, #6
 8002574:	1c0a      	adds	r2, r1, #0
 8002576:	801a      	strh	r2, [r3, #0]
 8002578:	68fb      	ldr	r3, [r7, #12]
 800257a:	2241      	movs	r2, #65	; 0x41
 800257c:	5c9b      	ldrb	r3, [r3, r2]
 800257e:	b2db      	uxtb	r3, r3
 8002580:	2b20      	cmp	r3, #32
 8002582:	d000      	beq.n	8002586 <HAL_I2C_Mem_Read+0x32>
 8002584:	e110      	b.n	80027a8 <HAL_I2C_Mem_Read+0x254>
 8002586:	6abb      	ldr	r3, [r7, #40]	; 0x28
 8002588:	2b00      	cmp	r3, #0
 800258a:	d004      	beq.n	8002596 <HAL_I2C_Mem_Read+0x42>
 800258c:	232c      	movs	r3, #44	; 0x2c
 800258e:	18fb      	adds	r3, r7, r3
 8002590:	881b      	ldrh	r3, [r3, #0]
 8002592:	2b00      	cmp	r3, #0
 8002594:	d105      	bne.n	80025a2 <HAL_I2C_Mem_Read+0x4e>
 8002596:	68fb      	ldr	r3, [r7, #12]
 8002598:	2280      	movs	r2, #128	; 0x80
 800259a:	0092      	lsls	r2, r2, #2
 800259c:	645a      	str	r2, [r3, #68]	; 0x44
 800259e:	2301      	movs	r3, #1
 80025a0:	e103      	b.n	80027aa <HAL_I2C_Mem_Read+0x256>
 80025a2:	68fb      	ldr	r3, [r7, #12]
 80025a4:	2240      	movs	r2, #64	; 0x40
 80025a6:	5c9b      	ldrb	r3, [r3, r2]
 80025a8:	2b01      	cmp	r3, #1
 80025aa:	d101      	bne.n	80025b0 <HAL_I2C_Mem_Read+0x5c>
 80025ac:	2302      	movs	r3, #2
 80025ae:	e0fc      	b.n	80027aa <HAL_I2C_Mem_Read+0x256>
 80025b0:	68fb      	ldr	r3, [r7, #12]
 80025b2:	2240      	movs	r2, #64	; 0x40
 80025b4:	2101      	movs	r1, #1
 80025b6:	5499      	strb	r1, [r3, r2]
 80025b8:	f7ff f9d0 	bl	800195c <HAL_GetTick>
 80025bc:	0003      	movs	r3, r0
 80025be:	617b      	str	r3, [r7, #20]
 80025c0:	2380      	movs	r3, #128	; 0x80
 80025c2:	0219      	lsls	r1, r3, #8
 80025c4:	68f8      	ldr	r0, [r7, #12]
 80025c6:	697b      	ldr	r3, [r7, #20]
 80025c8:	9300      	str	r3, [sp, #0]
 80025ca:	2319      	movs	r3, #25
 80025cc:	2201      	movs	r2, #1
 80025ce:	f000 f9dd 	bl	800298c <I2C_WaitOnFlagUntilTimeout>
 80025d2:	1e03      	subs	r3, r0, #0
 80025d4:	d001      	beq.n	80025da <HAL_I2C_Mem_Read+0x86>
 80025d6:	2301      	movs	r3, #1
 80025d8:	e0e7      	b.n	80027aa <HAL_I2C_Mem_Read+0x256>
 80025da:	68fb      	ldr	r3, [r7, #12]
 80025dc:	2241      	movs	r2, #65	; 0x41
 80025de:	2122      	movs	r1, #34	; 0x22
 80025e0:	5499      	strb	r1, [r3, r2]
 80025e2:	68fb      	ldr	r3, [r7, #12]
 80025e4:	2242      	movs	r2, #66	; 0x42
 80025e6:	2140      	movs	r1, #64	; 0x40
 80025e8:	5499      	strb	r1, [r3, r2]
 80025ea:	68fb      	ldr	r3, [r7, #12]
 80025ec:	2200      	movs	r2, #0
 80025ee:	645a      	str	r2, [r3, #68]	; 0x44
 80025f0:	68fb      	ldr	r3, [r7, #12]
 80025f2:	6aba      	ldr	r2, [r7, #40]	; 0x28
 80025f4:	625a      	str	r2, [r3, #36]	; 0x24
 80025f6:	68fb      	ldr	r3, [r7, #12]
 80025f8:	222c      	movs	r2, #44	; 0x2c
 80025fa:	18ba      	adds	r2, r7, r2
 80025fc:	8812      	ldrh	r2, [r2, #0]
 80025fe:	855a      	strh	r2, [r3, #42]	; 0x2a
 8002600:	68fb      	ldr	r3, [r7, #12]
 8002602:	2200      	movs	r2, #0
 8002604:	635a      	str	r2, [r3, #52]	; 0x34
 8002606:	1dbb      	adds	r3, r7, #6
 8002608:	881c      	ldrh	r4, [r3, #0]
 800260a:	2308      	movs	r3, #8
 800260c:	18fb      	adds	r3, r7, r3
 800260e:	881a      	ldrh	r2, [r3, #0]
 8002610:	230a      	movs	r3, #10
 8002612:	18fb      	adds	r3, r7, r3
 8002614:	8819      	ldrh	r1, [r3, #0]
 8002616:	68f8      	ldr	r0, [r7, #12]
 8002618:	697b      	ldr	r3, [r7, #20]
 800261a:	9301      	str	r3, [sp, #4]
 800261c:	6b3b      	ldr	r3, [r7, #48]	; 0x30
 800261e:	9300      	str	r3, [sp, #0]
 8002620:	0023      	movs	r3, r4
 8002622:	f000 f92f 	bl	8002884 <I2C_RequestMemoryRead>
 8002626:	1e03      	subs	r3, r0, #0
 8002628:	d005      	beq.n	8002636 <HAL_I2C_Mem_Read+0xe2>
 800262a:	68fb      	ldr	r3, [r7, #12]
 800262c:	2240      	movs	r2, #64	; 0x40
 800262e:	2100      	movs	r1, #0
 8002630:	5499      	strb	r1, [r3, r2]
 8002632:	2301      	movs	r3, #1
 8002634:	e0b9      	b.n	80027aa <HAL_I2C_Mem_Read+0x256>
 8002636:	68fb      	ldr	r3, [r7, #12]
 8002638:	8d5b      	ldrh	r3, [r3, #42]	; 0x2a
 800263a:	b29b      	uxth	r3, r3
